{
	"data": {
		"bytecode": {
			"linkReferences": {},
			"object": "6080604052600c805460ff191690556001600d555f60105534801562000023575f80fd5b50604051620057783803806200577883398101604081905262000046916200037d565b336040518060400160405280601f81526020017f537570657246616e746173746963204576656e7420436f6c6c656374696f6e00815250604051806040016040528060048152602001635346454360e01b815250815f9081620000aa919062000492565b506001620000b9828262000492565b5050506001600160a01b038116620000eb57604051631e4fbdf760e01b81525f60048201526024015b60405180910390fd5b620000f6816200026b565b506001600b5582516200014c5760405162461bcd60e51b815260206004820152601e60248201527f4261736520696d616765205552492063616e6e6f7420626520656d70747900006044820152606401620000e2565b5f8151116200019e5760405162461bcd60e51b815260206004820152601e60248201527f4e53465720696d616765205552492063616e6e6f7420626520656d70747900006044820152606401620000e2565b600e620001ac848262000492565b50600f620001bb838262000492565b506011620001ca828262000492565b50335f8181526015602090815260408083208054600160ff199182168117909255601484529382902080549094168117909355519182527f0f9627f2bcde79ef556afce5415f83ef6707259e165ef7a36168320efdba2498910160405180910390a26040516001815233907f26e4a6a023a3571e6b5896c2194796e79d4d8f7246e495957612f0c3a641e7349060200160405180910390a25050506200055e565b600a80546001600160a01b038381166001600160a01b0319831681179093556040519116919082907f8be0079c531659141344cd1fd0a4f28419497f9722a3daafe3b4186f6b6457e0905f90a35050565b634e487b7160e01b5f52604160045260245ffd5b5f82601f830112620002e0575f80fd5b81516001600160401b0380821115620002fd57620002fd620002bc565b604051601f8301601f19908116603f01168101908282118183101715620003285762000328620002bc565b816040528381526020925086602085880101111562000345575f80fd5b5f91505b8382101562000368578582018301518183018401529082019062000349565b5f602085830101528094505050505092915050565b5f805f6060848603121562000390575f80fd5b83516001600160401b0380821115620003a7575f80fd5b620003b587838801620002d0565b94506020860151915080821115620003cb575f80fd5b620003d987838801620002d0565b93506040860151915080821115620003ef575f80fd5b50620003fe86828701620002d0565b9150509250925092565b600181811c908216806200041d57607f821691505b6020821081036200043c57634e487b7160e01b5f52602260045260245ffd5b50919050565b601f8211156200048d57805f5260205f20601f840160051c81016020851015620004695750805b601f840160051c820191505b818110156200048a575f815560010162000475565b50505b505050565b81516001600160401b03811115620004ae57620004ae620002bc565b620004c681620004bf845462000408565b8462000442565b602080601f831160018114620004fc575f8415620004e45750858301515b5f19600386901b1c1916600185901b17855562000556565b5f85815260208120601f198616915b828110156200052c578886015182559484019460019091019084016200050b565b50858210156200054a57878501515f19600388901b60f8161c191681555b505060018460011b0185555b505050505050565b61520c806200056c5f395ff3fe608060405260043610610327575f3560e01c8063715018a6116101a3578063b88d4fde116100f2578063df4e53e211610092578063eb0dc34b1161006d578063eb0dc34b146108ed578063ebe8487c14610901578063f2fde38b14610920578063f4a0a5281461093f575f80fd5b8063df4e53e2146108af578063e086e5ec146104e0578063e985e9c5146108ce575f80fd5b8063c87b56dd116100cd578063c87b56dd1461082f578063cab27baa1461084e578063cfdbf2541461087c578063d12717bd14610890575f80fd5b8063b88d4fde146107d2578063bee79dc9146107f1578063c02542f514610810575f80fd5b80638d0ca2ac1161015d57806399579ff31161013857806399579ff3146107575780639d99229b1461076b578063a22cb4651461078a578063b70f402d146107a4575f80fd5b80638d0ca2ac146107075780638da5cb5b1461072657806395d89b4114610743575f80fd5b8063715018a614610663578063819d4cc6146106775780638456cb5914610696578063847c8299146106aa5780638980f11f146106c95780638cd9c0d4146106e8575f80fd5b80633ac2a9d91161027957806360316801116102195780636914db60116101f45780636914db60146105e15780636ac437b0146106115780636d8c6ec21461062557806370a0823114610644575f80fd5b8063603168011461057c5780636352211e146105ad5780636817c76c146105cc575f80fd5b80633f4ba83a116102545780633f4ba83a1461051357806342842e0e146105275780634f6ccce7146105465780635c975abb14610565575f80fd5b80633ac2a9d9146104c95780633ccfd60b146104e05780633ee2b01d146104f4575f80fd5b806318160ddd116102e457806323b872dd116102bf57806323b872dd146104635780632f745c591461048257806331b6475c146104a157806332cb6b0c146104b4575f80fd5b806318160ddd1461041a5780631f8cbe5c1461043857806321771bd11461044c575f80fd5b806301ffc9a71461032b57806305cf76fc1461035f57806306fdde0314610380578063081812fc14610394578063095ea7b3146103cb57806314d0f1ba146103ec575b5f80fd5b348015610336575f80fd5b5061034a6103453660046141bc565b61095e565b60405190151581526020015b60405180910390f35b34801561036a575f80fd5b5061037361096e565b604051610356919061422b565b34801561038b575f80fd5b506103736109fe565b34801561039f575f80fd5b506103b36103ae36600461423d565b610a0c565b6040516001600160a01b039091168152602001610356565b3480156103d6575f80fd5b506103ea6103e5366004614268565b610a33565b005b3480156103f7575f80fd5b5061034a610406366004614292565b60146020525f908152604090205460ff1681565b348015610425575f80fd5b506008545b604051908152602001610356565b348015610443575f80fd5b50610373610a80565b348015610457575f80fd5b5061042a6301e1338081565b34801561046e575f80fd5b506103ea61047d3660046142ad565b610a8f565b34801561048d575f80fd5b5061042a61049c366004614268565b610b18565b6103ea6104af36600461438f565b610b7b565b3480156104bf575f80fd5b5061042a61271081565b3480156104d4575f80fd5b5061042a630966018081565b3480156104eb575f80fd5b506103ea610e45565b3480156104ff575f80fd5b506103ea61050e366004614418565b610f9a565b34801561051e575f80fd5b506103ea611057565b348015610532575f80fd5b506103ea6105413660046142ad565b6110e8565b348015610551575f80fd5b5061042a61056036600461423d565b611107565b348015610570575f80fd5b50600c5460ff1661034a565b348015610587575f80fd5b5061059b61059636600461423d565b61115c565b60405161035696959493929190614453565b3480156105b8575f80fd5b506103b36105c736600461423d565b611382565b3480156105d7575f80fd5b5061042a60105481565b3480156105ec575f80fd5b506106006105fb36600461423d565b61138c565b6040516103569594939291906144b5565b34801561061c575f80fd5b5061034a611555565b348015610630575f80fd5b506103ea61063f366004614510565b611578565b34801561064f575f80fd5b5061042a61065e366004614292565b6116f7565b34801561066e575f80fd5b506103ea61173c565b348015610682575f80fd5b506103ea610691366004614268565b61174d565b3480156106a1575f80fd5b506103ea6119b1565b3480156106b5575f80fd5b506103ea6106c43660046145a2565b611a19565b3480156106d4575f80fd5b506103ea6106e3366004614268565b611afa565b3480156106f3575f80fd5b506103ea61070236600461423d565b611d4a565b348015610712575f80fd5b506103ea6107213660046145a2565b611e0a565b348015610731575f80fd5b50600a546001600160a01b03166103b3565b34801561074e575f80fd5b50610373611f2f565b348015610762575f80fd5b5061042a603281565b348015610776575f80fd5b506103ea6107853660046145d3565b611f3e565b348015610795575f80fd5b506103ea6103e5366004614418565b3480156107af575f80fd5b5061034a6107be36600461423d565b60136020525f908152604090205460ff1681565b3480156107dd575f80fd5b506103ea6107ec36600461460d565b61222d565b3480156107fc575f80fd5b506103ea61080b3660046145a2565b612245565b34801561081b575f80fd5b506103ea61082a3660046146ce565b61236a565b34801561083a575f80fd5b5061037361084936600461423d565b612a17565b348015610859575f80fd5b5061034a610868366004614292565b60156020525f908152604090205460ff1681565b348015610887575f80fd5b5061042a606481565b34801561089b575f80fd5b506103ea6108aa366004614418565b613046565b3480156108ba575f80fd5b506103ea6108c936600461478b565b6130f4565b3480156108d9575f80fd5b5061034a6108e83660046147ce565b613267565b3480156108f8575f80fd5b50610373613294565b34801561090c575f80fd5b506103ea61091b3660046147fa565b6132a3565b34801561092b575f80fd5b506103ea61093a366004614292565b6134ea565b34801561094a575f80fd5b506103ea61095936600461423d565b613527565b5f6109688261356d565b92915050565b60606011805461097d9061485d565b80601f01602080910402602001604051908101604052809291908181526020018280546109a99061485d565b80156109f45780601f106109cb576101008083540402835291602001916109f4565b820191905f5260205f20905b8154815290600101906020018083116109d757829003601f168201915b5050505050905090565b60605f805461097d9061485d565b5f610a1682613591565b505f828152600460205260409020546001600160a01b0316610968565b60405162461bcd60e51b815260206004820152601d60248201527f536f756c626f756e643a20617070726f76616c732064697361626c656400000060448201526064015b60405180910390fd5b6060600e805461097d9061485d565b6001600160a01b038216610ab857604051633250574960e11b81525f6004820152602401610a77565b5f610ac48383336135c9565b9050836001600160a01b0316816001600160a01b031614610b12576040516364283d7b60e01b81526001600160a01b0380861660048301526024820184905282166044820152606401610a77565b50505050565b5f610b22836116f7565b8210610b535760405163295f44f760e21b81526001600160a01b038416600482015260248101839052604401610a77565b506001600160a01b03919091165f908152600660209081526040808320938352929052205490565b612710610b8760085490565b10610ba45760405162461bcd60e51b8152600401610a7790614895565b600c5460ff1615610bc75760405162461bcd60e51b8152600401610a77906148c1565b80610bd66301e13380426148ff565b811115610bf55760405162461bcd60e51b8152600401610a7790614912565b610c03630966018042614949565b811015610c225760405162461bcd60e51b8152600401610a779061495c565b610c2a613658565b601054341015610c735760405162461bcd60e51b8152602060048201526014602482015273125b9cdd59999a58da595b9d081c185e5b595b9d60621b6044820152606401610a77565b5f835111610c935760405162461bcd60e51b8152600401610a7790614993565b5f60105434610ca29190614949565b600d80549192505f919082610cb6836149c0565b909155506040805160a08101825289815260208082018a9052818301899052606082018890523360808301525f848152601290915291909120815192935090918190610d029082614a1c565b5060208201516001820190610d179082614a1c565b5060408201516002820190610d2c9082614a1c565b5060608201516003820155608090910151600490910180546001600160a01b0319166001600160a01b03909216919091179055604051819033907fe7cd4ce7f2a465edc730269a1305e8a48bad821e8fb7e152ec413829c01a53c490610d9390899061422b565b60405180910390a3610da53382613682565b8115610e32576040515f90339084908381818185875af1925050503d805f8114610dea576040519150601f19603f3d011682016040523d82523d5f602084013e610def565b606091505b5050905080610e305760405162461bcd60e51b815260206004820152600d60248201526c1499599d5b990819985a5b1959609a1b6044820152606401610a77565b505b5050610e3e6001600b55565b5050505050565b610e4d61369b565b610e55613658565b4780610e9a5760405162461bcd60e51b81526020600482015260146024820152734e6f2066756e647320746f20776974686472617760601b6044820152606401610a77565b5f610ead600a546001600160a01b031690565b6001600160a01b0316826040515f6040518083038185875af1925050503d805f8114610ef4576040519150601f19603f3d011682016040523d82523d5f602084013e610ef9565b606091505b5050905080610f3e5760405162461bcd60e51b815260206004820152601160248201527015da5d1a191c985dd85b0819985a5b1959607a1b6044820152606401610a77565b600a546001600160a01b03166001600160a01b03167fcb34bab4d8a21ce2df6988d496d854246c2a96147dac484b1e1a30be9213befd83604051610f8491815260200190565b60405180910390a25050610f986001600b55565b565b610fa261369b565b6001600160a01b038216610ff85760405162461bcd60e51b815260206004820152601960248201527f496e76616c6964206d6f64657261746f722061646472657373000000000000006044820152606401610a77565b6001600160a01b0382165f81815260146020908152604091829020805460ff191685151590811790915591519182527f26e4a6a023a3571e6b5896c2194796e79d4d8f7246e495957612f0c3a641e73491015b60405180910390a25050565b61105f61369b565b600c5460ff166110a85760405162461bcd60e51b815260206004820152601460248201527314185d5cd8589b194e881b9bdd081c185d5cd95960621b6044820152606401610a77565b600c805460ff191690556040513381527f5db9ee0a495bf2e6ff9c91a7834c1ba4fdd244a5e8aa4e537bd38aeae4b073aa906020015b60405180910390a1565b61110283838360405180602001604052805f81525061222d565b505050565b5f61111160085490565b82106111395760405163295f44f760e21b81525f600482015260248101839052604401610a77565b6008828154811061114c5761114c614ad7565b905f5260205f2001549050919050565b60608060605f805f61116d876136c8565b6111895760405162461bcd60e51b8152600401610a7790614aeb565b5f8781526012602090815260408083206003810154600482015460139094529190932054835484936001850193600286019390926001600160a01b039092169160ff9091169086906111da9061485d565b80601f01602080910402602001604051908101604052809291908181526020018280546112069061485d565b80156112515780601f1061122857610100808354040283529160200191611251565b820191905f5260205f20905b81548152906001019060200180831161123457829003601f168201915b505050505095508480546112649061485d565b80601f01602080910402602001604051908101604052809291908181526020018280546112909061485d565b80156112db5780601f106112b2576101008083540402835291602001916112db565b820191905f5260205f20905b8154815290600101906020018083116112be57829003601f168201915b505050505094508380546112ee9061485d565b80601f016020809104026020016040519081016040528092919081815260200182805461131a9061485d565b80156113655780601f1061133c57610100808354040283529160200191611365565b820191905f5260205f20905b81548152906001019060200180831161134857829003601f168201915b505050505093509650965096509650965096505091939550919395565b5f61096882613591565b60126020525f90815260409020805481906113a69061485d565b80601f01602080910402602001604051908101604052809291908181526020018280546113d29061485d565b801561141d5780601f106113f45761010080835404028352916020019161141d565b820191905f5260205f20905b81548152906001019060200180831161140057829003601f168201915b5050505050908060010180546114329061485d565b80601f016020809104026020016040519081016040528092919081815260200182805461145e9061485d565b80156114a95780601f10611480576101008083540402835291602001916114a9565b820191905f5260205f20905b81548152906001019060200180831161148c57829003601f168201915b5050505050908060020180546114be9061485d565b80601f01602080910402602001604051908101604052809291908181526020018280546114ea9061485d565b80156115355780601f1061150c57610100808354040283529160200191611535565b820191905f5260205f20905b81548152906001019060200180831161151857829003601f168201915b5050505060038301546004909301549192916001600160a01b0316905085565b600c545f9060ff16158015611573575061271061157160085490565b105b905090565b806115876301e13380426148ff565b8111156115a65760405162461bcd60e51b8152600401610a7790614912565b6115b4630966018042614949565b8110156115d35760405162461bcd60e51b8152600401610a779061495c565b335f9081526015602052604090205460ff166116225760405162461bcd60e51b815260206004820152600e60248201526d139bdd08185d5d1a1bdc9a5e995960921b6044820152606401610a77565b61162b866136c8565b6116475760405162461bcd60e51b8152600401610a7790614aeb565b5f8351116116675760405162461bcd60e51b8152600401610a7790614993565b5f86815260126020526040902061167e8682614a1c565b505f8681526012602052604090206001016116998582614a1c565b505f8681526012602052604090206002016116b48482614a1c565b505f868152601260205260408082206003018490555187917faf80443d368c70a4ed2ee587233722b4f8cdc67c63a6e083a704bfaf6119acd491a2505050505050565b5f6001600160a01b038216611721576040516322718ad960e21b81525f6004820152602401610a77565b506001600160a01b03165f9081526003602052604090205490565b61174461369b565b610f985f6136db565b61175561369b565b61175d613658565b6001600160a01b0382166117ab5760405162461bcd60e51b8152602060048201526015602482015274496e76616c696420746f6b656e206164647265737360581b6044820152606401610a77565b306001600160a01b038316036117ff5760405162461bcd60e51b815260206004820152601960248201527843616e6e6f74207265636f766572206f776e20746f6b656e7360381b6044820152606401610a77565b6040516331a9108f60e11b815260048101829052829030906001600160a01b03831690636352211e90602401602060405180830381865afa158015611846573d5f803e3d5ffd5b505050506040513d601f19601f8201168201806040525081019061186a9190614b19565b6001600160a01b0316146118c05760405162461bcd60e51b815260206004820152601f60248201527f436f6e747261637420646f65736e2774206f776e207468697320746f6b656e006044820152606401610a77565b806001600160a01b03166342842e0e306118e2600a546001600160a01b031690565b6040516001600160e01b031960e085901b1681526001600160a01b03928316600482015291166024820152604481018590526064015f604051808303815f87803b15801561192e575f80fd5b505af1158015611940573d5f803e3d5ffd5b50505050611956600a546001600160a01b031690565b6001600160a01b0316836001600160a01b03167f6a30e6784464f0d1f4158aa4cb65ae9239b0fa87c7f2c083ee6dde44ba97b5e68460405161199a91815260200190565b60405180910390a3506119ad6001600b55565b5050565b6119b961369b565b600c5460ff16156119dc5760405162461bcd60e51b8152600401610a77906148c1565b600c805460ff191660011790556040513381527f62e78cea01bee320cd4e420270b5ea74000d11b0c9f74754ebdbfc544b05a258906020016110de565b611a2161369b565b5f600f8054611a2f9061485d565b80601f0160208091040260200160405190810160405280929190818152602001828054611a5b9061485d565b8015611aa65780601f10611a7d57610100808354040283529160200191611aa6565b820191905f5260205f20905b815481529060010190602001808311611a8957829003601f168201915b5050505050905081600f9081611abc9190614a1c565b507f2ee34ae5b6960446904225ae73adf4bf8345cf5b36ae0fac7e925c4f2912c1988183604051611aee929190614b34565b60405180910390a15050565b611b0261369b565b611b0a613658565b6001600160a01b038216611b585760405162461bcd60e51b8152602060048201526015602482015274496e76616c696420746f6b656e206164647265737360581b6044820152606401610a77565b306001600160a01b03831603611bac5760405162461bcd60e51b815260206004820152601960248201527843616e6e6f74207265636f766572206f776e20746f6b656e7360381b6044820152606401610a77565b6040516370a0823160e01b815230600482015282905f906001600160a01b038316906370a0823190602401602060405180830381865afa158015611bf2573d5f803e3d5ffd5b505050506040513d601f19601f82011682018060405250810190611c169190614b58565b90505f8111611c5e5760405162461bcd60e51b81526020600482015260146024820152732737903a37b5b2b739903a37903932b1b7bb32b960611b6044820152606401610a77565b5f8315611c6b5783611c6d565b815b905081811115611cbf5760405162461bcd60e51b815260206004820152601a60248201527f496e73756666696369656e7420746f6b656e2062616c616e63650000000000006044820152606401610a77565b611ce5611cd4600a546001600160a01b031690565b6001600160a01b038516908361372c565b600a546001600160a01b03166001600160a01b0316856001600160a01b03167faca8fb252cde442184e5f10e0f2e6e4029e8cd7717cae63559079610702436aa83604051611d3591815260200190565b60405180910390a35050506119ad6001600b55565b611d5261369b565b611d5b816136c8565b611d775760405162461bcd60e51b8152600401610a7790614aeb565b5f8181526013602052604090205460ff16611dc85760405162461bcd60e51b8152602060048201526011602482015270151bdad95b881b9bdd08199b1859d9d959607a1b6044820152606401610a77565b5f81815260136020526040808220805460ff1916905551339183917ff1e0db905ff53ed7fc5723586c8c1b01c3946b8d863532b99cf2ca2bdf0a698a9190a350565b611e1261369b565b5f815111611e625760405162461bcd60e51b815260206004820152601e60248201527f4261736520696d616765205552492063616e6e6f7420626520656d70747900006044820152606401610a77565b5f600e8054611e709061485d565b80601f0160208091040260200160405190810160405280929190818152602001828054611e9c9061485d565b8015611ee75780601f10611ebe57610100808354040283529160200191611ee7565b820191905f5260205f20905b815481529060010190602001808311611eca57829003601f168201915b5050505050905081600e9081611efd9190614a1c565b507fe58b9e51bef361bd74ce82df23cf733f18e6a3d8ee4405f37c96aa6c058164d58183604051611aee929190614b34565b60606001805461097d9061485d565b612710611f4a60085490565b10611f675760405162461bcd60e51b8152600401610a7790614895565b600c5460ff1615611f8a5760405162461bcd60e51b8152600401610a77906148c1565b80611f996301e13380426148ff565b811115611fb85760405162461bcd60e51b8152600401610a7790614912565b611fc6630966018042614949565b811015611fe55760405162461bcd60e51b8152600401610a779061495c565b611fed613658565b335f9081526015602052604090205460ff1661204b5760405162461bcd60e51b815260206004820152601b60248201527f4e6f7420617574686f72697a656420746f207465616d206d696e7400000000006044820152606401610a77565b6001600160a01b0386166120a15760405162461bcd60e51b815260206004820152601b60248201527f43616e6e6f74206d696e7420746f207a65726f206164647265737300000000006044820152606401610a77565b5f8551116120fd5760405162461bcd60e51b815260206004820152602360248201527f437573746f6d20696d61676520726571756972656420666f72207465616d206d6044820152621a5b9d60ea1b6064820152608401610a77565b5f83511161211d5760405162461bcd60e51b8152600401610a7790614993565b600d80545f918261212d836149c0565b909155506040805160a0810182528881526020808201899052818301889052606082018790523360808301525f8481526012909152919091208151929350909181906121799082614a1c565b506020820151600182019061218e9082614a1c565b50604082015160028201906121a39082614a1c565b5060608201516003820155608090910151600490910180546001600160a01b0319166001600160a01b0392831617905560405182918916907fe7cd4ce7f2a465edc730269a1305e8a48bad821e8fb7e152ec413829c01a53c49061220890889061422b565b60405180910390a361221a8782613682565b506122256001600b55565b505050505050565b612238848484610a8f565b610b12338585858561377e565b61224d61369b565b5f81511161229d5760405162461bcd60e51b815260206004820152601e60248201527f4e53465720696d616765205552492063616e6e6f7420626520656d70747900006044820152606401610a77565b5f601180546122ab9061485d565b80601f01602080910402602001604051908101604052809291908181526020018280546122d79061485d565b80156123225780601f106122f957610100808354040283529160200191612322565b820191905f5260205f20905b81548152906001019060200180831161230557829003601f168201915b5050505050905081601190816123389190614a1c565b507ff0f06ef0030199c7035f06c3952fa436eea07d7ca8a105ecbb344e9e4b7ab9258183604051611aee929190614b34565b61271061237660085490565b106123935760405162461bcd60e51b8152600401610a7790614895565b600c5460ff16156123b65760405162461bcd60e51b8152600401610a77906148c1565b806123c56301e13380426148ff565b8111156123e45760405162461bcd60e51b8152600401610a7790614912565b6123f2630966018042614949565b8110156124115760405162461bcd60e51b8152600401610a779061495c565b612419613658565b335f9081526015602052604090205460ff166124775760405162461bcd60e51b815260206004820152601b60248201527f4e6f7420617574686f72697a656420746f207465616d206d696e7400000000006044820152606401610a77565b876124bd5760405162461bcd60e51b8152602060048201526016602482015275139bc81c9958da5c1a595b9d1cc81c1c9bdd9a59195960521b6044820152606401610a77565b60648811156125055760405162461bcd60e51b815260206004820152601460248201527342617463682073697a6520746f6f206c6172676560601b6044820152606401610a77565b87861461255e5760405162461bcd60e51b815260206004820152602160248201527f526563697069656e74732f696d61676573206c656e677468206d69736d6174636044820152600d60fb1b6064820152608401610a77565b8784146125ad5760405162461bcd60e51b815260206004820181905260248201527f526563697069656e74732f7465787473206c656e677468206d69736d617463686044820152606401610a77565b612710886125ba60085490565b6125c491906148ff565b11156126125760405162461bcd60e51b815260206004820152601d60248201527f426174636820776f756c6420657863656564206d617820737570706c790000006044820152606401610a77565b5f8351116126325760405162461bcd60e51b8152600401610a7790614993565b5f886001600160401b0381111561264b5761264b6142eb565b604051908082528060200260200182016040528015612674578160200160208202803683370190505b5090505f5b8981101561295f575f8b8b8381811061269457612694614ad7565b90506020020160208101906126a99190614292565b6001600160a01b0316036126ff5760405162461bcd60e51b815260206004820152601b60248201527f43616e6e6f74206d696e7420746f207a65726f206164647265737300000000006044820152606401610a77565b5f89898381811061271257612712614ad7565b90506020028101906127249190614b6f565b90501161276b5760405162461bcd60e51b815260206004820152601560248201527410dd5cdd1bdb481a5b5859d9481c995c5d5a5c9959605a1b6044820152606401610a77565b600d80545f918261277b836149c0565b9190505590508083838151811061279457612794614ad7565b6020026020010181815250506040518060a001604052808b8b858181106127bd576127bd614ad7565b90506020028101906127cf9190614b6f565b8080601f0160208091040260200160405190810160405280939291908181526020018383808284375f9201919091525050509082525060200189898581811061281a5761281a614ad7565b905060200281019061282c9190614b6f565b8080601f0160208091040260200160405190810160405280939291908181526020018383808284375f92018290525093855250505060208083018a905260408084018a9052336060909401939093528482526012905220815181906128919082614a1c565b50602082015160018201906128a69082614a1c565b50604082015160028201906128bb9082614a1c565b5060608201516003820155608090910151600490910180546001600160a01b0319166001600160a01b03909216919091179055808c8c8481811061290157612901614ad7565b90506020020160208101906129169190614292565b6001600160a01b03167fe7cd4ce7f2a465edc730269a1305e8a48bad821e8fb7e152ec413829c01a53c48860405161294e919061422b565b60405180910390a350600101612679565b505f5b898110156129bb576129b38b8b8381811061297f5761297f614ad7565b90506020020160208101906129949190614292565b8383815181106129a6576129a6614ad7565b6020026020010151613682565b600101612962565b50336001600160a01b03167f61e209d90c6af70648744b363ca9ff9ded37d615f9a9f058d59ecd23f03685e38b8b846040516129f993929190614bb1565b60405180910390a250612a0c6001600b55565b505050505050505050565b6060612a22826136c8565b612a3e5760405162461bcd60e51b8152600401610a7790614aeb565b5f612a4883611382565b6001600160a01b031603612a915760405162461bcd60e51b815260206004820152601060248201526f151bdad95b881dd85cc8189d5c9b995960821b6044820152606401610a77565b5f82815260126020526040812090612aa884611382565b90505f612abf826001600160a01b0316601461389d565b60048401549091505f90612add906001600160a01b0316601461389d565b5f8781526013602052604090205490915060609060ff1615612b895760118054612b069061485d565b80601f0160208091040260200160405190810160405280929190818152602001828054612b329061485d565b8015612b7d5780601f10612b5457610100808354040283529160200191612b7d565b820191905f5260205f20905b815481529060010190602001808311612b6057829003601f168201915b50505050509050612c32565b5f855f018054612b989061485d565b905011612ba657600e612ba8565b845b8054612bb39061485d565b80601f0160208091040260200160405190810160405280929190818152602001828054612bdf9061485d565b8015612c2a5780601f10612c0157610100808354040283529160200191612c2a565b820191905f5260205f20905b815481529060010190602001808311612c0d57829003601f168201915b505050505090505b5f8781526013602052604090205460609060ff1615612d4f575f866001018054612c5b9061485d565b905011612c9d576040518060400160405280601881526020017f537570657246616e746173746963204576656e74204e46540000000000000000815250612d29565b856001018054612cac9061485d565b80601f0160208091040260200160405190810160405280929190818152602001828054612cd89061485d565b8015612d235780601f10612cfa57610100808354040283529160200191612d23565b820191905f5260205f20905b815481529060010190602001808311612d0657829003601f168201915b50505050505b604051602001612d399190614c3e565b6040516020818303038152906040529050612e13565b5f866001018054612d5f9061485d565b905011612d845760405180608001604052806044815260200161519360449139612e10565b856001018054612d939061485d565b80601f0160208091040260200160405190810160405280929190818152602001828054612dbf9061485d565b8015612e0a5780601f10612de157610100808354040283529160200191612e0a565b820191905f5260205f20905b815481529060010190602001808311612ded57829003601f168201915b50505050505b90505b5f8484604051602001612e27929190614c7e565b60405160208183030381529060405290505f876002018054612e489061485d565b90501115612e78578087600201604051602001612e66929190614d8f565b60405160208183030381529060405290505b600387015415612eb35780612e908860030154613a16565b604051602001612ea1929190614de8565b60405160208183030381529060405290505b5f875f018054612ec29061485d565b90501115612eed5780604051602001612edb9190614e74565b60405160208183030381529060405290505b5f8981526013602052604090205460ff1615612f265780604051602001612f149190614eca565b60405160208183030381529060405290505b5f612f308a613a16565b604051602001612f409190614f1d565b60405160208183030381529060405290505f886002018054612f619061485d565b90501115612f91578088600201604051602001612f7f929190614f61565b60405160208183030381529060405290505b808385604051602001612fa693929190614f8c565b60405160208183030381529060405290505f600f8054612fc59061485d565b90501115612ff35780600f604051602001612fe1929190615012565b60405160208183030381529060405290505b808260405160200161300692919061505f565b60405160208183030381529060405290508060405160200161302891906150b7565b60405160208183030381529060405298505050505050505050919050565b61304e61369b565b6001600160a01b03821661309d5760405162461bcd60e51b8152602060048201526016602482015275496e76616c6964206d696e746572206164647265737360501b6044820152606401610a77565b6001600160a01b0382165f81815260156020908152604091829020805460ff191685151590811790915591519182527f0f9627f2bcde79ef556afce5415f83ef6707259e165ef7a36168320efdba2498910161104b565b335f9081526014602052604090205460ff166131525760405162461bcd60e51b815260206004820152601a60248201527f4e6f7420617574686f72697a656420746f206d6f6465726174650000000000006044820152606401610a77565b61315b826136c8565b6131775760405162461bcd60e51b8152600401610a7790614aeb565b5f8281526013602052604090205460ff16156131cd5760405162461bcd60e51b8152602060048201526015602482015274151bdad95b88185b1c9958591e48199b1859d9d959605a1b6044820152606401610a77565b5f81511161320f5760405162461bcd60e51b815260206004820152600f60248201526e1499585cdbdb881c995c5d5a5c9959608a1b6044820152606401610a77565b5f8281526013602052604090819020805460ff1916600117905551339083907f18bb2433ec38fd06537731aa25de4215baf5855b976fa955376c81088d9c55529061325b90859061422b565b60405180910390a35050565b6001600160a01b039182165f90815260056020908152604080832093909416825291909152205460ff1690565b6060600f805461097d9061485d565b335f9081526014602052604090205460ff166133015760405162461bcd60e51b815260206004820152601a60248201527f4e6f7420617574686f72697a656420746f206d6f6465726174650000000000006044820152606401610a77565b816133435760405162461bcd60e51b8152602060048201526012602482015271139bc81d1bdad95b9cc81c1c9bdd9a59195960721b6044820152606401610a77565b60328211156133945760405162461bcd60e51b815260206004820152601f60248201527f546f6f206d616e7920746f6b656e7320746f20666c6167206174206f6e6365006044820152606401610a77565b5f8151116133d65760405162461bcd60e51b815260206004820152600f60248201526e1499585cdbdb881c995c5d5a5c9959608a1b6044820152606401610a77565b5f5b82811015610b12576134018484838181106133f5576133f5614ad7565b905060200201356136c8565b61341d5760405162461bcd60e51b8152600401610a7790614aeb565b60135f85858481811061343257613432614ad7565b602090810292909201358352508101919091526040015f205460ff166134e257600160135f86868581811061346957613469614ad7565b602090810292909201358352508101919091526040015f20805460ff1916911515919091179055338484838181106134a3576134a3614ad7565b905060200201357f18bb2433ec38fd06537731aa25de4215baf5855b976fa955376c81088d9c5552846040516134d9919061422b565b60405180910390a35b6001016133d8565b6134f261369b565b6001600160a01b03811661351b57604051631e4fbdf760e01b81525f6004820152602401610a77565b613524816136db565b50565b61352f61369b565b601080549082905560408051828152602081018490527f2e1c9e000c6e8dda4d03536adb13b7cb6034ccff90d17f01de381e4d5097b5259101611aee565b5f6001600160e01b0319821663780e9d6360e01b1480610968575061096882613aa5565b5f818152600260205260408120546001600160a01b03168061096857604051637e27328960e01b815260048101849052602401610a77565b5f828152600260205260408120546001600160a01b031680158015906135f757506001600160a01b03851615155b156136445760405162461bcd60e51b815260206004820152601d60248201527f536f756c626f756e643a207472616e73666572732064697361626c65640000006044820152606401610a77565b61364f858585613af4565b95945050505050565b6002600b540361367b57604051633ee5aeb560e01b815260040160405180910390fd5b6002600b55565b6119ad828260405180602001604052805f815250613bbf565b600a546001600160a01b03163314610f985760405163118cdaa760e01b8152336004820152602401610a77565b5f8082118015610968575050600d541190565b600a80546001600160a01b038381166001600160a01b0319831681179093556040519116919082907f8be0079c531659141344cd1fd0a4f28419497f9722a3daafe3b4186f6b6457e0905f90a35050565b604080516001600160a01b038416602482015260448082018490528251808303909101815260649091019091526020810180516001600160e01b031663a9059cbb60e01b179052611102908490613bd6565b6001600160a01b0383163b15610e3e57604051630a85bd0160e11b81526001600160a01b0384169063150b7a02906137c09088908890879087906004016150fb565b6020604051808303815f875af19250505080156137fa575060408051601f3d908101601f191682019092526137f791810190615137565b60015b613861573d808015613827576040519150601f19603f3d011682016040523d82523d5f602084013e61382c565b606091505b5080515f0361385957604051633250574960e11b81526001600160a01b0385166004820152602401610a77565b805160208201fd5b6001600160e01b03198116630a85bd0160e11b1461222557604051633250574960e11b81526001600160a01b0385166004820152602401610a77565b6060825f6138ac846002615152565b6138b79060026148ff565b6001600160401b038111156138ce576138ce6142eb565b6040519080825280601f01601f1916602001820160405280156138f8576020820181803683370190505b509050600360fc1b815f8151811061391257613912614ad7565b60200101906001600160f81b03191690815f1a905350600f60fb1b8160018151811061394057613940614ad7565b60200101906001600160f81b03191690815f1a9053505f613962856002615152565b61396d9060016148ff565b90505b60018111156139e4576f181899199a1a9b1b9c1cb0b131b232b360811b83600f16601081106139a1576139a1614ad7565b1a60f81b8282815181106139b7576139b7614ad7565b60200101906001600160f81b03191690815f1a90535060049290921c916139dd81615169565b9050613970565b508115613a0e5760405163e22e27eb60e01b81526004810186905260248101859052604401610a77565b949350505050565b60605f613a2283613c42565b60010190505f816001600160401b03811115613a4057613a406142eb565b6040519080825280601f01601f191660200182016040528015613a6a576020820181803683370190505b5090508181016020015b5f19016f181899199a1a9b1b9c1cb0b131b232b360811b600a86061a8153600a8504945084613a7457509392505050565b5f6001600160e01b031982166380ac58cd60e01b1480613ad557506001600160e01b03198216635b5e139f60e01b145b8061096857506301ffc9a760e01b6001600160e01b0319831614610968565b5f80613b01858585613d19565b90506001600160a01b038116613b5d57613b5884600880545f838152600960205260408120829055600182018355919091527ff3f7a9fe364faab93b216da50a3214154f22a0a2b415b23a84c8169e8b636ee30155565b613b80565b846001600160a01b0316816001600160a01b031614613b8057613b808185613e0b565b6001600160a01b038516613b9c57613b9784613e88565b613a0e565b846001600160a01b0316816001600160a01b031614613a0e57613a0e8585613f2f565b613bc98383613f7d565b611102335f85858561377e565b5f8060205f8451602086015f885af180613bf5576040513d5f823e3d81fd5b50505f513d91508115613c0c578060011415613c19565b6001600160a01b0384163b155b15610b1257604051635274afe760e01b81526001600160a01b0385166004820152602401610a77565b5f8072184f03e93ff9f4daa797ed6e38ed64bf6a1f0160401b8310613c805772184f03e93ff9f4daa797ed6e38ed64bf6a1f0160401b830492506040015b6d04ee2d6d415b85acef81000000008310613cac576d04ee2d6d415b85acef8100000000830492506020015b662386f26fc100008310613cca57662386f26fc10000830492506010015b6305f5e1008310613ce2576305f5e100830492506008015b6127108310613cf657612710830492506004015b60648310613d08576064830492506002015b600a83106109685760010192915050565b5f828152600260205260408120546001600160a01b0390811690831615613d4557613d45818486613fde565b6001600160a01b03811615613d7f57613d605f855f80614042565b6001600160a01b0381165f90815260036020526040902080545f190190555b6001600160a01b03851615613dad576001600160a01b0385165f908152600360205260409020805460010190555b5f8481526002602052604080822080546001600160a01b0319166001600160a01b0389811691821790925591518793918516917fddf252ad1be2c89b69c2b068fc378daa952ba7f163c4a11628f55a4df523b3ef91a4949350505050565b5f613e15836116f7565b5f838152600760209081526040808320546001600160a01b0388168452600690925290912091925090818314613e6a575f83815260208281526040808320548584528184208190558352600790915290208290555b5f938452600760209081526040808620869055938552525081205550565b6008545f90613e9990600190614949565b5f8381526009602052604081205460088054939450909284908110613ec057613ec0614ad7565b905f5260205f20015490508060088381548110613edf57613edf614ad7565b5f918252602080832090910192909255828152600990915260408082208490558582528120556008805480613f1657613f1661517e565b600190038181905f5260205f20015f9055905550505050565b5f6001613f3b846116f7565b613f459190614949565b6001600160a01b039093165f908152600660209081526040808320868452825280832085905593825260079052919091209190915550565b6001600160a01b038216613fa657604051633250574960e11b81525f6004820152602401610a77565b5f613fb283835f6135c9565b90506001600160a01b03811615611102576040516339e3563760e11b81525f6004820152602401610a77565b613fe9838383614146565b611102576001600160a01b03831661401757604051637e27328960e01b815260048101829052602401610a77565b60405163177e802f60e01b81526001600160a01b038316600482015260248101829052604401610a77565b808061405657506001600160a01b03821615155b15614117575f61406584613591565b90506001600160a01b038316158015906140915750826001600160a01b0316816001600160a01b031614155b80156140a457506140a28184613267565b155b156140cd5760405163a9fbf51f60e01b81526001600160a01b0384166004820152602401610a77565b81156141155783856001600160a01b0316826001600160a01b03167f8c5be1e5ebec7d5bd14f71427d1e84f3dd0314c0f7b2291e5b200ac8c7c3b92560405160405180910390a45b505b50505f90815260046020526040902080546001600160a01b0319166001600160a01b0392909216919091179055565b5f6001600160a01b03831615801590613a0e5750826001600160a01b0316846001600160a01b0316148061417f575061417f8484613267565b80613a0e5750505f908152600460205260409020546001600160a01b03908116911614919050565b6001600160e01b031981168114613524575f80fd5b5f602082840312156141cc575f80fd5b81356141d7816141a7565b9392505050565b5f5b838110156141f85781810151838201526020016141e0565b50505f910152565b5f81518084526142178160208601602086016141de565b601f01601f19169290920160200192915050565b602081525f6141d76020830184614200565b5f6020828403121561424d575f80fd5b5035919050565b6001600160a01b0381168114613524575f80fd5b5f8060408385031215614279575f80fd5b823561428481614254565b946020939093013593505050565b5f602082840312156142a2575f80fd5b81356141d781614254565b5f805f606084860312156142bf575f80fd5b83356142ca81614254565b925060208401356142da81614254565b929592945050506040919091013590565b634e487b7160e01b5f52604160045260245ffd5b5f6001600160401b0380841115614318576143186142eb565b604051601f8501601f19908116603f01168101908282118183101715614340576143406142eb565b81604052809350858152868686011115614358575f80fd5b858560208301375f602087830101525050509392505050565b5f82601f830112614380575f80fd5b6141d7838335602085016142ff565b5f805f80608085870312156143a2575f80fd5b84356001600160401b03808211156143b8575f80fd5b6143c488838901614371565b955060208701359150808211156143d9575f80fd5b6143e588838901614371565b945060408701359150808211156143fa575f80fd5b5061440787828801614371565b949793965093946060013593505050565b5f8060408385031215614429575f80fd5b823561443481614254565b915060208301358015158114614448575f80fd5b809150509250929050565b60c081525f61446560c0830189614200565b82810360208401526144778189614200565b9050828103604084015261448b8188614200565b606084019690965250506001600160a01b03929092166080830152151560a0909101529392505050565b60a081525f6144c760a0830188614200565b82810360208401526144d98188614200565b905082810360408401526144ed8187614200565b606084019590955250506001600160a01b03919091166080909101529392505050565b5f805f805f60a08688031215614524575f80fd5b8535945060208601356001600160401b0380821115614541575f80fd5b61454d89838a01614371565b95506040880135915080821115614562575f80fd5b61456e89838a01614371565b94506060880135915080821115614583575f80fd5b5061459088828901614371565b95989497509295608001359392505050565b5f602082840312156145b2575f80fd5b81356001600160401b038111156145c7575f80fd5b613a0e84828501614371565b5f805f805f60a086880312156145e7575f80fd5b85356145f281614254565b945060208601356001600160401b0380821115614541575f80fd5b5f805f8060808587031215614620575f80fd5b843561462b81614254565b9350602085013561463b81614254565b92506040850135915060608501356001600160401b0381111561465c575f80fd5b8501601f8101871361466c575f80fd5b61467b878235602084016142ff565b91505092959194509250565b5f8083601f840112614697575f80fd5b5081356001600160401b038111156146ad575f80fd5b6020830191508360208260051b85010111156146c7575f80fd5b9250929050565b5f805f805f805f8060a0898b0312156146e5575f80fd5b88356001600160401b03808211156146fb575f80fd5b6147078c838d01614687565b909a50985060208b013591508082111561471f575f80fd5b61472b8c838d01614687565b909850965060408b0135915080821115614743575f80fd5b61474f8c838d01614687565b909650945060608b0135915080821115614767575f80fd5b506147748b828c01614371565b925050608089013590509295985092959890939650565b5f806040838503121561479c575f80fd5b8235915060208301356001600160401b038111156147b8575f80fd5b6147c485828601614371565b9150509250929050565b5f80604083850312156147df575f80fd5b82356147ea81614254565b9150602083013561444881614254565b5f805f6040848603121561480c575f80fd5b83356001600160401b0380821115614822575f80fd5b61482e87838801614687565b90955093506020860135915080821115614846575f80fd5b5061485386828701614371565b9150509250925092565b600181811c9082168061487157607f821691505b60208210810361488f57634e487b7160e01b5f52602260045260245ffd5b50919050565b60208082526012908201527113585e081cdd5c1c1b1e481c995858da195960721b604082015260600190565b60208082526010908201526f14185d5cd8589b194e881c185d5cd95960821b604082015260600190565b634e487b7160e01b5f52601160045260245ffd5b80820180821115610968576109686148eb565b6020808252601c908201527f4576656e74206461746520746f6f2066617220696e2066757475726500000000604082015260600190565b81810381811115610968576109686148eb565b6020808252601a908201527f4576656e74206461746520746f6f2066617220696e2070617374000000000000604082015260600190565b602080825260139082015272115d995b9d081b985b59481c995c5d5a5c9959606a1b604082015260600190565b5f600182016149d1576149d16148eb565b5060010190565b601f82111561110257805f5260205f20601f840160051c810160208510156149fd5750805b601f840160051c820191505b81811015610e3e575f8155600101614a09565b81516001600160401b03811115614a3557614a356142eb565b614a4981614a43845461485d565b846149d8565b602080601f831160018114614a7c575f8415614a655750858301515b5f19600386901b1c1916600185901b178555612225565b5f85815260208120601f198616915b82811015614aaa57888601518255948401946001909101908401614a8b565b5085821015614ac757878501515f19600388901b60f8161c191681555b5050505050600190811b01905550565b634e487b7160e01b5f52603260045260245ffd5b602080825260149082015273151bdad95b88191bd95cc81b9bdd08195e1a5cdd60621b604082015260600190565b5f60208284031215614b29575f80fd5b81516141d781614254565b604081525f614b466040830185614200565b828103602084015261364f8185614200565b5f60208284031215614b68575f80fd5b5051919050565b5f808335601e19843603018112614b84575f80fd5b8301803591506001600160401b03821115614b9d575f80fd5b6020019150368190038213156146c7575f80fd5b604080825281018390525f8460608301825b86811015614bf3578235614bd681614254565b6001600160a01b0316825260209283019290910190600101614bc3565b506020915083810360208501528085518083526020830191506020870192505f5b81811015614c3057835183529284019291840191600101614c14565b509098975050505050505050565b5f8251614c4f8184602087016141de565b7f205b436f6e74656e7420666c6167676564206279206d6f64657261746f72735d920191825250602001919050565b7f7b2274726169745f74797065223a224f776e6572222c2276616c7565223a220081525f8351614cb581601f8501602088016141de565b61227d60f01b601f9184019182018190527f2c7b2274726169745f74797065223a2243726561746564204279222c2276616c6021830152643ab2911d1160d91b60418301528451614d0d8160468501602089016141de565b6046920191820152604801949350505050565b5f8154614d2c8161485d565b60018281168015614d445760018114614d5957614d85565b60ff1984168752821515830287019450614d85565b855f526020805f205f5b85811015614d7c5781548a820152908401908201614d63565b50505082870194505b5050505092915050565b5f8351614da08184602088016141de565b7f2c7b2274726169745f74797065223a224576656e74222c2276616c7565223a22908301908152614dd46020820185614d20565b61227d60f01b815260020195945050505050565b5f8351614df98184602088016141de565b80830190507f2c7b2274726169745f74797065223a224576656e742044617465222c2264697381527f706c61795f74797065223a2264617465222c2276616c7565223a00000000000060208201528351614e5a81603a8401602088016141de565b607d60f81b603a9290910191820152603b01949350505050565b5f8251614e858184602087016141de565b7f2c7b2274726169745f74797065223a22437573746f6d2050686f746f222c22769201918252506c616c7565223a2274727565227d60981b6020820152602d01919050565b5f8251614edb8184602087016141de565b7f2c7b2274726169745f74797065223a22537461747573222c2276616c7565223a9201918252506922466c6167676564227d60b01b6020820152602a01919050565b7f7b226e616d65223a22537570657246616e74617374696320230000000000000081525f8251614f548160198501602087016141de565b9190910160190192915050565b5f8351614f728184602088016141de565b6201016960ed1b90830190815261364f6003820185614d20565b5f8451614f9d8184602089016141de565b701116113232b9b1b934b83a34b7b7111d1160791b9083019081528451614fcb8160118401602089016141de565b6a11161134b6b0b3b2911d1160a91b601192909101918201528351614ff781601c8401602088016141de565b601160f91b601c9290910191820152601d0195945050505050565b5f83516150238184602088016141de565b71161130b734b6b0ba34b7b72fbab936111d1160711b90830190815261504c6012820185614d20565b601160f91b815260010195945050505050565b5f83516150708184602088016141de565b6e2c2261747472696275746573223a5b60881b908301908152835161509c81600f8401602088016141de565b615d7d60f01b600f9290910191820152601101949350505050565b7f646174613a6170706c69636174696f6e2f6a736f6e3b757466382c000000000081525f82516150ee81601b8501602087016141de565b91909101601b0192915050565b6001600160a01b03858116825284166020820152604081018390526080606082018190525f9061512d90830184614200565b9695505050505050565b5f60208284031215615147575f80fd5b81516141d7816141a7565b8082028115828204841417610968576109686148eb565b5f81615177576151776148eb565b505f190190565b634e487b7160e01b5f52603160045260245ffdfe537570657246616e746173746963204576656e74204e4654202d204120736f756c626f756e64206d656d6f727920636170747572656420696e207265616c206c69666521a2646970667358221220440742280810afee337ec12a923960cb7655438dc7ae25e341980956096a98d264736f6c63430008180033",
			"opcodes": "PUSH1 0x80 PUSH1 0x40 MSTORE PUSH1 0xC DUP1 SLOAD PUSH1 0xFF NOT AND SWAP1 SSTORE PUSH1 0x1 PUSH1 0xD SSTORE PUSH0 PUSH1 0x10 SSTORE CALLVALUE DUP1 ISZERO PUSH3 0x23 JUMPI PUSH0 DUP1 REVERT JUMPDEST POP PUSH1 0x40 MLOAD PUSH3 0x5778 CODESIZE SUB DUP1 PUSH3 0x5778 DUP4 CODECOPY DUP2 ADD PUSH1 0x40 DUP2 SWAP1 MSTORE PUSH3 0x46 SWAP2 PUSH3 0x37D JUMP JUMPDEST CALLER PUSH1 0x40 MLOAD DUP1 PUSH1 0x40 ADD PUSH1 0x40 MSTORE DUP1 PUSH1 0x1F DUP2 MSTORE PUSH1 0x20 ADD PUSH32 0x537570657246616E746173746963204576656E7420436F6C6C656374696F6E00 DUP2 MSTORE POP PUSH1 0x40 MLOAD DUP1 PUSH1 0x40 ADD PUSH1 0x40 MSTORE DUP1 PUSH1 0x4 DUP2 MSTORE PUSH1 0x20 ADD PUSH4 0x53464543 PUSH1 0xE0 SHL DUP2 MSTORE POP DUP2 PUSH0 SWAP1 DUP2 PUSH3 0xAA SWAP2 SWAP1 PUSH3 0x492 JUMP JUMPDEST POP PUSH1 0x1 PUSH3 0xB9 DUP3 DUP3 PUSH3 0x492 JUMP JUMPDEST POP POP POP PUSH1 0x1 PUSH1 0x1 PUSH1 0xA0 SHL SUB DUP2 AND PUSH3 0xEB JUMPI PUSH1 0x40 MLOAD PUSH4 0x1E4FBDF7 PUSH1 0xE0 SHL DUP2 MSTORE PUSH0 PUSH1 0x4 DUP3 ADD MSTORE PUSH1 0x24 ADD JUMPDEST PUSH1 0x40 MLOAD DUP1 SWAP2 SUB SWAP1 REVERT JUMPDEST PUSH3 0xF6 DUP2 PUSH3 0x26B JUMP JUMPDEST POP PUSH1 0x1 PUSH1 0xB SSTORE DUP3 MLOAD PUSH3 0x14C JUMPI PUSH1 0x40 MLOAD PUSH3 0x461BCD PUSH1 0xE5 SHL DUP2 MSTORE PUSH1 0x20 PUSH1 0x4 DUP3 ADD MSTORE PUSH1 0x1E PUSH1 0x24 DUP3 ADD MSTORE PUSH32 0x4261736520696D616765205552492063616E6E6F7420626520656D7074790000 PUSH1 0x44 DUP3 ADD MSTORE PUSH1 0x64 ADD PUSH3 0xE2 JUMP JUMPDEST PUSH0 DUP2 MLOAD GT PUSH3 0x19E JUMPI PUSH1 0x40 MLOAD PUSH3 0x461BCD PUSH1 0xE5 SHL DUP2 MSTORE PUSH1 0x20 PUSH1 0x4 DUP3 ADD MSTORE PUSH1 0x1E PUSH1 0x24 DUP3 ADD MSTORE PUSH32 0x4E53465720696D616765205552492063616E6E6F7420626520656D7074790000 PUSH1 0x44 DUP3 ADD MSTORE PUSH1 0x64 ADD PUSH3 0xE2 JUMP JUMPDEST PUSH1 0xE PUSH3 0x1AC DUP5 DUP3 PUSH3 0x492 JUMP JUMPDEST POP PUSH1 0xF PUSH3 0x1BB DUP4 DUP3 PUSH3 0x492 JUMP JUMPDEST POP PUSH1 0x11 PUSH3 0x1CA DUP3 DUP3 PUSH3 0x492 JUMP JUMPDEST POP CALLER PUSH0 DUP2 DUP2 MSTORE PUSH1 0x15 PUSH1 0x20 SWAP1 DUP2 MSTORE PUSH1 0x40 DUP1 DUP4 KECCAK256 DUP1 SLOAD PUSH1 0x1 PUSH1 0xFF NOT SWAP2 DUP3 AND DUP2 OR SWAP1 SWAP3 SSTORE PUSH1 0x14 DUP5 MSTORE SWAP4 DUP3 SWAP1 KECCAK256 DUP1 SLOAD SWAP1 SWAP5 AND DUP2 OR SWAP1 SWAP4 SSTORE MLOAD SWAP2 DUP3 MSTORE PUSH32 0xF9627F2BCDE79EF556AFCE5415F83EF6707259E165EF7A36168320EFDBA2498 SWAP2 ADD PUSH1 0x40 MLOAD DUP1 SWAP2 SUB SWAP1 LOG2 PUSH1 0x40 MLOAD PUSH1 0x1 DUP2 MSTORE CALLER SWAP1 PUSH32 0x26E4A6A023A3571E6B5896C2194796E79D4D8F7246E495957612F0C3A641E734 SWAP1 PUSH1 0x20 ADD PUSH1 0x40 MLOAD DUP1 SWAP2 SUB SWAP1 LOG2 POP POP POP PUSH3 0x55E JUMP JUMPDEST PUSH1 0xA DUP1 SLOAD PUSH1 0x1 PUSH1 0x1 PUSH1 0xA0 SHL SUB DUP4 DUP2 AND PUSH1 0x1 PUSH1 0x1 PUSH1 0xA0 SHL SUB NOT DUP4 AND DUP2 OR SWAP1 SWAP4 SSTORE PUSH1 0x40 MLOAD SWAP2 AND SWAP2 SWAP1 DUP3 SWAP1 PUSH32 0x8BE0079C531659141344CD1FD0A4F28419497F9722A3DAAFE3B4186F6B6457E0 SWAP1 PUSH0 SWAP1 LOG3 POP POP JUMP JUMPDEST PUSH4 0x4E487B71 PUSH1 0xE0 SHL PUSH0 MSTORE PUSH1 0x41 PUSH1 0x4 MSTORE PUSH1 0x24 PUSH0 REVERT JUMPDEST PUSH0 DUP3 PUSH1 0x1F DUP4 ADD SLT PUSH3 0x2E0 JUMPI PUSH0 DUP1 REVERT JUMPDEST DUP2 MLOAD PUSH1 0x1 PUSH1 0x1 PUSH1 0x40 SHL SUB DUP1 DUP3 GT ISZERO PUSH3 0x2FD JUMPI PUSH3 0x2FD PUSH3 0x2BC JUMP JUMPDEST PUSH1 0x40 MLOAD PUSH1 0x1F DUP4 ADD PUSH1 0x1F NOT SWAP1 DUP2 AND PUSH1 0x3F ADD AND DUP2 ADD SWAP1 DUP3 DUP3 GT DUP2 DUP4 LT OR ISZERO PUSH3 0x328 JUMPI PUSH3 0x328 PUSH3 0x2BC JUMP JUMPDEST DUP2 PUSH1 0x40 MSTORE DUP4 DUP2 MSTORE PUSH1 0x20 SWAP3 POP DUP7 PUSH1 0x20 DUP6 DUP9 ADD ADD GT ISZERO PUSH3 0x345 JUMPI PUSH0 DUP1 REVERT JUMPDEST PUSH0 SWAP2 POP JUMPDEST DUP4 DUP3 LT ISZERO PUSH3 0x368 JUMPI DUP6 DUP3 ADD DUP4 ADD MLOAD DUP2 DUP4 ADD DUP5 ADD MSTORE SWAP1 DUP3 ADD SWAP1 PUSH3 0x349 JUMP JUMPDEST PUSH0 PUSH1 0x20 DUP6 DUP4 ADD ADD MSTORE DUP1 SWAP5 POP POP POP POP POP SWAP3 SWAP2 POP POP JUMP JUMPDEST PUSH0 DUP1 PUSH0 PUSH1 0x60 DUP5 DUP7 SUB SLT ISZERO PUSH3 0x390 JUMPI PUSH0 DUP1 REVERT JUMPDEST DUP4 MLOAD PUSH1 0x1 PUSH1 0x1 PUSH1 0x40 SHL SUB DUP1 DUP3 GT ISZERO PUSH3 0x3A7 JUMPI PUSH0 DUP1 REVERT JUMPDEST PUSH3 0x3B5 DUP8 DUP4 DUP9 ADD PUSH3 0x2D0 JUMP JUMPDEST SWAP5 POP PUSH1 0x20 DUP7 ADD MLOAD SWAP2 POP DUP1 DUP3 GT ISZERO PUSH3 0x3CB JUMPI PUSH0 DUP1 REVERT JUMPDEST PUSH3 0x3D9 DUP8 DUP4 DUP9 ADD PUSH3 0x2D0 JUMP JUMPDEST SWAP4 POP PUSH1 0x40 DUP7 ADD MLOAD SWAP2 POP DUP1 DUP3 GT ISZERO PUSH3 0x3EF JUMPI PUSH0 DUP1 REVERT JUMPDEST POP PUSH3 0x3FE DUP7 DUP3 DUP8 ADD PUSH3 0x2D0 JUMP JUMPDEST SWAP2 POP POP SWAP3 POP SWAP3 POP SWAP3 JUMP JUMPDEST PUSH1 0x1 DUP2 DUP2 SHR SWAP1 DUP3 AND DUP1 PUSH3 0x41D JUMPI PUSH1 0x7F DUP3 AND SWAP2 POP JUMPDEST PUSH1 0x20 DUP3 LT DUP2 SUB PUSH3 0x43C JUMPI PUSH4 0x4E487B71 PUSH1 0xE0 SHL PUSH0 MSTORE PUSH1 0x22 PUSH1 0x4 MSTORE PUSH1 0x24 PUSH0 REVERT JUMPDEST POP SWAP2 SWAP1 POP JUMP JUMPDEST PUSH1 0x1F DUP3 GT ISZERO PUSH3 0x48D JUMPI DUP1 PUSH0 MSTORE PUSH1 0x20 PUSH0 KECCAK256 PUSH1 0x1F DUP5 ADD PUSH1 0x5 SHR DUP2 ADD PUSH1 0x20 DUP6 LT ISZERO PUSH3 0x469 JUMPI POP DUP1 JUMPDEST PUSH1 0x1F DUP5 ADD PUSH1 0x5 SHR DUP3 ADD SWAP2 POP JUMPDEST DUP2 DUP2 LT ISZERO PUSH3 0x48A JUMPI PUSH0 DUP2 SSTORE PUSH1 0x1 ADD PUSH3 0x475 JUMP JUMPDEST POP POP JUMPDEST POP POP POP JUMP JUMPDEST DUP2 MLOAD PUSH1 0x1 PUSH1 0x1 PUSH1 0x40 SHL SUB DUP2 GT ISZERO PUSH3 0x4AE JUMPI PUSH3 0x4AE PUSH3 0x2BC JUMP JUMPDEST PUSH3 0x4C6 DUP2 PUSH3 0x4BF DUP5 SLOAD PUSH3 0x408 JUMP JUMPDEST DUP5 PUSH3 0x442 JUMP JUMPDEST PUSH1 0x20 DUP1 PUSH1 0x1F DUP4 GT PUSH1 0x1 DUP2 EQ PUSH3 0x4FC JUMPI PUSH0 DUP5 ISZERO PUSH3 0x4E4 JUMPI POP DUP6 DUP4 ADD MLOAD JUMPDEST PUSH0 NOT PUSH1 0x3 DUP7 SWAP1 SHL SHR NOT AND PUSH1 0x1 DUP6 SWAP1 SHL OR DUP6 SSTORE PUSH3 0x556 JUMP JUMPDEST PUSH0 DUP6 DUP2 MSTORE PUSH1 0x20 DUP2 KECCAK256 PUSH1 0x1F NOT DUP7 AND SWAP2 JUMPDEST DUP3 DUP2 LT ISZERO PUSH3 0x52C JUMPI DUP9 DUP7 ADD MLOAD DUP3 SSTORE SWAP5 DUP5 ADD SWAP5 PUSH1 0x1 SWAP1 SWAP2 ADD SWAP1 DUP5 ADD PUSH3 0x50B JUMP JUMPDEST POP DUP6 DUP3 LT ISZERO PUSH3 0x54A JUMPI DUP8 DUP6 ADD MLOAD PUSH0 NOT PUSH1 0x3 DUP9 SWAP1 SHL PUSH1 0xF8 AND SHR NOT AND DUP2 SSTORE JUMPDEST POP POP PUSH1 0x1 DUP5 PUSH1 0x1 SHL ADD DUP6 SSTORE JUMPDEST POP POP POP POP POP POP JUMP JUMPDEST PUSH2 0x520C DUP1 PUSH3 0x56C PUSH0 CODECOPY PUSH0 RETURN INVALID PUSH1 0x80 PUSH1 0x40 MSTORE PUSH1 0x4 CALLDATASIZE LT PUSH2 0x327 JUMPI PUSH0 CALLDATALOAD PUSH1 0xE0 SHR DUP1 PUSH4 0x715018A6 GT PUSH2 0x1A3 JUMPI DUP1 PUSH4 0xB88D4FDE GT PUSH2 0xF2 JUMPI DUP1 PUSH4 0xDF4E53E2 GT PUSH2 0x92 JUMPI DUP1 PUSH4 0xEB0DC34B GT PUSH2 0x6D JUMPI DUP1 PUSH4 0xEB0DC34B EQ PUSH2 0x8ED JUMPI DUP1 PUSH4 0xEBE8487C EQ PUSH2 0x901 JUMPI DUP1 PUSH4 0xF2FDE38B EQ PUSH2 0x920 JUMPI DUP1 PUSH4 0xF4A0A528 EQ PUSH2 0x93F JUMPI PUSH0 DUP1 REVERT JUMPDEST DUP1 PUSH4 0xDF4E53E2 EQ PUSH2 0x8AF JUMPI DUP1 PUSH4 0xE086E5EC EQ PUSH2 0x4E0 JUMPI DUP1 PUSH4 0xE985E9C5 EQ PUSH2 0x8CE JUMPI PUSH0 DUP1 REVERT JUMPDEST DUP1 PUSH4 0xC87B56DD GT PUSH2 0xCD JUMPI DUP1 PUSH4 0xC87B56DD EQ PUSH2 0x82F JUMPI DUP1 PUSH4 0xCAB27BAA EQ PUSH2 0x84E JUMPI DUP1 PUSH4 0xCFDBF254 EQ PUSH2 0x87C JUMPI DUP1 PUSH4 0xD12717BD EQ PUSH2 0x890 JUMPI PUSH0 DUP1 REVERT JUMPDEST DUP1 PUSH4 0xB88D4FDE EQ PUSH2 0x7D2 JUMPI DUP1 PUSH4 0xBEE79DC9 EQ PUSH2 0x7F1 JUMPI DUP1 PUSH4 0xC02542F5 EQ PUSH2 0x810 JUMPI PUSH0 DUP1 REVERT JUMPDEST DUP1 PUSH4 0x8D0CA2AC GT PUSH2 0x15D JUMPI DUP1 PUSH4 0x99579FF3 GT PUSH2 0x138 JUMPI DUP1 PUSH4 0x99579FF3 EQ PUSH2 0x757 JUMPI DUP1 PUSH4 0x9D99229B EQ PUSH2 0x76B JUMPI DUP1 PUSH4 0xA22CB465 EQ PUSH2 0x78A JUMPI DUP1 PUSH4 0xB70F402D EQ PUSH2 0x7A4 JUMPI PUSH0 DUP1 REVERT JUMPDEST DUP1 PUSH4 0x8D0CA2AC EQ PUSH2 0x707 JUMPI DUP1 PUSH4 0x8DA5CB5B EQ PUSH2 0x726 JUMPI DUP1 PUSH4 0x95D89B41 EQ PUSH2 0x743 JUMPI PUSH0 DUP1 REVERT JUMPDEST DUP1 PUSH4 0x715018A6 EQ PUSH2 0x663 JUMPI DUP1 PUSH4 0x819D4CC6 EQ PUSH2 0x677 JUMPI DUP1 PUSH4 0x8456CB59 EQ PUSH2 0x696 JUMPI DUP1 PUSH4 0x847C8299 EQ PUSH2 0x6AA JUMPI DUP1 PUSH4 0x8980F11F EQ PUSH2 0x6C9 JUMPI DUP1 PUSH4 0x8CD9C0D4 EQ PUSH2 0x6E8 JUMPI PUSH0 DUP1 REVERT JUMPDEST DUP1 PUSH4 0x3AC2A9D9 GT PUSH2 0x279 JUMPI DUP1 PUSH4 0x60316801 GT PUSH2 0x219 JUMPI DUP1 PUSH4 0x6914DB60 GT PUSH2 0x1F4 JUMPI DUP1 PUSH4 0x6914DB60 EQ PUSH2 0x5E1 JUMPI DUP1 PUSH4 0x6AC437B0 EQ PUSH2 0x611 JUMPI DUP1 PUSH4 0x6D8C6EC2 EQ PUSH2 0x625 JUMPI DUP1 PUSH4 0x70A08231 EQ PUSH2 0x644 JUMPI PUSH0 DUP1 REVERT JUMPDEST DUP1 PUSH4 0x60316801 EQ PUSH2 0x57C JUMPI DUP1 PUSH4 0x6352211E EQ PUSH2 0x5AD JUMPI DUP1 PUSH4 0x6817C76C EQ PUSH2 0x5CC JUMPI PUSH0 DUP1 REVERT JUMPDEST DUP1 PUSH4 0x3F4BA83A GT PUSH2 0x254 JUMPI DUP1 PUSH4 0x3F4BA83A EQ PUSH2 0x513 JUMPI DUP1 PUSH4 0x42842E0E EQ PUSH2 0x527 JUMPI DUP1 PUSH4 0x4F6CCCE7 EQ PUSH2 0x546 JUMPI DUP1 PUSH4 0x5C975ABB EQ PUSH2 0x565 JUMPI PUSH0 DUP1 REVERT JUMPDEST DUP1 PUSH4 0x3AC2A9D9 EQ PUSH2 0x4C9 JUMPI DUP1 PUSH4 0x3CCFD60B EQ PUSH2 0x4E0 JUMPI DUP1 PUSH4 0x3EE2B01D EQ PUSH2 0x4F4 JUMPI PUSH0 DUP1 REVERT JUMPDEST DUP1 PUSH4 0x18160DDD GT PUSH2 0x2E4 JUMPI DUP1 PUSH4 0x23B872DD GT PUSH2 0x2BF JUMPI DUP1 PUSH4 0x23B872DD EQ PUSH2 0x463 JUMPI DUP1 PUSH4 0x2F745C59 EQ PUSH2 0x482 JUMPI DUP1 PUSH4 0x31B6475C EQ PUSH2 0x4A1 JUMPI DUP1 PUSH4 0x32CB6B0C EQ PUSH2 0x4B4 JUMPI PUSH0 DUP1 REVERT JUMPDEST DUP1 PUSH4 0x18160DDD EQ PUSH2 0x41A JUMPI DUP1 PUSH4 0x1F8CBE5C EQ PUSH2 0x438 JUMPI DUP1 PUSH4 0x21771BD1 EQ PUSH2 0x44C JUMPI PUSH0 DUP1 REVERT JUMPDEST DUP1 PUSH4 0x1FFC9A7 EQ PUSH2 0x32B JUMPI DUP1 PUSH4 0x5CF76FC EQ PUSH2 0x35F JUMPI DUP1 PUSH4 0x6FDDE03 EQ PUSH2 0x380 JUMPI DUP1 PUSH4 0x81812FC EQ PUSH2 0x394 JUMPI DUP1 PUSH4 0x95EA7B3 EQ PUSH2 0x3CB JUMPI DUP1 PUSH4 0x14D0F1BA EQ PUSH2 0x3EC JUMPI JUMPDEST PUSH0 DUP1 REVERT JUMPDEST CALLVALUE DUP1 ISZERO PUSH2 0x336 JUMPI PUSH0 DUP1 REVERT JUMPDEST POP PUSH2 0x34A PUSH2 0x345 CALLDATASIZE PUSH1 0x4 PUSH2 0x41BC JUMP JUMPDEST PUSH2 0x95E JUMP JUMPDEST PUSH1 0x40 MLOAD SWAP1 ISZERO ISZERO DUP2 MSTORE PUSH1 0x20 ADD JUMPDEST PUSH1 0x40 MLOAD DUP1 SWAP2 SUB SWAP1 RETURN JUMPDEST CALLVALUE DUP1 ISZERO PUSH2 0x36A JUMPI PUSH0 DUP1 REVERT JUMPDEST POP PUSH2 0x373 PUSH2 0x96E JUMP JUMPDEST PUSH1 0x40 MLOAD PUSH2 0x356 SWAP2 SWAP1 PUSH2 0x422B JUMP JUMPDEST CALLVALUE DUP1 ISZERO PUSH2 0x38B JUMPI PUSH0 DUP1 REVERT JUMPDEST POP PUSH2 0x373 PUSH2 0x9FE JUMP JUMPDEST CALLVALUE DUP1 ISZERO PUSH2 0x39F JUMPI PUSH0 DUP1 REVERT JUMPDEST POP PUSH2 0x3B3 PUSH2 0x3AE CALLDATASIZE PUSH1 0x4 PUSH2 0x423D JUMP JUMPDEST PUSH2 0xA0C JUMP JUMPDEST PUSH1 0x40 MLOAD PUSH1 0x1 PUSH1 0x1 PUSH1 0xA0 SHL SUB SWAP1 SWAP2 AND DUP2 MSTORE PUSH1 0x20 ADD PUSH2 0x356 JUMP JUMPDEST CALLVALUE DUP1 ISZERO PUSH2 0x3D6 JUMPI PUSH0 DUP1 REVERT JUMPDEST POP PUSH2 0x3EA PUSH2 0x3E5 CALLDATASIZE PUSH1 0x4 PUSH2 0x4268 JUMP JUMPDEST PUSH2 0xA33 JUMP JUMPDEST STOP JUMPDEST CALLVALUE DUP1 ISZERO PUSH2 0x3F7 JUMPI PUSH0 DUP1 REVERT JUMPDEST POP PUSH2 0x34A PUSH2 0x406 CALLDATASIZE PUSH1 0x4 PUSH2 0x4292 JUMP JUMPDEST PUSH1 0x14 PUSH1 0x20 MSTORE PUSH0 SWAP1 DUP2 MSTORE PUSH1 0x40 SWAP1 KECCAK256 SLOAD PUSH1 0xFF AND DUP2 JUMP JUMPDEST CALLVALUE DUP1 ISZERO PUSH2 0x425 JUMPI PUSH0 DUP1 REVERT JUMPDEST POP PUSH1 0x8 SLOAD JUMPDEST PUSH1 0x40 MLOAD SWAP1 DUP2 MSTORE PUSH1 0x20 ADD PUSH2 0x356 JUMP JUMPDEST CALLVALUE DUP1 ISZERO PUSH2 0x443 JUMPI PUSH0 DUP1 REVERT JUMPDEST POP PUSH2 0x373 PUSH2 0xA80 JUMP JUMPDEST CALLVALUE DUP1 ISZERO PUSH2 0x457 JUMPI PUSH0 DUP1 REVERT JUMPDEST POP PUSH2 0x42A PUSH4 0x1E13380 DUP2 JUMP JUMPDEST CALLVALUE DUP1 ISZERO PUSH2 0x46E JUMPI PUSH0 DUP1 REVERT JUMPDEST POP PUSH2 0x3EA PUSH2 0x47D CALLDATASIZE PUSH1 0x4 PUSH2 0x42AD JUMP JUMPDEST PUSH2 0xA8F JUMP JUMPDEST CALLVALUE DUP1 ISZERO PUSH2 0x48D JUMPI PUSH0 DUP1 REVERT JUMPDEST POP PUSH2 0x42A PUSH2 0x49C CALLDATASIZE PUSH1 0x4 PUSH2 0x4268 JUMP JUMPDEST PUSH2 0xB18 JUMP JUMPDEST PUSH2 0x3EA PUSH2 0x4AF CALLDATASIZE PUSH1 0x4 PUSH2 0x438F JUMP JUMPDEST PUSH2 0xB7B JUMP JUMPDEST CALLVALUE DUP1 ISZERO PUSH2 0x4BF JUMPI PUSH0 DUP1 REVERT JUMPDEST POP PUSH2 0x42A PUSH2 0x2710 DUP2 JUMP JUMPDEST CALLVALUE DUP1 ISZERO PUSH2 0x4D4 JUMPI PUSH0 DUP1 REVERT JUMPDEST POP PUSH2 0x42A PUSH4 0x9660180 DUP2 JUMP JUMPDEST CALLVALUE DUP1 ISZERO PUSH2 0x4EB JUMPI PUSH0 DUP1 REVERT JUMPDEST POP PUSH2 0x3EA PUSH2 0xE45 JUMP JUMPDEST CALLVALUE DUP1 ISZERO PUSH2 0x4FF JUMPI PUSH0 DUP1 REVERT JUMPDEST POP PUSH2 0x3EA PUSH2 0x50E CALLDATASIZE PUSH1 0x4 PUSH2 0x4418 JUMP JUMPDEST PUSH2 0xF9A JUMP JUMPDEST CALLVALUE DUP1 ISZERO PUSH2 0x51E JUMPI PUSH0 DUP1 REVERT JUMPDEST POP PUSH2 0x3EA PUSH2 0x1057 JUMP JUMPDEST CALLVALUE DUP1 ISZERO PUSH2 0x532 JUMPI PUSH0 DUP1 REVERT JUMPDEST POP PUSH2 0x3EA PUSH2 0x541 CALLDATASIZE PUSH1 0x4 PUSH2 0x42AD JUMP JUMPDEST PUSH2 0x10E8 JUMP JUMPDEST CALLVALUE DUP1 ISZERO PUSH2 0x551 JUMPI PUSH0 DUP1 REVERT JUMPDEST POP PUSH2 0x42A PUSH2 0x560 CALLDATASIZE PUSH1 0x4 PUSH2 0x423D JUMP JUMPDEST PUSH2 0x1107 JUMP JUMPDEST CALLVALUE DUP1 ISZERO PUSH2 0x570 JUMPI PUSH0 DUP1 REVERT JUMPDEST POP PUSH1 0xC SLOAD PUSH1 0xFF AND PUSH2 0x34A JUMP JUMPDEST CALLVALUE DUP1 ISZERO PUSH2 0x587 JUMPI PUSH0 DUP1 REVERT JUMPDEST POP PUSH2 0x59B PUSH2 0x596 CALLDATASIZE PUSH1 0x4 PUSH2 0x423D JUMP JUMPDEST PUSH2 0x115C JUMP JUMPDEST PUSH1 0x40 MLOAD PUSH2 0x356 SWAP7 SWAP6 SWAP5 SWAP4 SWAP3 SWAP2 SWAP1 PUSH2 0x4453 JUMP JUMPDEST CALLVALUE DUP1 ISZERO PUSH2 0x5B8 JUMPI PUSH0 DUP1 REVERT JUMPDEST POP PUSH2 0x3B3 PUSH2 0x5C7 CALLDATASIZE PUSH1 0x4 PUSH2 0x423D JUMP JUMPDEST PUSH2 0x1382 JUMP JUMPDEST CALLVALUE DUP1 ISZERO PUSH2 0x5D7 JUMPI PUSH0 DUP1 REVERT JUMPDEST POP PUSH2 0x42A PUSH1 0x10 SLOAD DUP2 JUMP JUMPDEST CALLVALUE DUP1 ISZERO PUSH2 0x5EC JUMPI PUSH0 DUP1 REVERT JUMPDEST POP PUSH2 0x600 PUSH2 0x5FB CALLDATASIZE PUSH1 0x4 PUSH2 0x423D JUMP JUMPDEST PUSH2 0x138C JUMP JUMPDEST PUSH1 0x40 MLOAD PUSH2 0x356 SWAP6 SWAP5 SWAP4 SWAP3 SWAP2 SWAP1 PUSH2 0x44B5 JUMP JUMPDEST CALLVALUE DUP1 ISZERO PUSH2 0x61C JUMPI PUSH0 DUP1 REVERT JUMPDEST POP PUSH2 0x34A PUSH2 0x1555 JUMP JUMPDEST CALLVALUE DUP1 ISZERO PUSH2 0x630 JUMPI PUSH0 DUP1 REVERT JUMPDEST POP PUSH2 0x3EA PUSH2 0x63F CALLDATASIZE PUSH1 0x4 PUSH2 0x4510 JUMP JUMPDEST PUSH2 0x1578 JUMP JUMPDEST CALLVALUE DUP1 ISZERO PUSH2 0x64F JUMPI PUSH0 DUP1 REVERT JUMPDEST POP PUSH2 0x42A PUSH2 0x65E CALLDATASIZE PUSH1 0x4 PUSH2 0x4292 JUMP JUMPDEST PUSH2 0x16F7 JUMP JUMPDEST CALLVALUE DUP1 ISZERO PUSH2 0x66E JUMPI PUSH0 DUP1 REVERT JUMPDEST POP PUSH2 0x3EA PUSH2 0x173C JUMP JUMPDEST CALLVALUE DUP1 ISZERO PUSH2 0x682 JUMPI PUSH0 DUP1 REVERT JUMPDEST POP PUSH2 0x3EA PUSH2 0x691 CALLDATASIZE PUSH1 0x4 PUSH2 0x4268 JUMP JUMPDEST PUSH2 0x174D JUMP JUMPDEST CALLVALUE DUP1 ISZERO PUSH2 0x6A1 JUMPI PUSH0 DUP1 REVERT JUMPDEST POP PUSH2 0x3EA PUSH2 0x19B1 JUMP JUMPDEST CALLVALUE DUP1 ISZERO PUSH2 0x6B5 JUMPI PUSH0 DUP1 REVERT JUMPDEST POP PUSH2 0x3EA PUSH2 0x6C4 CALLDATASIZE PUSH1 0x4 PUSH2 0x45A2 JUMP JUMPDEST PUSH2 0x1A19 JUMP JUMPDEST CALLVALUE DUP1 ISZERO PUSH2 0x6D4 JUMPI PUSH0 DUP1 REVERT JUMPDEST POP PUSH2 0x3EA PUSH2 0x6E3 CALLDATASIZE PUSH1 0x4 PUSH2 0x4268 JUMP JUMPDEST PUSH2 0x1AFA JUMP JUMPDEST CALLVALUE DUP1 ISZERO PUSH2 0x6F3 JUMPI PUSH0 DUP1 REVERT JUMPDEST POP PUSH2 0x3EA PUSH2 0x702 CALLDATASIZE PUSH1 0x4 PUSH2 0x423D JUMP JUMPDEST PUSH2 0x1D4A JUMP JUMPDEST CALLVALUE DUP1 ISZERO PUSH2 0x712 JUMPI PUSH0 DUP1 REVERT JUMPDEST POP PUSH2 0x3EA PUSH2 0x721 CALLDATASIZE PUSH1 0x4 PUSH2 0x45A2 JUMP JUMPDEST PUSH2 0x1E0A JUMP JUMPDEST CALLVALUE DUP1 ISZERO PUSH2 0x731 JUMPI PUSH0 DUP1 REVERT JUMPDEST POP PUSH1 0xA SLOAD PUSH1 0x1 PUSH1 0x1 PUSH1 0xA0 SHL SUB AND PUSH2 0x3B3 JUMP JUMPDEST CALLVALUE DUP1 ISZERO PUSH2 0x74E JUMPI PUSH0 DUP1 REVERT JUMPDEST POP PUSH2 0x373 PUSH2 0x1F2F JUMP JUMPDEST CALLVALUE DUP1 ISZERO PUSH2 0x762 JUMPI PUSH0 DUP1 REVERT JUMPDEST POP PUSH2 0x42A PUSH1 0x32 DUP2 JUMP JUMPDEST CALLVALUE DUP1 ISZERO PUSH2 0x776 JUMPI PUSH0 DUP1 REVERT JUMPDEST POP PUSH2 0x3EA PUSH2 0x785 CALLDATASIZE PUSH1 0x4 PUSH2 0x45D3 JUMP JUMPDEST PUSH2 0x1F3E JUMP JUMPDEST CALLVALUE DUP1 ISZERO PUSH2 0x795 JUMPI PUSH0 DUP1 REVERT JUMPDEST POP PUSH2 0x3EA PUSH2 0x3E5 CALLDATASIZE PUSH1 0x4 PUSH2 0x4418 JUMP JUMPDEST CALLVALUE DUP1 ISZERO PUSH2 0x7AF JUMPI PUSH0 DUP1 REVERT JUMPDEST POP PUSH2 0x34A PUSH2 0x7BE CALLDATASIZE PUSH1 0x4 PUSH2 0x423D JUMP JUMPDEST PUSH1 0x13 PUSH1 0x20 MSTORE PUSH0 SWAP1 DUP2 MSTORE PUSH1 0x40 SWAP1 KECCAK256 SLOAD PUSH1 0xFF AND DUP2 JUMP JUMPDEST CALLVALUE DUP1 ISZERO PUSH2 0x7DD JUMPI PUSH0 DUP1 REVERT JUMPDEST POP PUSH2 0x3EA PUSH2 0x7EC CALLDATASIZE PUSH1 0x4 PUSH2 0x460D JUMP JUMPDEST PUSH2 0x222D JUMP JUMPDEST CALLVALUE DUP1 ISZERO PUSH2 0x7FC JUMPI PUSH0 DUP1 REVERT JUMPDEST POP PUSH2 0x3EA PUSH2 0x80B CALLDATASIZE PUSH1 0x4 PUSH2 0x45A2 JUMP JUMPDEST PUSH2 0x2245 JUMP JUMPDEST CALLVALUE DUP1 ISZERO PUSH2 0x81B JUMPI PUSH0 DUP1 REVERT JUMPDEST POP PUSH2 0x3EA PUSH2 0x82A CALLDATASIZE PUSH1 0x4 PUSH2 0x46CE JUMP JUMPDEST PUSH2 0x236A JUMP JUMPDEST CALLVALUE DUP1 ISZERO PUSH2 0x83A JUMPI PUSH0 DUP1 REVERT JUMPDEST POP PUSH2 0x373 PUSH2 0x849 CALLDATASIZE PUSH1 0x4 PUSH2 0x423D JUMP JUMPDEST PUSH2 0x2A17 JUMP JUMPDEST CALLVALUE DUP1 ISZERO PUSH2 0x859 JUMPI PUSH0 DUP1 REVERT JUMPDEST POP PUSH2 0x34A PUSH2 0x868 CALLDATASIZE PUSH1 0x4 PUSH2 0x4292 JUMP JUMPDEST PUSH1 0x15 PUSH1 0x20 MSTORE PUSH0 SWAP1 DUP2 MSTORE PUSH1 0x40 SWAP1 KECCAK256 SLOAD PUSH1 0xFF AND DUP2 JUMP JUMPDEST CALLVALUE DUP1 ISZERO PUSH2 0x887 JUMPI PUSH0 DUP1 REVERT JUMPDEST POP PUSH2 0x42A PUSH1 0x64 DUP2 JUMP JUMPDEST CALLVALUE DUP1 ISZERO PUSH2 0x89B JUMPI PUSH0 DUP1 REVERT JUMPDEST POP PUSH2 0x3EA PUSH2 0x8AA CALLDATASIZE PUSH1 0x4 PUSH2 0x4418 JUMP JUMPDEST PUSH2 0x3046 JUMP JUMPDEST CALLVALUE DUP1 ISZERO PUSH2 0x8BA JUMPI PUSH0 DUP1 REVERT JUMPDEST POP PUSH2 0x3EA PUSH2 0x8C9 CALLDATASIZE PUSH1 0x4 PUSH2 0x478B JUMP JUMPDEST PUSH2 0x30F4 JUMP JUMPDEST CALLVALUE DUP1 ISZERO PUSH2 0x8D9 JUMPI PUSH0 DUP1 REVERT JUMPDEST POP PUSH2 0x34A PUSH2 0x8E8 CALLDATASIZE PUSH1 0x4 PUSH2 0x47CE JUMP JUMPDEST PUSH2 0x3267 JUMP JUMPDEST CALLVALUE DUP1 ISZERO PUSH2 0x8F8 JUMPI PUSH0 DUP1 REVERT JUMPDEST POP PUSH2 0x373 PUSH2 0x3294 JUMP JUMPDEST CALLVALUE DUP1 ISZERO PUSH2 0x90C JUMPI PUSH0 DUP1 REVERT JUMPDEST POP PUSH2 0x3EA PUSH2 0x91B CALLDATASIZE PUSH1 0x4 PUSH2 0x47FA JUMP JUMPDEST PUSH2 0x32A3 JUMP JUMPDEST CALLVALUE DUP1 ISZERO PUSH2 0x92B JUMPI PUSH0 DUP1 REVERT JUMPDEST POP PUSH2 0x3EA PUSH2 0x93A CALLDATASIZE PUSH1 0x4 PUSH2 0x4292 JUMP JUMPDEST PUSH2 0x34EA JUMP JUMPDEST CALLVALUE DUP1 ISZERO PUSH2 0x94A JUMPI PUSH0 DUP1 REVERT JUMPDEST POP PUSH2 0x3EA PUSH2 0x959 CALLDATASIZE PUSH1 0x4 PUSH2 0x423D JUMP JUMPDEST PUSH2 0x3527 JUMP JUMPDEST PUSH0 PUSH2 0x968 DUP3 PUSH2 0x356D JUMP JUMPDEST SWAP3 SWAP2 POP POP JUMP JUMPDEST PUSH1 0x60 PUSH1 0x11 DUP1 SLOAD PUSH2 0x97D SWAP1 PUSH2 0x485D JUMP JUMPDEST DUP1 PUSH1 0x1F ADD PUSH1 0x20 DUP1 SWAP2 DIV MUL PUSH1 0x20 ADD PUSH1 0x40 MLOAD SWAP1 DUP2 ADD PUSH1 0x40 MSTORE DUP1 SWAP3 SWAP2 SWAP1 DUP2 DUP2 MSTORE PUSH1 0x20 ADD DUP3 DUP1 SLOAD PUSH2 0x9A9 SWAP1 PUSH2 0x485D JUMP JUMPDEST DUP1 ISZERO PUSH2 0x9F4 JUMPI DUP1 PUSH1 0x1F LT PUSH2 0x9CB JUMPI PUSH2 0x100 DUP1 DUP4 SLOAD DIV MUL DUP4 MSTORE SWAP2 PUSH1 0x20 ADD SWAP2 PUSH2 0x9F4 JUMP JUMPDEST DUP3 ADD SWAP2 SWAP1 PUSH0 MSTORE PUSH1 0x20 PUSH0 KECCAK256 SWAP1 JUMPDEST DUP2 SLOAD DUP2 MSTORE SWAP1 PUSH1 0x1 ADD SWAP1 PUSH1 0x20 ADD DUP1 DUP4 GT PUSH2 0x9D7 JUMPI DUP3 SWAP1 SUB PUSH1 0x1F AND DUP3 ADD SWAP2 JUMPDEST POP POP POP POP POP SWAP1 POP SWAP1 JUMP JUMPDEST PUSH1 0x60 PUSH0 DUP1 SLOAD PUSH2 0x97D SWAP1 PUSH2 0x485D JUMP JUMPDEST PUSH0 PUSH2 0xA16 DUP3 PUSH2 0x3591 JUMP JUMPDEST POP PUSH0 DUP3 DUP2 MSTORE PUSH1 0x4 PUSH1 0x20 MSTORE PUSH1 0x40 SWAP1 KECCAK256 SLOAD PUSH1 0x1 PUSH1 0x1 PUSH1 0xA0 SHL SUB AND PUSH2 0x968 JUMP JUMPDEST PUSH1 0x40 MLOAD PUSH3 0x461BCD PUSH1 0xE5 SHL DUP2 MSTORE PUSH1 0x20 PUSH1 0x4 DUP3 ADD MSTORE PUSH1 0x1D PUSH1 0x24 DUP3 ADD MSTORE PUSH32 0x536F756C626F756E643A20617070726F76616C732064697361626C6564000000 PUSH1 0x44 DUP3 ADD MSTORE PUSH1 0x64 ADD JUMPDEST PUSH1 0x40 MLOAD DUP1 SWAP2 SUB SWAP1 REVERT JUMPDEST PUSH1 0x60 PUSH1 0xE DUP1 SLOAD PUSH2 0x97D SWAP1 PUSH2 0x485D JUMP JUMPDEST PUSH1 0x1 PUSH1 0x1 PUSH1 0xA0 SHL SUB DUP3 AND PUSH2 0xAB8 JUMPI PUSH1 0x40 MLOAD PUSH4 0x32505749 PUSH1 0xE1 SHL DUP2 MSTORE PUSH0 PUSH1 0x4 DUP3 ADD MSTORE PUSH1 0x24 ADD PUSH2 0xA77 JUMP JUMPDEST PUSH0 PUSH2 0xAC4 DUP4 DUP4 CALLER PUSH2 0x35C9 JUMP JUMPDEST SWAP1 POP DUP4 PUSH1 0x1 PUSH1 0x1 PUSH1 0xA0 SHL SUB AND DUP2 PUSH1 0x1 PUSH1 0x1 PUSH1 0xA0 SHL SUB AND EQ PUSH2 0xB12 JUMPI PUSH1 0x40 MLOAD PUSH4 0x64283D7B PUSH1 0xE0 SHL DUP2 MSTORE PUSH1 0x1 PUSH1 0x1 PUSH1 0xA0 SHL SUB DUP1 DUP7 AND PUSH1 0x4 DUP4 ADD MSTORE PUSH1 0x24 DUP3 ADD DUP5 SWAP1 MSTORE DUP3 AND PUSH1 0x44 DUP3 ADD MSTORE PUSH1 0x64 ADD PUSH2 0xA77 JUMP JUMPDEST POP POP POP POP JUMP JUMPDEST PUSH0 PUSH2 0xB22 DUP4 PUSH2 0x16F7 JUMP JUMPDEST DUP3 LT PUSH2 0xB53 JUMPI PUSH1 0x40 MLOAD PUSH4 0x295F44F7 PUSH1 0xE2 SHL DUP2 MSTORE PUSH1 0x1 PUSH1 0x1 PUSH1 0xA0 SHL SUB DUP5 AND PUSH1 0x4 DUP3 ADD MSTORE PUSH1 0x24 DUP2 ADD DUP4 SWAP1 MSTORE PUSH1 0x44 ADD PUSH2 0xA77 JUMP JUMPDEST POP PUSH1 0x1 PUSH1 0x1 PUSH1 0xA0 SHL SUB SWAP2 SWAP1 SWAP2 AND PUSH0 SWAP1 DUP2 MSTORE PUSH1 0x6 PUSH1 0x20 SWAP1 DUP2 MSTORE PUSH1 0x40 DUP1 DUP4 KECCAK256 SWAP4 DUP4 MSTORE SWAP3 SWAP1 MSTORE KECCAK256 SLOAD SWAP1 JUMP JUMPDEST PUSH2 0x2710 PUSH2 0xB87 PUSH1 0x8 SLOAD SWAP1 JUMP JUMPDEST LT PUSH2 0xBA4 JUMPI PUSH1 0x40 MLOAD PUSH3 0x461BCD PUSH1 0xE5 SHL DUP2 MSTORE PUSH1 0x4 ADD PUSH2 0xA77 SWAP1 PUSH2 0x4895 JUMP JUMPDEST PUSH1 0xC SLOAD PUSH1 0xFF AND ISZERO PUSH2 0xBC7 JUMPI PUSH1 0x40 MLOAD PUSH3 0x461BCD PUSH1 0xE5 SHL DUP2 MSTORE PUSH1 0x4 ADD PUSH2 0xA77 SWAP1 PUSH2 0x48C1 JUMP JUMPDEST DUP1 PUSH2 0xBD6 PUSH4 0x1E13380 TIMESTAMP PUSH2 0x48FF JUMP JUMPDEST DUP2 GT ISZERO PUSH2 0xBF5 JUMPI PUSH1 0x40 MLOAD PUSH3 0x461BCD PUSH1 0xE5 SHL DUP2 MSTORE PUSH1 0x4 ADD PUSH2 0xA77 SWAP1 PUSH2 0x4912 JUMP JUMPDEST PUSH2 0xC03 PUSH4 0x9660180 TIMESTAMP PUSH2 0x4949 JUMP JUMPDEST DUP2 LT ISZERO PUSH2 0xC22 JUMPI PUSH1 0x40 MLOAD PUSH3 0x461BCD PUSH1 0xE5 SHL DUP2 MSTORE PUSH1 0x4 ADD PUSH2 0xA77 SWAP1 PUSH2 0x495C JUMP JUMPDEST PUSH2 0xC2A PUSH2 0x3658 JUMP JUMPDEST PUSH1 0x10 SLOAD CALLVALUE LT ISZERO PUSH2 0xC73 JUMPI PUSH1 0x40 MLOAD PUSH3 0x461BCD PUSH1 0xE5 SHL DUP2 MSTORE PUSH1 0x20 PUSH1 0x4 DUP3 ADD MSTORE PUSH1 0x14 PUSH1 0x24 DUP3 ADD MSTORE PUSH20 0x125B9CDD59999A58DA595B9D081C185E5B595B9D PUSH1 0x62 SHL PUSH1 0x44 DUP3 ADD MSTORE PUSH1 0x64 ADD PUSH2 0xA77 JUMP JUMPDEST PUSH0 DUP4 MLOAD GT PUSH2 0xC93 JUMPI PUSH1 0x40 MLOAD PUSH3 0x461BCD PUSH1 0xE5 SHL DUP2 MSTORE PUSH1 0x4 ADD PUSH2 0xA77 SWAP1 PUSH2 0x4993 JUMP JUMPDEST PUSH0 PUSH1 0x10 SLOAD CALLVALUE PUSH2 0xCA2 SWAP2 SWAP1 PUSH2 0x4949 JUMP JUMPDEST PUSH1 0xD DUP1 SLOAD SWAP2 SWAP3 POP PUSH0 SWAP2 SWAP1 DUP3 PUSH2 0xCB6 DUP4 PUSH2 0x49C0 JUMP JUMPDEST SWAP1 SWAP2 SSTORE POP PUSH1 0x40 DUP1 MLOAD PUSH1 0xA0 DUP2 ADD DUP3 MSTORE DUP10 DUP2 MSTORE PUSH1 0x20 DUP1 DUP3 ADD DUP11 SWAP1 MSTORE DUP2 DUP4 ADD DUP10 SWAP1 MSTORE PUSH1 0x60 DUP3 ADD DUP9 SWAP1 MSTORE CALLER PUSH1 0x80 DUP4 ADD MSTORE PUSH0 DUP5 DUP2 MSTORE PUSH1 0x12 SWAP1 SWAP2 MSTORE SWAP2 SWAP1 SWAP2 KECCAK256 DUP2 MLOAD SWAP3 SWAP4 POP SWAP1 SWAP2 DUP2 SWAP1 PUSH2 0xD02 SWAP1 DUP3 PUSH2 0x4A1C JUMP JUMPDEST POP PUSH1 0x20 DUP3 ADD MLOAD PUSH1 0x1 DUP3 ADD SWAP1 PUSH2 0xD17 SWAP1 DUP3 PUSH2 0x4A1C JUMP JUMPDEST POP PUSH1 0x40 DUP3 ADD MLOAD PUSH1 0x2 DUP3 ADD SWAP1 PUSH2 0xD2C SWAP1 DUP3 PUSH2 0x4A1C JUMP JUMPDEST POP PUSH1 0x60 DUP3 ADD MLOAD PUSH1 0x3 DUP3 ADD SSTORE PUSH1 0x80 SWAP1 SWAP2 ADD MLOAD PUSH1 0x4 SWAP1 SWAP2 ADD DUP1 SLOAD PUSH1 0x1 PUSH1 0x1 PUSH1 0xA0 SHL SUB NOT AND PUSH1 0x1 PUSH1 0x1 PUSH1 0xA0 SHL SUB SWAP1 SWAP3 AND SWAP2 SWAP1 SWAP2 OR SWAP1 SSTORE PUSH1 0x40 MLOAD DUP2 SWAP1 CALLER SWAP1 PUSH32 0xE7CD4CE7F2A465EDC730269A1305E8A48BAD821E8FB7E152EC413829C01A53C4 SWAP1 PUSH2 0xD93 SWAP1 DUP10 SWAP1 PUSH2 0x422B JUMP JUMPDEST PUSH1 0x40 MLOAD DUP1 SWAP2 SUB SWAP1 LOG3 PUSH2 0xDA5 CALLER DUP3 PUSH2 0x3682 JUMP JUMPDEST DUP2 ISZERO PUSH2 0xE32 JUMPI PUSH1 0x40 MLOAD PUSH0 SWAP1 CALLER SWAP1 DUP5 SWAP1 DUP4 DUP2 DUP2 DUP2 DUP6 DUP8 GAS CALL SWAP3 POP POP POP RETURNDATASIZE DUP1 PUSH0 DUP2 EQ PUSH2 0xDEA JUMPI PUSH1 0x40 MLOAD SWAP2 POP PUSH1 0x1F NOT PUSH1 0x3F RETURNDATASIZE ADD AND DUP3 ADD PUSH1 0x40 MSTORE RETURNDATASIZE DUP3 MSTORE RETURNDATASIZE PUSH0 PUSH1 0x20 DUP5 ADD RETURNDATACOPY PUSH2 0xDEF JUMP JUMPDEST PUSH1 0x60 SWAP2 POP JUMPDEST POP POP SWAP1 POP DUP1 PUSH2 0xE30 JUMPI PUSH1 0x40 MLOAD PUSH3 0x461BCD PUSH1 0xE5 SHL DUP2 MSTORE PUSH1 0x20 PUSH1 0x4 DUP3 ADD MSTORE PUSH1 0xD PUSH1 0x24 DUP3 ADD MSTORE PUSH13 0x1499599D5B990819985A5B1959 PUSH1 0x9A SHL PUSH1 0x44 DUP3 ADD MSTORE PUSH1 0x64 ADD PUSH2 0xA77 JUMP JUMPDEST POP JUMPDEST POP POP PUSH2 0xE3E PUSH1 0x1 PUSH1 0xB SSTORE JUMP JUMPDEST POP POP POP POP POP JUMP JUMPDEST PUSH2 0xE4D PUSH2 0x369B JUMP JUMPDEST PUSH2 0xE55 PUSH2 0x3658 JUMP JUMPDEST SELFBALANCE DUP1 PUSH2 0xE9A JUMPI PUSH1 0x40 MLOAD PUSH3 0x461BCD PUSH1 0xE5 SHL DUP2 MSTORE PUSH1 0x20 PUSH1 0x4 DUP3 ADD MSTORE PUSH1 0x14 PUSH1 0x24 DUP3 ADD MSTORE PUSH20 0x4E6F2066756E647320746F207769746864726177 PUSH1 0x60 SHL PUSH1 0x44 DUP3 ADD MSTORE PUSH1 0x64 ADD PUSH2 0xA77 JUMP JUMPDEST PUSH0 PUSH2 0xEAD PUSH1 0xA SLOAD PUSH1 0x1 PUSH1 0x1 PUSH1 0xA0 SHL SUB AND SWAP1 JUMP JUMPDEST PUSH1 0x1 PUSH1 0x1 PUSH1 0xA0 SHL SUB AND DUP3 PUSH1 0x40 MLOAD PUSH0 PUSH1 0x40 MLOAD DUP1 DUP4 SUB DUP2 DUP6 DUP8 GAS CALL SWAP3 POP POP POP RETURNDATASIZE DUP1 PUSH0 DUP2 EQ PUSH2 0xEF4 JUMPI PUSH1 0x40 MLOAD SWAP2 POP PUSH1 0x1F NOT PUSH1 0x3F RETURNDATASIZE ADD AND DUP3 ADD PUSH1 0x40 MSTORE RETURNDATASIZE DUP3 MSTORE RETURNDATASIZE PUSH0 PUSH1 0x20 DUP5 ADD RETURNDATACOPY PUSH2 0xEF9 JUMP JUMPDEST PUSH1 0x60 SWAP2 POP JUMPDEST POP POP SWAP1 POP DUP1 PUSH2 0xF3E JUMPI PUSH1 0x40 MLOAD PUSH3 0x461BCD PUSH1 0xE5 SHL DUP2 MSTORE PUSH1 0x20 PUSH1 0x4 DUP3 ADD MSTORE PUSH1 0x11 PUSH1 0x24 DUP3 ADD MSTORE PUSH17 0x15DA5D1A191C985DD85B0819985A5B1959 PUSH1 0x7A SHL PUSH1 0x44 DUP3 ADD MSTORE PUSH1 0x64 ADD PUSH2 0xA77 JUMP JUMPDEST PUSH1 0xA SLOAD PUSH1 0x1 PUSH1 0x1 PUSH1 0xA0 SHL SUB AND PUSH1 0x1 PUSH1 0x1 PUSH1 0xA0 SHL SUB AND PUSH32 0xCB34BAB4D8A21CE2DF6988D496D854246C2A96147DAC484B1E1A30BE9213BEFD DUP4 PUSH1 0x40 MLOAD PUSH2 0xF84 SWAP2 DUP2 MSTORE PUSH1 0x20 ADD SWAP1 JUMP JUMPDEST PUSH1 0x40 MLOAD DUP1 SWAP2 SUB SWAP1 LOG2 POP POP PUSH2 0xF98 PUSH1 0x1 PUSH1 0xB SSTORE JUMP JUMPDEST JUMP JUMPDEST PUSH2 0xFA2 PUSH2 0x369B JUMP JUMPDEST PUSH1 0x1 PUSH1 0x1 PUSH1 0xA0 SHL SUB DUP3 AND PUSH2 0xFF8 JUMPI PUSH1 0x40 MLOAD PUSH3 0x461BCD PUSH1 0xE5 SHL DUP2 MSTORE PUSH1 0x20 PUSH1 0x4 DUP3 ADD MSTORE PUSH1 0x19 PUSH1 0x24 DUP3 ADD MSTORE PUSH32 0x496E76616C6964206D6F64657261746F72206164647265737300000000000000 PUSH1 0x44 DUP3 ADD MSTORE PUSH1 0x64 ADD PUSH2 0xA77 JUMP JUMPDEST PUSH1 0x1 PUSH1 0x1 PUSH1 0xA0 SHL SUB DUP3 AND PUSH0 DUP2 DUP2 MSTORE PUSH1 0x14 PUSH1 0x20 SWAP1 DUP2 MSTORE PUSH1 0x40 SWAP2 DUP3 SWAP1 KECCAK256 DUP1 SLOAD PUSH1 0xFF NOT AND DUP6 ISZERO ISZERO SWAP1 DUP2 OR SWAP1 SWAP2 SSTORE SWAP2 MLOAD SWAP2 DUP3 MSTORE PUSH32 0x26E4A6A023A3571E6B5896C2194796E79D4D8F7246E495957612F0C3A641E734 SWAP2 ADD JUMPDEST PUSH1 0x40 MLOAD DUP1 SWAP2 SUB SWAP1 LOG2 POP POP JUMP JUMPDEST PUSH2 0x105F PUSH2 0x369B JUMP JUMPDEST PUSH1 0xC SLOAD PUSH1 0xFF AND PUSH2 0x10A8 JUMPI PUSH1 0x40 MLOAD PUSH3 0x461BCD PUSH1 0xE5 SHL DUP2 MSTORE PUSH1 0x20 PUSH1 0x4 DUP3 ADD MSTORE PUSH1 0x14 PUSH1 0x24 DUP3 ADD MSTORE PUSH20 0x14185D5CD8589B194E881B9BDD081C185D5CD959 PUSH1 0x62 SHL PUSH1 0x44 DUP3 ADD MSTORE PUSH1 0x64 ADD PUSH2 0xA77 JUMP JUMPDEST PUSH1 0xC DUP1 SLOAD PUSH1 0xFF NOT AND SWAP1 SSTORE PUSH1 0x40 MLOAD CALLER DUP2 MSTORE PUSH32 0x5DB9EE0A495BF2E6FF9C91A7834C1BA4FDD244A5E8AA4E537BD38AEAE4B073AA SWAP1 PUSH1 0x20 ADD JUMPDEST PUSH1 0x40 MLOAD DUP1 SWAP2 SUB SWAP1 LOG1 JUMP JUMPDEST PUSH2 0x1102 DUP4 DUP4 DUP4 PUSH1 0x40 MLOAD DUP1 PUSH1 0x20 ADD PUSH1 0x40 MSTORE DUP1 PUSH0 DUP2 MSTORE POP PUSH2 0x222D JUMP JUMPDEST POP POP POP JUMP JUMPDEST PUSH0 PUSH2 0x1111 PUSH1 0x8 SLOAD SWAP1 JUMP JUMPDEST DUP3 LT PUSH2 0x1139 JUMPI PUSH1 0x40 MLOAD PUSH4 0x295F44F7 PUSH1 0xE2 SHL DUP2 MSTORE PUSH0 PUSH1 0x4 DUP3 ADD MSTORE PUSH1 0x24 DUP2 ADD DUP4 SWAP1 MSTORE PUSH1 0x44 ADD PUSH2 0xA77 JUMP JUMPDEST PUSH1 0x8 DUP3 DUP2 SLOAD DUP2 LT PUSH2 0x114C JUMPI PUSH2 0x114C PUSH2 0x4AD7 JUMP JUMPDEST SWAP1 PUSH0 MSTORE PUSH1 0x20 PUSH0 KECCAK256 ADD SLOAD SWAP1 POP SWAP2 SWAP1 POP JUMP JUMPDEST PUSH1 0x60 DUP1 PUSH1 0x60 PUSH0 DUP1 PUSH0 PUSH2 0x116D DUP8 PUSH2 0x36C8 JUMP JUMPDEST PUSH2 0x1189 JUMPI PUSH1 0x40 MLOAD PUSH3 0x461BCD PUSH1 0xE5 SHL DUP2 MSTORE PUSH1 0x4 ADD PUSH2 0xA77 SWAP1 PUSH2 0x4AEB JUMP JUMPDEST PUSH0 DUP8 DUP2 MSTORE PUSH1 0x12 PUSH1 0x20 SWAP1 DUP2 MSTORE PUSH1 0x40 DUP1 DUP4 KECCAK256 PUSH1 0x3 DUP2 ADD SLOAD PUSH1 0x4 DUP3 ADD SLOAD PUSH1 0x13 SWAP1 SWAP5 MSTORE SWAP2 SWAP1 SWAP4 KECCAK256 SLOAD DUP4 SLOAD DUP5 SWAP4 PUSH1 0x1 DUP6 ADD SWAP4 PUSH1 0x2 DUP7 ADD SWAP4 SWAP1 SWAP3 PUSH1 0x1 PUSH1 0x1 PUSH1 0xA0 SHL SUB SWAP1 SWAP3 AND SWAP2 PUSH1 0xFF SWAP1 SWAP2 AND SWAP1 DUP7 SWAP1 PUSH2 0x11DA SWAP1 PUSH2 0x485D JUMP JUMPDEST DUP1 PUSH1 0x1F ADD PUSH1 0x20 DUP1 SWAP2 DIV MUL PUSH1 0x20 ADD PUSH1 0x40 MLOAD SWAP1 DUP2 ADD PUSH1 0x40 MSTORE DUP1 SWAP3 SWAP2 SWAP1 DUP2 DUP2 MSTORE PUSH1 0x20 ADD DUP3 DUP1 SLOAD PUSH2 0x1206 SWAP1 PUSH2 0x485D JUMP JUMPDEST DUP1 ISZERO PUSH2 0x1251 JUMPI DUP1 PUSH1 0x1F LT PUSH2 0x1228 JUMPI PUSH2 0x100 DUP1 DUP4 SLOAD DIV MUL DUP4 MSTORE SWAP2 PUSH1 0x20 ADD SWAP2 PUSH2 0x1251 JUMP JUMPDEST DUP3 ADD SWAP2 SWAP1 PUSH0 MSTORE PUSH1 0x20 PUSH0 KECCAK256 SWAP1 JUMPDEST DUP2 SLOAD DUP2 MSTORE SWAP1 PUSH1 0x1 ADD SWAP1 PUSH1 0x20 ADD DUP1 DUP4 GT PUSH2 0x1234 JUMPI DUP3 SWAP1 SUB PUSH1 0x1F AND DUP3 ADD SWAP2 JUMPDEST POP POP POP POP POP SWAP6 POP DUP5 DUP1 SLOAD PUSH2 0x1264 SWAP1 PUSH2 0x485D JUMP JUMPDEST DUP1 PUSH1 0x1F ADD PUSH1 0x20 DUP1 SWAP2 DIV MUL PUSH1 0x20 ADD PUSH1 0x40 MLOAD SWAP1 DUP2 ADD PUSH1 0x40 MSTORE DUP1 SWAP3 SWAP2 SWAP1 DUP2 DUP2 MSTORE PUSH1 0x20 ADD DUP3 DUP1 SLOAD PUSH2 0x1290 SWAP1 PUSH2 0x485D JUMP JUMPDEST DUP1 ISZERO PUSH2 0x12DB JUMPI DUP1 PUSH1 0x1F LT PUSH2 0x12B2 JUMPI PUSH2 0x100 DUP1 DUP4 SLOAD DIV MUL DUP4 MSTORE SWAP2 PUSH1 0x20 ADD SWAP2 PUSH2 0x12DB JUMP JUMPDEST DUP3 ADD SWAP2 SWAP1 PUSH0 MSTORE PUSH1 0x20 PUSH0 KECCAK256 SWAP1 JUMPDEST DUP2 SLOAD DUP2 MSTORE SWAP1 PUSH1 0x1 ADD SWAP1 PUSH1 0x20 ADD DUP1 DUP4 GT PUSH2 0x12BE JUMPI DUP3 SWAP1 SUB PUSH1 0x1F AND DUP3 ADD SWAP2 JUMPDEST POP POP POP POP POP SWAP5 POP DUP4 DUP1 SLOAD PUSH2 0x12EE SWAP1 PUSH2 0x485D JUMP JUMPDEST DUP1 PUSH1 0x1F ADD PUSH1 0x20 DUP1 SWAP2 DIV MUL PUSH1 0x20 ADD PUSH1 0x40 MLOAD SWAP1 DUP2 ADD PUSH1 0x40 MSTORE DUP1 SWAP3 SWAP2 SWAP1 DUP2 DUP2 MSTORE PUSH1 0x20 ADD DUP3 DUP1 SLOAD PUSH2 0x131A SWAP1 PUSH2 0x485D JUMP JUMPDEST DUP1 ISZERO PUSH2 0x1365 JUMPI DUP1 PUSH1 0x1F LT PUSH2 0x133C JUMPI PUSH2 0x100 DUP1 DUP4 SLOAD DIV MUL DUP4 MSTORE SWAP2 PUSH1 0x20 ADD SWAP2 PUSH2 0x1365 JUMP JUMPDEST DUP3 ADD SWAP2 SWAP1 PUSH0 MSTORE PUSH1 0x20 PUSH0 KECCAK256 SWAP1 JUMPDEST DUP2 SLOAD DUP2 MSTORE SWAP1 PUSH1 0x1 ADD SWAP1 PUSH1 0x20 ADD DUP1 DUP4 GT PUSH2 0x1348 JUMPI DUP3 SWAP1 SUB PUSH1 0x1F AND DUP3 ADD SWAP2 JUMPDEST POP POP POP POP POP SWAP4 POP SWAP7 POP SWAP7 POP SWAP7 POP SWAP7 POP SWAP7 POP SWAP7 POP POP SWAP2 SWAP4 SWAP6 POP SWAP2 SWAP4 SWAP6 JUMP JUMPDEST PUSH0 PUSH2 0x968 DUP3 PUSH2 0x3591 JUMP JUMPDEST PUSH1 0x12 PUSH1 0x20 MSTORE PUSH0 SWAP1 DUP2 MSTORE PUSH1 0x40 SWAP1 KECCAK256 DUP1 SLOAD DUP2 SWAP1 PUSH2 0x13A6 SWAP1 PUSH2 0x485D JUMP JUMPDEST DUP1 PUSH1 0x1F ADD PUSH1 0x20 DUP1 SWAP2 DIV MUL PUSH1 0x20 ADD PUSH1 0x40 MLOAD SWAP1 DUP2 ADD PUSH1 0x40 MSTORE DUP1 SWAP3 SWAP2 SWAP1 DUP2 DUP2 MSTORE PUSH1 0x20 ADD DUP3 DUP1 SLOAD PUSH2 0x13D2 SWAP1 PUSH2 0x485D JUMP JUMPDEST DUP1 ISZERO PUSH2 0x141D JUMPI DUP1 PUSH1 0x1F LT PUSH2 0x13F4 JUMPI PUSH2 0x100 DUP1 DUP4 SLOAD DIV MUL DUP4 MSTORE SWAP2 PUSH1 0x20 ADD SWAP2 PUSH2 0x141D JUMP JUMPDEST DUP3 ADD SWAP2 SWAP1 PUSH0 MSTORE PUSH1 0x20 PUSH0 KECCAK256 SWAP1 JUMPDEST DUP2 SLOAD DUP2 MSTORE SWAP1 PUSH1 0x1 ADD SWAP1 PUSH1 0x20 ADD DUP1 DUP4 GT PUSH2 0x1400 JUMPI DUP3 SWAP1 SUB PUSH1 0x1F AND DUP3 ADD SWAP2 JUMPDEST POP POP POP POP POP SWAP1 DUP1 PUSH1 0x1 ADD DUP1 SLOAD PUSH2 0x1432 SWAP1 PUSH2 0x485D JUMP JUMPDEST DUP1 PUSH1 0x1F ADD PUSH1 0x20 DUP1 SWAP2 DIV MUL PUSH1 0x20 ADD PUSH1 0x40 MLOAD SWAP1 DUP2 ADD PUSH1 0x40 MSTORE DUP1 SWAP3 SWAP2 SWAP1 DUP2 DUP2 MSTORE PUSH1 0x20 ADD DUP3 DUP1 SLOAD PUSH2 0x145E SWAP1 PUSH2 0x485D JUMP JUMPDEST DUP1 ISZERO PUSH2 0x14A9 JUMPI DUP1 PUSH1 0x1F LT PUSH2 0x1480 JUMPI PUSH2 0x100 DUP1 DUP4 SLOAD DIV MUL DUP4 MSTORE SWAP2 PUSH1 0x20 ADD SWAP2 PUSH2 0x14A9 JUMP JUMPDEST DUP3 ADD SWAP2 SWAP1 PUSH0 MSTORE PUSH1 0x20 PUSH0 KECCAK256 SWAP1 JUMPDEST DUP2 SLOAD DUP2 MSTORE SWAP1 PUSH1 0x1 ADD SWAP1 PUSH1 0x20 ADD DUP1 DUP4 GT PUSH2 0x148C JUMPI DUP3 SWAP1 SUB PUSH1 0x1F AND DUP3 ADD SWAP2 JUMPDEST POP POP POP POP POP SWAP1 DUP1 PUSH1 0x2 ADD DUP1 SLOAD PUSH2 0x14BE SWAP1 PUSH2 0x485D JUMP JUMPDEST DUP1 PUSH1 0x1F ADD PUSH1 0x20 DUP1 SWAP2 DIV MUL PUSH1 0x20 ADD PUSH1 0x40 MLOAD SWAP1 DUP2 ADD PUSH1 0x40 MSTORE DUP1 SWAP3 SWAP2 SWAP1 DUP2 DUP2 MSTORE PUSH1 0x20 ADD DUP3 DUP1 SLOAD PUSH2 0x14EA SWAP1 PUSH2 0x485D JUMP JUMPDEST DUP1 ISZERO PUSH2 0x1535 JUMPI DUP1 PUSH1 0x1F LT PUSH2 0x150C JUMPI PUSH2 0x100 DUP1 DUP4 SLOAD DIV MUL DUP4 MSTORE SWAP2 PUSH1 0x20 ADD SWAP2 PUSH2 0x1535 JUMP JUMPDEST DUP3 ADD SWAP2 SWAP1 PUSH0 MSTORE PUSH1 0x20 PUSH0 KECCAK256 SWAP1 JUMPDEST DUP2 SLOAD DUP2 MSTORE SWAP1 PUSH1 0x1 ADD SWAP1 PUSH1 0x20 ADD DUP1 DUP4 GT PUSH2 0x1518 JUMPI DUP3 SWAP1 SUB PUSH1 0x1F AND DUP3 ADD SWAP2 JUMPDEST POP POP POP POP PUSH1 0x3 DUP4 ADD SLOAD PUSH1 0x4 SWAP1 SWAP4 ADD SLOAD SWAP2 SWAP3 SWAP2 PUSH1 0x1 PUSH1 0x1 PUSH1 0xA0 SHL SUB AND SWAP1 POP DUP6 JUMP JUMPDEST PUSH1 0xC SLOAD PUSH0 SWAP1 PUSH1 0xFF AND ISZERO DUP1 ISZERO PUSH2 0x1573 JUMPI POP PUSH2 0x2710 PUSH2 0x1571 PUSH1 0x8 SLOAD SWAP1 JUMP JUMPDEST LT JUMPDEST SWAP1 POP SWAP1 JUMP JUMPDEST DUP1 PUSH2 0x1587 PUSH4 0x1E13380 TIMESTAMP PUSH2 0x48FF JUMP JUMPDEST DUP2 GT ISZERO PUSH2 0x15A6 JUMPI PUSH1 0x40 MLOAD PUSH3 0x461BCD PUSH1 0xE5 SHL DUP2 MSTORE PUSH1 0x4 ADD PUSH2 0xA77 SWAP1 PUSH2 0x4912 JUMP JUMPDEST PUSH2 0x15B4 PUSH4 0x9660180 TIMESTAMP PUSH2 0x4949 JUMP JUMPDEST DUP2 LT ISZERO PUSH2 0x15D3 JUMPI PUSH1 0x40 MLOAD PUSH3 0x461BCD PUSH1 0xE5 SHL DUP2 MSTORE PUSH1 0x4 ADD PUSH2 0xA77 SWAP1 PUSH2 0x495C JUMP JUMPDEST CALLER PUSH0 SWAP1 DUP2 MSTORE PUSH1 0x15 PUSH1 0x20 MSTORE PUSH1 0x40 SWAP1 KECCAK256 SLOAD PUSH1 0xFF AND PUSH2 0x1622 JUMPI PUSH1 0x40 MLOAD PUSH3 0x461BCD PUSH1 0xE5 SHL DUP2 MSTORE PUSH1 0x20 PUSH1 0x4 DUP3 ADD MSTORE PUSH1 0xE PUSH1 0x24 DUP3 ADD MSTORE PUSH14 0x139BDD08185D5D1A1BDC9A5E9959 PUSH1 0x92 SHL PUSH1 0x44 DUP3 ADD MSTORE PUSH1 0x64 ADD PUSH2 0xA77 JUMP JUMPDEST PUSH2 0x162B DUP7 PUSH2 0x36C8 JUMP JUMPDEST PUSH2 0x1647 JUMPI PUSH1 0x40 MLOAD PUSH3 0x461BCD PUSH1 0xE5 SHL DUP2 MSTORE PUSH1 0x4 ADD PUSH2 0xA77 SWAP1 PUSH2 0x4AEB JUMP JUMPDEST PUSH0 DUP4 MLOAD GT PUSH2 0x1667 JUMPI PUSH1 0x40 MLOAD PUSH3 0x461BCD PUSH1 0xE5 SHL DUP2 MSTORE PUSH1 0x4 ADD PUSH2 0xA77 SWAP1 PUSH2 0x4993 JUMP JUMPDEST PUSH0 DUP7 DUP2 MSTORE PUSH1 0x12 PUSH1 0x20 MSTORE PUSH1 0x40 SWAP1 KECCAK256 PUSH2 0x167E DUP7 DUP3 PUSH2 0x4A1C JUMP JUMPDEST POP PUSH0 DUP7 DUP2 MSTORE PUSH1 0x12 PUSH1 0x20 MSTORE PUSH1 0x40 SWAP1 KECCAK256 PUSH1 0x1 ADD PUSH2 0x1699 DUP6 DUP3 PUSH2 0x4A1C JUMP JUMPDEST POP PUSH0 DUP7 DUP2 MSTORE PUSH1 0x12 PUSH1 0x20 MSTORE PUSH1 0x40 SWAP1 KECCAK256 PUSH1 0x2 ADD PUSH2 0x16B4 DUP5 DUP3 PUSH2 0x4A1C JUMP JUMPDEST POP PUSH0 DUP7 DUP2 MSTORE PUSH1 0x12 PUSH1 0x20 MSTORE PUSH1 0x40 DUP1 DUP3 KECCAK256 PUSH1 0x3 ADD DUP5 SWAP1 SSTORE MLOAD DUP8 SWAP2 PUSH32 0xAF80443D368C70A4ED2EE587233722B4F8CDC67C63A6E083A704BFAF6119ACD4 SWAP2 LOG2 POP POP POP POP POP POP JUMP JUMPDEST PUSH0 PUSH1 0x1 PUSH1 0x1 PUSH1 0xA0 SHL SUB DUP3 AND PUSH2 0x1721 JUMPI PUSH1 0x40 MLOAD PUSH4 0x22718AD9 PUSH1 0xE2 SHL DUP2 MSTORE PUSH0 PUSH1 0x4 DUP3 ADD MSTORE PUSH1 0x24 ADD PUSH2 0xA77 JUMP JUMPDEST POP PUSH1 0x1 PUSH1 0x1 PUSH1 0xA0 SHL SUB AND PUSH0 SWAP1 DUP2 MSTORE PUSH1 0x3 PUSH1 0x20 MSTORE PUSH1 0x40 SWAP1 KECCAK256 SLOAD SWAP1 JUMP JUMPDEST PUSH2 0x1744 PUSH2 0x369B JUMP JUMPDEST PUSH2 0xF98 PUSH0 PUSH2 0x36DB JUMP JUMPDEST PUSH2 0x1755 PUSH2 0x369B JUMP JUMPDEST PUSH2 0x175D PUSH2 0x3658 JUMP JUMPDEST PUSH1 0x1 PUSH1 0x1 PUSH1 0xA0 SHL SUB DUP3 AND PUSH2 0x17AB JUMPI PUSH1 0x40 MLOAD PUSH3 0x461BCD PUSH1 0xE5 SHL DUP2 MSTORE PUSH1 0x20 PUSH1 0x4 DUP3 ADD MSTORE PUSH1 0x15 PUSH1 0x24 DUP3 ADD MSTORE PUSH21 0x496E76616C696420746F6B656E2061646472657373 PUSH1 0x58 SHL PUSH1 0x44 DUP3 ADD MSTORE PUSH1 0x64 ADD PUSH2 0xA77 JUMP JUMPDEST ADDRESS PUSH1 0x1 PUSH1 0x1 PUSH1 0xA0 SHL SUB DUP4 AND SUB PUSH2 0x17FF JUMPI PUSH1 0x40 MLOAD PUSH3 0x461BCD PUSH1 0xE5 SHL DUP2 MSTORE PUSH1 0x20 PUSH1 0x4 DUP3 ADD MSTORE PUSH1 0x19 PUSH1 0x24 DUP3 ADD MSTORE PUSH25 0x43616E6E6F74207265636F766572206F776E20746F6B656E73 PUSH1 0x38 SHL PUSH1 0x44 DUP3 ADD MSTORE PUSH1 0x64 ADD PUSH2 0xA77 JUMP JUMPDEST PUSH1 0x40 MLOAD PUSH4 0x31A9108F PUSH1 0xE1 SHL DUP2 MSTORE PUSH1 0x4 DUP2 ADD DUP3 SWAP1 MSTORE DUP3 SWAP1 ADDRESS SWAP1 PUSH1 0x1 PUSH1 0x1 PUSH1 0xA0 SHL SUB DUP4 AND SWAP1 PUSH4 0x6352211E SWAP1 PUSH1 0x24 ADD PUSH1 0x20 PUSH1 0x40 MLOAD DUP1 DUP4 SUB DUP2 DUP7 GAS STATICCALL ISZERO DUP1 ISZERO PUSH2 0x1846 JUMPI RETURNDATASIZE PUSH0 DUP1 RETURNDATACOPY RETURNDATASIZE PUSH0 REVERT JUMPDEST POP POP POP POP PUSH1 0x40 MLOAD RETURNDATASIZE PUSH1 0x1F NOT PUSH1 0x1F DUP3 ADD AND DUP3 ADD DUP1 PUSH1 0x40 MSTORE POP DUP2 ADD SWAP1 PUSH2 0x186A SWAP2 SWAP1 PUSH2 0x4B19 JUMP JUMPDEST PUSH1 0x1 PUSH1 0x1 PUSH1 0xA0 SHL SUB AND EQ PUSH2 0x18C0 JUMPI PUSH1 0x40 MLOAD PUSH3 0x461BCD PUSH1 0xE5 SHL DUP2 MSTORE PUSH1 0x20 PUSH1 0x4 DUP3 ADD MSTORE PUSH1 0x1F PUSH1 0x24 DUP3 ADD MSTORE PUSH32 0x436F6E747261637420646F65736E2774206F776E207468697320746F6B656E00 PUSH1 0x44 DUP3 ADD MSTORE PUSH1 0x64 ADD PUSH2 0xA77 JUMP JUMPDEST DUP1 PUSH1 0x1 PUSH1 0x1 PUSH1 0xA0 SHL SUB AND PUSH4 0x42842E0E ADDRESS PUSH2 0x18E2 PUSH1 0xA SLOAD PUSH1 0x1 PUSH1 0x1 PUSH1 0xA0 SHL SUB AND SWAP1 JUMP JUMPDEST PUSH1 0x40 MLOAD PUSH1 0x1 PUSH1 0x1 PUSH1 0xE0 SHL SUB NOT PUSH1 0xE0 DUP6 SWAP1 SHL AND DUP2 MSTORE PUSH1 0x1 PUSH1 0x1 PUSH1 0xA0 SHL SUB SWAP3 DUP4 AND PUSH1 0x4 DUP3 ADD MSTORE SWAP2 AND PUSH1 0x24 DUP3 ADD MSTORE PUSH1 0x44 DUP2 ADD DUP6 SWAP1 MSTORE PUSH1 0x64 ADD PUSH0 PUSH1 0x40 MLOAD DUP1 DUP4 SUB DUP2 PUSH0 DUP8 DUP1 EXTCODESIZE ISZERO DUP1 ISZERO PUSH2 0x192E JUMPI PUSH0 DUP1 REVERT JUMPDEST POP GAS CALL ISZERO DUP1 ISZERO PUSH2 0x1940 JUMPI RETURNDATASIZE PUSH0 DUP1 RETURNDATACOPY RETURNDATASIZE PUSH0 REVERT JUMPDEST POP POP POP POP PUSH2 0x1956 PUSH1 0xA SLOAD PUSH1 0x1 PUSH1 0x1 PUSH1 0xA0 SHL SUB AND SWAP1 JUMP JUMPDEST PUSH1 0x1 PUSH1 0x1 PUSH1 0xA0 SHL SUB AND DUP4 PUSH1 0x1 PUSH1 0x1 PUSH1 0xA0 SHL SUB AND PUSH32 0x6A30E6784464F0D1F4158AA4CB65AE9239B0FA87C7F2C083EE6DDE44BA97B5E6 DUP5 PUSH1 0x40 MLOAD PUSH2 0x199A SWAP2 DUP2 MSTORE PUSH1 0x20 ADD SWAP1 JUMP JUMPDEST PUSH1 0x40 MLOAD DUP1 SWAP2 SUB SWAP1 LOG3 POP PUSH2 0x19AD PUSH1 0x1 PUSH1 0xB SSTORE JUMP JUMPDEST POP POP JUMP JUMPDEST PUSH2 0x19B9 PUSH2 0x369B JUMP JUMPDEST PUSH1 0xC SLOAD PUSH1 0xFF AND ISZERO PUSH2 0x19DC JUMPI PUSH1 0x40 MLOAD PUSH3 0x461BCD PUSH1 0xE5 SHL DUP2 MSTORE PUSH1 0x4 ADD PUSH2 0xA77 SWAP1 PUSH2 0x48C1 JUMP JUMPDEST PUSH1 0xC DUP1 SLOAD PUSH1 0xFF NOT AND PUSH1 0x1 OR SWAP1 SSTORE PUSH1 0x40 MLOAD CALLER DUP2 MSTORE PUSH32 0x62E78CEA01BEE320CD4E420270B5EA74000D11B0C9F74754EBDBFC544B05A258 SWAP1 PUSH1 0x20 ADD PUSH2 0x10DE JUMP JUMPDEST PUSH2 0x1A21 PUSH2 0x369B JUMP JUMPDEST PUSH0 PUSH1 0xF DUP1 SLOAD PUSH2 0x1A2F SWAP1 PUSH2 0x485D JUMP JUMPDEST DUP1 PUSH1 0x1F ADD PUSH1 0x20 DUP1 SWAP2 DIV MUL PUSH1 0x20 ADD PUSH1 0x40 MLOAD SWAP1 DUP2 ADD PUSH1 0x40 MSTORE DUP1 SWAP3 SWAP2 SWAP1 DUP2 DUP2 MSTORE PUSH1 0x20 ADD DUP3 DUP1 SLOAD PUSH2 0x1A5B SWAP1 PUSH2 0x485D JUMP JUMPDEST DUP1 ISZERO PUSH2 0x1AA6 JUMPI DUP1 PUSH1 0x1F LT PUSH2 0x1A7D JUMPI PUSH2 0x100 DUP1 DUP4 SLOAD DIV MUL DUP4 MSTORE SWAP2 PUSH1 0x20 ADD SWAP2 PUSH2 0x1AA6 JUMP JUMPDEST DUP3 ADD SWAP2 SWAP1 PUSH0 MSTORE PUSH1 0x20 PUSH0 KECCAK256 SWAP1 JUMPDEST DUP2 SLOAD DUP2 MSTORE SWAP1 PUSH1 0x1 ADD SWAP1 PUSH1 0x20 ADD DUP1 DUP4 GT PUSH2 0x1A89 JUMPI DUP3 SWAP1 SUB PUSH1 0x1F AND DUP3 ADD SWAP2 JUMPDEST POP POP POP POP POP SWAP1 POP DUP2 PUSH1 0xF SWAP1 DUP2 PUSH2 0x1ABC SWAP2 SWAP1 PUSH2 0x4A1C JUMP JUMPDEST POP PUSH32 0x2EE34AE5B6960446904225AE73ADF4BF8345CF5B36AE0FAC7E925C4F2912C198 DUP2 DUP4 PUSH1 0x40 MLOAD PUSH2 0x1AEE SWAP3 SWAP2 SWAP1 PUSH2 0x4B34 JUMP JUMPDEST PUSH1 0x40 MLOAD DUP1 SWAP2 SUB SWAP1 LOG1 POP POP JUMP JUMPDEST PUSH2 0x1B02 PUSH2 0x369B JUMP JUMPDEST PUSH2 0x1B0A PUSH2 0x3658 JUMP JUMPDEST PUSH1 0x1 PUSH1 0x1 PUSH1 0xA0 SHL SUB DUP3 AND PUSH2 0x1B58 JUMPI PUSH1 0x40 MLOAD PUSH3 0x461BCD PUSH1 0xE5 SHL DUP2 MSTORE PUSH1 0x20 PUSH1 0x4 DUP3 ADD MSTORE PUSH1 0x15 PUSH1 0x24 DUP3 ADD MSTORE PUSH21 0x496E76616C696420746F6B656E2061646472657373 PUSH1 0x58 SHL PUSH1 0x44 DUP3 ADD MSTORE PUSH1 0x64 ADD PUSH2 0xA77 JUMP JUMPDEST ADDRESS PUSH1 0x1 PUSH1 0x1 PUSH1 0xA0 SHL SUB DUP4 AND SUB PUSH2 0x1BAC JUMPI PUSH1 0x40 MLOAD PUSH3 0x461BCD PUSH1 0xE5 SHL DUP2 MSTORE PUSH1 0x20 PUSH1 0x4 DUP3 ADD MSTORE PUSH1 0x19 PUSH1 0x24 DUP3 ADD MSTORE PUSH25 0x43616E6E6F74207265636F766572206F776E20746F6B656E73 PUSH1 0x38 SHL PUSH1 0x44 DUP3 ADD MSTORE PUSH1 0x64 ADD PUSH2 0xA77 JUMP JUMPDEST PUSH1 0x40 MLOAD PUSH4 0x70A08231 PUSH1 0xE0 SHL DUP2 MSTORE ADDRESS PUSH1 0x4 DUP3 ADD MSTORE DUP3 SWAP1 PUSH0 SWAP1 PUSH1 0x1 PUSH1 0x1 PUSH1 0xA0 SHL SUB DUP4 AND SWAP1 PUSH4 0x70A08231 SWAP1 PUSH1 0x24 ADD PUSH1 0x20 PUSH1 0x40 MLOAD DUP1 DUP4 SUB DUP2 DUP7 GAS STATICCALL ISZERO DUP1 ISZERO PUSH2 0x1BF2 JUMPI RETURNDATASIZE PUSH0 DUP1 RETURNDATACOPY RETURNDATASIZE PUSH0 REVERT JUMPDEST POP POP POP POP PUSH1 0x40 MLOAD RETURNDATASIZE PUSH1 0x1F NOT PUSH1 0x1F DUP3 ADD AND DUP3 ADD DUP1 PUSH1 0x40 MSTORE POP DUP2 ADD SWAP1 PUSH2 0x1C16 SWAP2 SWAP1 PUSH2 0x4B58 JUMP JUMPDEST SWAP1 POP PUSH0 DUP2 GT PUSH2 0x1C5E JUMPI PUSH1 0x40 MLOAD PUSH3 0x461BCD PUSH1 0xE5 SHL DUP2 MSTORE PUSH1 0x20 PUSH1 0x4 DUP3 ADD MSTORE PUSH1 0x14 PUSH1 0x24 DUP3 ADD MSTORE PUSH20 0x2737903A37B5B2B739903A37903932B1B7BB32B9 PUSH1 0x61 SHL PUSH1 0x44 DUP3 ADD MSTORE PUSH1 0x64 ADD PUSH2 0xA77 JUMP JUMPDEST PUSH0 DUP4 ISZERO PUSH2 0x1C6B JUMPI DUP4 PUSH2 0x1C6D JUMP JUMPDEST DUP2 JUMPDEST SWAP1 POP DUP2 DUP2 GT ISZERO PUSH2 0x1CBF JUMPI PUSH1 0x40 MLOAD PUSH3 0x461BCD PUSH1 0xE5 SHL DUP2 MSTORE PUSH1 0x20 PUSH1 0x4 DUP3 ADD MSTORE PUSH1 0x1A PUSH1 0x24 DUP3 ADD MSTORE PUSH32 0x496E73756666696369656E7420746F6B656E2062616C616E6365000000000000 PUSH1 0x44 DUP3 ADD MSTORE PUSH1 0x64 ADD PUSH2 0xA77 JUMP JUMPDEST PUSH2 0x1CE5 PUSH2 0x1CD4 PUSH1 0xA SLOAD PUSH1 0x1 PUSH1 0x1 PUSH1 0xA0 SHL SUB AND SWAP1 JUMP JUMPDEST PUSH1 0x1 PUSH1 0x1 PUSH1 0xA0 SHL SUB DUP6 AND SWAP1 DUP4 PUSH2 0x372C JUMP JUMPDEST PUSH1 0xA SLOAD PUSH1 0x1 PUSH1 0x1 PUSH1 0xA0 SHL SUB AND PUSH1 0x1 PUSH1 0x1 PUSH1 0xA0 SHL SUB AND DUP6 PUSH1 0x1 PUSH1 0x1 PUSH1 0xA0 SHL SUB AND PUSH32 0xACA8FB252CDE442184E5F10E0F2E6E4029E8CD7717CAE63559079610702436AA DUP4 PUSH1 0x40 MLOAD PUSH2 0x1D35 SWAP2 DUP2 MSTORE PUSH1 0x20 ADD SWAP1 JUMP JUMPDEST PUSH1 0x40 MLOAD DUP1 SWAP2 SUB SWAP1 LOG3 POP POP POP PUSH2 0x19AD PUSH1 0x1 PUSH1 0xB SSTORE JUMP JUMPDEST PUSH2 0x1D52 PUSH2 0x369B JUMP JUMPDEST PUSH2 0x1D5B DUP2 PUSH2 0x36C8 JUMP JUMPDEST PUSH2 0x1D77 JUMPI PUSH1 0x40 MLOAD PUSH3 0x461BCD PUSH1 0xE5 SHL DUP2 MSTORE PUSH1 0x4 ADD PUSH2 0xA77 SWAP1 PUSH2 0x4AEB JUMP JUMPDEST PUSH0 DUP2 DUP2 MSTORE PUSH1 0x13 PUSH1 0x20 MSTORE PUSH1 0x40 SWAP1 KECCAK256 SLOAD PUSH1 0xFF AND PUSH2 0x1DC8 JUMPI PUSH1 0x40 MLOAD PUSH3 0x461BCD PUSH1 0xE5 SHL DUP2 MSTORE PUSH1 0x20 PUSH1 0x4 DUP3 ADD MSTORE PUSH1 0x11 PUSH1 0x24 DUP3 ADD MSTORE PUSH17 0x151BDAD95B881B9BDD08199B1859D9D959 PUSH1 0x7A SHL PUSH1 0x44 DUP3 ADD MSTORE PUSH1 0x64 ADD PUSH2 0xA77 JUMP JUMPDEST PUSH0 DUP2 DUP2 MSTORE PUSH1 0x13 PUSH1 0x20 MSTORE PUSH1 0x40 DUP1 DUP3 KECCAK256 DUP1 SLOAD PUSH1 0xFF NOT AND SWAP1 SSTORE MLOAD CALLER SWAP2 DUP4 SWAP2 PUSH32 0xF1E0DB905FF53ED7FC5723586C8C1B01C3946B8D863532B99CF2CA2BDF0A698A SWAP2 SWAP1 LOG3 POP JUMP JUMPDEST PUSH2 0x1E12 PUSH2 0x369B JUMP JUMPDEST PUSH0 DUP2 MLOAD GT PUSH2 0x1E62 JUMPI PUSH1 0x40 MLOAD PUSH3 0x461BCD PUSH1 0xE5 SHL DUP2 MSTORE PUSH1 0x20 PUSH1 0x4 DUP3 ADD MSTORE PUSH1 0x1E PUSH1 0x24 DUP3 ADD MSTORE PUSH32 0x4261736520696D616765205552492063616E6E6F7420626520656D7074790000 PUSH1 0x44 DUP3 ADD MSTORE PUSH1 0x64 ADD PUSH2 0xA77 JUMP JUMPDEST PUSH0 PUSH1 0xE DUP1 SLOAD PUSH2 0x1E70 SWAP1 PUSH2 0x485D JUMP JUMPDEST DUP1 PUSH1 0x1F ADD PUSH1 0x20 DUP1 SWAP2 DIV MUL PUSH1 0x20 ADD PUSH1 0x40 MLOAD SWAP1 DUP2 ADD PUSH1 0x40 MSTORE DUP1 SWAP3 SWAP2 SWAP1 DUP2 DUP2 MSTORE PUSH1 0x20 ADD DUP3 DUP1 SLOAD PUSH2 0x1E9C SWAP1 PUSH2 0x485D JUMP JUMPDEST DUP1 ISZERO PUSH2 0x1EE7 JUMPI DUP1 PUSH1 0x1F LT PUSH2 0x1EBE JUMPI PUSH2 0x100 DUP1 DUP4 SLOAD DIV MUL DUP4 MSTORE SWAP2 PUSH1 0x20 ADD SWAP2 PUSH2 0x1EE7 JUMP JUMPDEST DUP3 ADD SWAP2 SWAP1 PUSH0 MSTORE PUSH1 0x20 PUSH0 KECCAK256 SWAP1 JUMPDEST DUP2 SLOAD DUP2 MSTORE SWAP1 PUSH1 0x1 ADD SWAP1 PUSH1 0x20 ADD DUP1 DUP4 GT PUSH2 0x1ECA JUMPI DUP3 SWAP1 SUB PUSH1 0x1F AND DUP3 ADD SWAP2 JUMPDEST POP POP POP POP POP SWAP1 POP DUP2 PUSH1 0xE SWAP1 DUP2 PUSH2 0x1EFD SWAP2 SWAP1 PUSH2 0x4A1C JUMP JUMPDEST POP PUSH32 0xE58B9E51BEF361BD74CE82DF23CF733F18E6A3D8EE4405F37C96AA6C058164D5 DUP2 DUP4 PUSH1 0x40 MLOAD PUSH2 0x1AEE SWAP3 SWAP2 SWAP1 PUSH2 0x4B34 JUMP JUMPDEST PUSH1 0x60 PUSH1 0x1 DUP1 SLOAD PUSH2 0x97D SWAP1 PUSH2 0x485D JUMP JUMPDEST PUSH2 0x2710 PUSH2 0x1F4A PUSH1 0x8 SLOAD SWAP1 JUMP JUMPDEST LT PUSH2 0x1F67 JUMPI PUSH1 0x40 MLOAD PUSH3 0x461BCD PUSH1 0xE5 SHL DUP2 MSTORE PUSH1 0x4 ADD PUSH2 0xA77 SWAP1 PUSH2 0x4895 JUMP JUMPDEST PUSH1 0xC SLOAD PUSH1 0xFF AND ISZERO PUSH2 0x1F8A JUMPI PUSH1 0x40 MLOAD PUSH3 0x461BCD PUSH1 0xE5 SHL DUP2 MSTORE PUSH1 0x4 ADD PUSH2 0xA77 SWAP1 PUSH2 0x48C1 JUMP JUMPDEST DUP1 PUSH2 0x1F99 PUSH4 0x1E13380 TIMESTAMP PUSH2 0x48FF JUMP JUMPDEST DUP2 GT ISZERO PUSH2 0x1FB8 JUMPI PUSH1 0x40 MLOAD PUSH3 0x461BCD PUSH1 0xE5 SHL DUP2 MSTORE PUSH1 0x4 ADD PUSH2 0xA77 SWAP1 PUSH2 0x4912 JUMP JUMPDEST PUSH2 0x1FC6 PUSH4 0x9660180 TIMESTAMP PUSH2 0x4949 JUMP JUMPDEST DUP2 LT ISZERO PUSH2 0x1FE5 JUMPI PUSH1 0x40 MLOAD PUSH3 0x461BCD PUSH1 0xE5 SHL DUP2 MSTORE PUSH1 0x4 ADD PUSH2 0xA77 SWAP1 PUSH2 0x495C JUMP JUMPDEST PUSH2 0x1FED PUSH2 0x3658 JUMP JUMPDEST CALLER PUSH0 SWAP1 DUP2 MSTORE PUSH1 0x15 PUSH1 0x20 MSTORE PUSH1 0x40 SWAP1 KECCAK256 SLOAD PUSH1 0xFF AND PUSH2 0x204B JUMPI PUSH1 0x40 MLOAD PUSH3 0x461BCD PUSH1 0xE5 SHL DUP2 MSTORE PUSH1 0x20 PUSH1 0x4 DUP3 ADD MSTORE PUSH1 0x1B PUSH1 0x24 DUP3 ADD MSTORE PUSH32 0x4E6F7420617574686F72697A656420746F207465616D206D696E740000000000 PUSH1 0x44 DUP3 ADD MSTORE PUSH1 0x64 ADD PUSH2 0xA77 JUMP JUMPDEST PUSH1 0x1 PUSH1 0x1 PUSH1 0xA0 SHL SUB DUP7 AND PUSH2 0x20A1 JUMPI PUSH1 0x40 MLOAD PUSH3 0x461BCD PUSH1 0xE5 SHL DUP2 MSTORE PUSH1 0x20 PUSH1 0x4 DUP3 ADD MSTORE PUSH1 0x1B PUSH1 0x24 DUP3 ADD MSTORE PUSH32 0x43616E6E6F74206D696E7420746F207A65726F20616464726573730000000000 PUSH1 0x44 DUP3 ADD MSTORE PUSH1 0x64 ADD PUSH2 0xA77 JUMP JUMPDEST PUSH0 DUP6 MLOAD GT PUSH2 0x20FD JUMPI PUSH1 0x40 MLOAD PUSH3 0x461BCD PUSH1 0xE5 SHL DUP2 MSTORE PUSH1 0x20 PUSH1 0x4 DUP3 ADD MSTORE PUSH1 0x23 PUSH1 0x24 DUP3 ADD MSTORE PUSH32 0x437573746F6D20696D61676520726571756972656420666F72207465616D206D PUSH1 0x44 DUP3 ADD MSTORE PUSH3 0x1A5B9D PUSH1 0xEA SHL PUSH1 0x64 DUP3 ADD MSTORE PUSH1 0x84 ADD PUSH2 0xA77 JUMP JUMPDEST PUSH0 DUP4 MLOAD GT PUSH2 0x211D JUMPI PUSH1 0x40 MLOAD PUSH3 0x461BCD PUSH1 0xE5 SHL DUP2 MSTORE PUSH1 0x4 ADD PUSH2 0xA77 SWAP1 PUSH2 0x4993 JUMP JUMPDEST PUSH1 0xD DUP1 SLOAD PUSH0 SWAP2 DUP3 PUSH2 0x212D DUP4 PUSH2 0x49C0 JUMP JUMPDEST SWAP1 SWAP2 SSTORE POP PUSH1 0x40 DUP1 MLOAD PUSH1 0xA0 DUP2 ADD DUP3 MSTORE DUP9 DUP2 MSTORE PUSH1 0x20 DUP1 DUP3 ADD DUP10 SWAP1 MSTORE DUP2 DUP4 ADD DUP9 SWAP1 MSTORE PUSH1 0x60 DUP3 ADD DUP8 SWAP1 MSTORE CALLER PUSH1 0x80 DUP4 ADD MSTORE PUSH0 DUP5 DUP2 MSTORE PUSH1 0x12 SWAP1 SWAP2 MSTORE SWAP2 SWAP1 SWAP2 KECCAK256 DUP2 MLOAD SWAP3 SWAP4 POP SWAP1 SWAP2 DUP2 SWAP1 PUSH2 0x2179 SWAP1 DUP3 PUSH2 0x4A1C JUMP JUMPDEST POP PUSH1 0x20 DUP3 ADD MLOAD PUSH1 0x1 DUP3 ADD SWAP1 PUSH2 0x218E SWAP1 DUP3 PUSH2 0x4A1C JUMP JUMPDEST POP PUSH1 0x40 DUP3 ADD MLOAD PUSH1 0x2 DUP3 ADD SWAP1 PUSH2 0x21A3 SWAP1 DUP3 PUSH2 0x4A1C JUMP JUMPDEST POP PUSH1 0x60 DUP3 ADD MLOAD PUSH1 0x3 DUP3 ADD SSTORE PUSH1 0x80 SWAP1 SWAP2 ADD MLOAD PUSH1 0x4 SWAP1 SWAP2 ADD DUP1 SLOAD PUSH1 0x1 PUSH1 0x1 PUSH1 0xA0 SHL SUB NOT AND PUSH1 0x1 PUSH1 0x1 PUSH1 0xA0 SHL SUB SWAP3 DUP4 AND OR SWAP1 SSTORE PUSH1 0x40 MLOAD DUP3 SWAP2 DUP10 AND SWAP1 PUSH32 0xE7CD4CE7F2A465EDC730269A1305E8A48BAD821E8FB7E152EC413829C01A53C4 SWAP1 PUSH2 0x2208 SWAP1 DUP9 SWAP1 PUSH2 0x422B JUMP JUMPDEST PUSH1 0x40 MLOAD DUP1 SWAP2 SUB SWAP1 LOG3 PUSH2 0x221A DUP8 DUP3 PUSH2 0x3682 JUMP JUMPDEST POP PUSH2 0x2225 PUSH1 0x1 PUSH1 0xB SSTORE JUMP JUMPDEST POP POP POP POP POP POP JUMP JUMPDEST PUSH2 0x2238 DUP5 DUP5 DUP5 PUSH2 0xA8F JUMP JUMPDEST PUSH2 0xB12 CALLER DUP6 DUP6 DUP6 DUP6 PUSH2 0x377E JUMP JUMPDEST PUSH2 0x224D PUSH2 0x369B JUMP JUMPDEST PUSH0 DUP2 MLOAD GT PUSH2 0x229D JUMPI PUSH1 0x40 MLOAD PUSH3 0x461BCD PUSH1 0xE5 SHL DUP2 MSTORE PUSH1 0x20 PUSH1 0x4 DUP3 ADD MSTORE PUSH1 0x1E PUSH1 0x24 DUP3 ADD MSTORE PUSH32 0x4E53465720696D616765205552492063616E6E6F7420626520656D7074790000 PUSH1 0x44 DUP3 ADD MSTORE PUSH1 0x64 ADD PUSH2 0xA77 JUMP JUMPDEST PUSH0 PUSH1 0x11 DUP1 SLOAD PUSH2 0x22AB SWAP1 PUSH2 0x485D JUMP JUMPDEST DUP1 PUSH1 0x1F ADD PUSH1 0x20 DUP1 SWAP2 DIV MUL PUSH1 0x20 ADD PUSH1 0x40 MLOAD SWAP1 DUP2 ADD PUSH1 0x40 MSTORE DUP1 SWAP3 SWAP2 SWAP1 DUP2 DUP2 MSTORE PUSH1 0x20 ADD DUP3 DUP1 SLOAD PUSH2 0x22D7 SWAP1 PUSH2 0x485D JUMP JUMPDEST DUP1 ISZERO PUSH2 0x2322 JUMPI DUP1 PUSH1 0x1F LT PUSH2 0x22F9 JUMPI PUSH2 0x100 DUP1 DUP4 SLOAD DIV MUL DUP4 MSTORE SWAP2 PUSH1 0x20 ADD SWAP2 PUSH2 0x2322 JUMP JUMPDEST DUP3 ADD SWAP2 SWAP1 PUSH0 MSTORE PUSH1 0x20 PUSH0 KECCAK256 SWAP1 JUMPDEST DUP2 SLOAD DUP2 MSTORE SWAP1 PUSH1 0x1 ADD SWAP1 PUSH1 0x20 ADD DUP1 DUP4 GT PUSH2 0x2305 JUMPI DUP3 SWAP1 SUB PUSH1 0x1F AND DUP3 ADD SWAP2 JUMPDEST POP POP POP POP POP SWAP1 POP DUP2 PUSH1 0x11 SWAP1 DUP2 PUSH2 0x2338 SWAP2 SWAP1 PUSH2 0x4A1C JUMP JUMPDEST POP PUSH32 0xF0F06EF0030199C7035F06C3952FA436EEA07D7CA8A105ECBB344E9E4B7AB925 DUP2 DUP4 PUSH1 0x40 MLOAD PUSH2 0x1AEE SWAP3 SWAP2 SWAP1 PUSH2 0x4B34 JUMP JUMPDEST PUSH2 0x2710 PUSH2 0x2376 PUSH1 0x8 SLOAD SWAP1 JUMP JUMPDEST LT PUSH2 0x2393 JUMPI PUSH1 0x40 MLOAD PUSH3 0x461BCD PUSH1 0xE5 SHL DUP2 MSTORE PUSH1 0x4 ADD PUSH2 0xA77 SWAP1 PUSH2 0x4895 JUMP JUMPDEST PUSH1 0xC SLOAD PUSH1 0xFF AND ISZERO PUSH2 0x23B6 JUMPI PUSH1 0x40 MLOAD PUSH3 0x461BCD PUSH1 0xE5 SHL DUP2 MSTORE PUSH1 0x4 ADD PUSH2 0xA77 SWAP1 PUSH2 0x48C1 JUMP JUMPDEST DUP1 PUSH2 0x23C5 PUSH4 0x1E13380 TIMESTAMP PUSH2 0x48FF JUMP JUMPDEST DUP2 GT ISZERO PUSH2 0x23E4 JUMPI PUSH1 0x40 MLOAD PUSH3 0x461BCD PUSH1 0xE5 SHL DUP2 MSTORE PUSH1 0x4 ADD PUSH2 0xA77 SWAP1 PUSH2 0x4912 JUMP JUMPDEST PUSH2 0x23F2 PUSH4 0x9660180 TIMESTAMP PUSH2 0x4949 JUMP JUMPDEST DUP2 LT ISZERO PUSH2 0x2411 JUMPI PUSH1 0x40 MLOAD PUSH3 0x461BCD PUSH1 0xE5 SHL DUP2 MSTORE PUSH1 0x4 ADD PUSH2 0xA77 SWAP1 PUSH2 0x495C JUMP JUMPDEST PUSH2 0x2419 PUSH2 0x3658 JUMP JUMPDEST CALLER PUSH0 SWAP1 DUP2 MSTORE PUSH1 0x15 PUSH1 0x20 MSTORE PUSH1 0x40 SWAP1 KECCAK256 SLOAD PUSH1 0xFF AND PUSH2 0x2477 JUMPI PUSH1 0x40 MLOAD PUSH3 0x461BCD PUSH1 0xE5 SHL DUP2 MSTORE PUSH1 0x20 PUSH1 0x4 DUP3 ADD MSTORE PUSH1 0x1B PUSH1 0x24 DUP3 ADD MSTORE PUSH32 0x4E6F7420617574686F72697A656420746F207465616D206D696E740000000000 PUSH1 0x44 DUP3 ADD MSTORE PUSH1 0x64 ADD PUSH2 0xA77 JUMP JUMPDEST DUP8 PUSH2 0x24BD JUMPI PUSH1 0x40 MLOAD PUSH3 0x461BCD PUSH1 0xE5 SHL DUP2 MSTORE PUSH1 0x20 PUSH1 0x4 DUP3 ADD MSTORE PUSH1 0x16 PUSH1 0x24 DUP3 ADD MSTORE PUSH22 0x139BC81C9958DA5C1A595B9D1CC81C1C9BDD9A591959 PUSH1 0x52 SHL PUSH1 0x44 DUP3 ADD MSTORE PUSH1 0x64 ADD PUSH2 0xA77 JUMP JUMPDEST PUSH1 0x64 DUP9 GT ISZERO PUSH2 0x2505 JUMPI PUSH1 0x40 MLOAD PUSH3 0x461BCD PUSH1 0xE5 SHL DUP2 MSTORE PUSH1 0x20 PUSH1 0x4 DUP3 ADD MSTORE PUSH1 0x14 PUSH1 0x24 DUP3 ADD MSTORE PUSH20 0x42617463682073697A6520746F6F206C61726765 PUSH1 0x60 SHL PUSH1 0x44 DUP3 ADD MSTORE PUSH1 0x64 ADD PUSH2 0xA77 JUMP JUMPDEST DUP8 DUP7 EQ PUSH2 0x255E JUMPI PUSH1 0x40 MLOAD PUSH3 0x461BCD PUSH1 0xE5 SHL DUP2 MSTORE PUSH1 0x20 PUSH1 0x4 DUP3 ADD MSTORE PUSH1 0x21 PUSH1 0x24 DUP3 ADD MSTORE PUSH32 0x526563697069656E74732F696D61676573206C656E677468206D69736D617463 PUSH1 0x44 DUP3 ADD MSTORE PUSH1 0xD PUSH1 0xFB SHL PUSH1 0x64 DUP3 ADD MSTORE PUSH1 0x84 ADD PUSH2 0xA77 JUMP JUMPDEST DUP8 DUP5 EQ PUSH2 0x25AD JUMPI PUSH1 0x40 MLOAD PUSH3 0x461BCD PUSH1 0xE5 SHL DUP2 MSTORE PUSH1 0x20 PUSH1 0x4 DUP3 ADD DUP2 SWAP1 MSTORE PUSH1 0x24 DUP3 ADD MSTORE PUSH32 0x526563697069656E74732F7465787473206C656E677468206D69736D61746368 PUSH1 0x44 DUP3 ADD MSTORE PUSH1 0x64 ADD PUSH2 0xA77 JUMP JUMPDEST PUSH2 0x2710 DUP9 PUSH2 0x25BA PUSH1 0x8 SLOAD SWAP1 JUMP JUMPDEST PUSH2 0x25C4 SWAP2 SWAP1 PUSH2 0x48FF JUMP JUMPDEST GT ISZERO PUSH2 0x2612 JUMPI PUSH1 0x40 MLOAD PUSH3 0x461BCD PUSH1 0xE5 SHL DUP2 MSTORE PUSH1 0x20 PUSH1 0x4 DUP3 ADD MSTORE PUSH1 0x1D PUSH1 0x24 DUP3 ADD MSTORE PUSH32 0x426174636820776F756C6420657863656564206D617820737570706C79000000 PUSH1 0x44 DUP3 ADD MSTORE PUSH1 0x64 ADD PUSH2 0xA77 JUMP JUMPDEST PUSH0 DUP4 MLOAD GT PUSH2 0x2632 JUMPI PUSH1 0x40 MLOAD PUSH3 0x461BCD PUSH1 0xE5 SHL DUP2 MSTORE PUSH1 0x4 ADD PUSH2 0xA77 SWAP1 PUSH2 0x4993 JUMP JUMPDEST PUSH0 DUP9 PUSH1 0x1 PUSH1 0x1 PUSH1 0x40 SHL SUB DUP2 GT ISZERO PUSH2 0x264B JUMPI PUSH2 0x264B PUSH2 0x42EB JUMP JUMPDEST PUSH1 0x40 MLOAD SWAP1 DUP1 DUP3 MSTORE DUP1 PUSH1 0x20 MUL PUSH1 0x20 ADD DUP3 ADD PUSH1 0x40 MSTORE DUP1 ISZERO PUSH2 0x2674 JUMPI DUP2 PUSH1 0x20 ADD PUSH1 0x20 DUP3 MUL DUP1 CALLDATASIZE DUP4 CALLDATACOPY ADD SWAP1 POP JUMPDEST POP SWAP1 POP PUSH0 JUMPDEST DUP10 DUP2 LT ISZERO PUSH2 0x295F JUMPI PUSH0 DUP12 DUP12 DUP4 DUP2 DUP2 LT PUSH2 0x2694 JUMPI PUSH2 0x2694 PUSH2 0x4AD7 JUMP JUMPDEST SWAP1 POP PUSH1 0x20 MUL ADD PUSH1 0x20 DUP2 ADD SWAP1 PUSH2 0x26A9 SWAP2 SWAP1 PUSH2 0x4292 JUMP JUMPDEST PUSH1 0x1 PUSH1 0x1 PUSH1 0xA0 SHL SUB AND SUB PUSH2 0x26FF JUMPI PUSH1 0x40 MLOAD PUSH3 0x461BCD PUSH1 0xE5 SHL DUP2 MSTORE PUSH1 0x20 PUSH1 0x4 DUP3 ADD MSTORE PUSH1 0x1B PUSH1 0x24 DUP3 ADD MSTORE PUSH32 0x43616E6E6F74206D696E7420746F207A65726F20616464726573730000000000 PUSH1 0x44 DUP3 ADD MSTORE PUSH1 0x64 ADD PUSH2 0xA77 JUMP JUMPDEST PUSH0 DUP10 DUP10 DUP4 DUP2 DUP2 LT PUSH2 0x2712 JUMPI PUSH2 0x2712 PUSH2 0x4AD7 JUMP JUMPDEST SWAP1 POP PUSH1 0x20 MUL DUP2 ADD SWAP1 PUSH2 0x2724 SWAP2 SWAP1 PUSH2 0x4B6F JUMP JUMPDEST SWAP1 POP GT PUSH2 0x276B JUMPI PUSH1 0x40 MLOAD PUSH3 0x461BCD PUSH1 0xE5 SHL DUP2 MSTORE PUSH1 0x20 PUSH1 0x4 DUP3 ADD MSTORE PUSH1 0x15 PUSH1 0x24 DUP3 ADD MSTORE PUSH21 0x10DD5CDD1BDB481A5B5859D9481C995C5D5A5C9959 PUSH1 0x5A SHL PUSH1 0x44 DUP3 ADD MSTORE PUSH1 0x64 ADD PUSH2 0xA77 JUMP JUMPDEST PUSH1 0xD DUP1 SLOAD PUSH0 SWAP2 DUP3 PUSH2 0x277B DUP4 PUSH2 0x49C0 JUMP JUMPDEST SWAP2 SWAP1 POP SSTORE SWAP1 POP DUP1 DUP4 DUP4 DUP2 MLOAD DUP2 LT PUSH2 0x2794 JUMPI PUSH2 0x2794 PUSH2 0x4AD7 JUMP JUMPDEST PUSH1 0x20 MUL PUSH1 0x20 ADD ADD DUP2 DUP2 MSTORE POP POP PUSH1 0x40 MLOAD DUP1 PUSH1 0xA0 ADD PUSH1 0x40 MSTORE DUP1 DUP12 DUP12 DUP6 DUP2 DUP2 LT PUSH2 0x27BD JUMPI PUSH2 0x27BD PUSH2 0x4AD7 JUMP JUMPDEST SWAP1 POP PUSH1 0x20 MUL DUP2 ADD SWAP1 PUSH2 0x27CF SWAP2 SWAP1 PUSH2 0x4B6F JUMP JUMPDEST DUP1 DUP1 PUSH1 0x1F ADD PUSH1 0x20 DUP1 SWAP2 DIV MUL PUSH1 0x20 ADD PUSH1 0x40 MLOAD SWAP1 DUP2 ADD PUSH1 0x40 MSTORE DUP1 SWAP4 SWAP3 SWAP2 SWAP1 DUP2 DUP2 MSTORE PUSH1 0x20 ADD DUP4 DUP4 DUP1 DUP3 DUP5 CALLDATACOPY PUSH0 SWAP3 ADD SWAP2 SWAP1 SWAP2 MSTORE POP POP POP SWAP1 DUP3 MSTORE POP PUSH1 0x20 ADD DUP10 DUP10 DUP6 DUP2 DUP2 LT PUSH2 0x281A JUMPI PUSH2 0x281A PUSH2 0x4AD7 JUMP JUMPDEST SWAP1 POP PUSH1 0x20 MUL DUP2 ADD SWAP1 PUSH2 0x282C SWAP2 SWAP1 PUSH2 0x4B6F JUMP JUMPDEST DUP1 DUP1 PUSH1 0x1F ADD PUSH1 0x20 DUP1 SWAP2 DIV MUL PUSH1 0x20 ADD PUSH1 0x40 MLOAD SWAP1 DUP2 ADD PUSH1 0x40 MSTORE DUP1 SWAP4 SWAP3 SWAP2 SWAP1 DUP2 DUP2 MSTORE PUSH1 0x20 ADD DUP4 DUP4 DUP1 DUP3 DUP5 CALLDATACOPY PUSH0 SWAP3 ADD DUP3 SWAP1 MSTORE POP SWAP4 DUP6 MSTORE POP POP POP PUSH1 0x20 DUP1 DUP4 ADD DUP11 SWAP1 MSTORE PUSH1 0x40 DUP1 DUP5 ADD DUP11 SWAP1 MSTORE CALLER PUSH1 0x60 SWAP1 SWAP5 ADD SWAP4 SWAP1 SWAP4 MSTORE DUP5 DUP3 MSTORE PUSH1 0x12 SWAP1 MSTORE KECCAK256 DUP2 MLOAD DUP2 SWAP1 PUSH2 0x2891 SWAP1 DUP3 PUSH2 0x4A1C JUMP JUMPDEST POP PUSH1 0x20 DUP3 ADD MLOAD PUSH1 0x1 DUP3 ADD SWAP1 PUSH2 0x28A6 SWAP1 DUP3 PUSH2 0x4A1C JUMP JUMPDEST POP PUSH1 0x40 DUP3 ADD MLOAD PUSH1 0x2 DUP3 ADD SWAP1 PUSH2 0x28BB SWAP1 DUP3 PUSH2 0x4A1C JUMP JUMPDEST POP PUSH1 0x60 DUP3 ADD MLOAD PUSH1 0x3 DUP3 ADD SSTORE PUSH1 0x80 SWAP1 SWAP2 ADD MLOAD PUSH1 0x4 SWAP1 SWAP2 ADD DUP1 SLOAD PUSH1 0x1 PUSH1 0x1 PUSH1 0xA0 SHL SUB NOT AND PUSH1 0x1 PUSH1 0x1 PUSH1 0xA0 SHL SUB SWAP1 SWAP3 AND SWAP2 SWAP1 SWAP2 OR SWAP1 SSTORE DUP1 DUP13 DUP13 DUP5 DUP2 DUP2 LT PUSH2 0x2901 JUMPI PUSH2 0x2901 PUSH2 0x4AD7 JUMP JUMPDEST SWAP1 POP PUSH1 0x20 MUL ADD PUSH1 0x20 DUP2 ADD SWAP1 PUSH2 0x2916 SWAP2 SWAP1 PUSH2 0x4292 JUMP JUMPDEST PUSH1 0x1 PUSH1 0x1 PUSH1 0xA0 SHL SUB AND PUSH32 0xE7CD4CE7F2A465EDC730269A1305E8A48BAD821E8FB7E152EC413829C01A53C4 DUP9 PUSH1 0x40 MLOAD PUSH2 0x294E SWAP2 SWAP1 PUSH2 0x422B JUMP JUMPDEST PUSH1 0x40 MLOAD DUP1 SWAP2 SUB SWAP1 LOG3 POP PUSH1 0x1 ADD PUSH2 0x2679 JUMP JUMPDEST POP PUSH0 JUMPDEST DUP10 DUP2 LT ISZERO PUSH2 0x29BB JUMPI PUSH2 0x29B3 DUP12 DUP12 DUP4 DUP2 DUP2 LT PUSH2 0x297F JUMPI PUSH2 0x297F PUSH2 0x4AD7 JUMP JUMPDEST SWAP1 POP PUSH1 0x20 MUL ADD PUSH1 0x20 DUP2 ADD SWAP1 PUSH2 0x2994 SWAP2 SWAP1 PUSH2 0x4292 JUMP JUMPDEST DUP4 DUP4 DUP2 MLOAD DUP2 LT PUSH2 0x29A6 JUMPI PUSH2 0x29A6 PUSH2 0x4AD7 JUMP JUMPDEST PUSH1 0x20 MUL PUSH1 0x20 ADD ADD MLOAD PUSH2 0x3682 JUMP JUMPDEST PUSH1 0x1 ADD PUSH2 0x2962 JUMP JUMPDEST POP CALLER PUSH1 0x1 PUSH1 0x1 PUSH1 0xA0 SHL SUB AND PUSH32 0x61E209D90C6AF70648744B363CA9FF9DED37D615F9A9F058D59ECD23F03685E3 DUP12 DUP12 DUP5 PUSH1 0x40 MLOAD PUSH2 0x29F9 SWAP4 SWAP3 SWAP2 SWAP1 PUSH2 0x4BB1 JUMP JUMPDEST PUSH1 0x40 MLOAD DUP1 SWAP2 SUB SWAP1 LOG2 POP PUSH2 0x2A0C PUSH1 0x1 PUSH1 0xB SSTORE JUMP JUMPDEST POP POP POP POP POP POP POP POP POP JUMP JUMPDEST PUSH1 0x60 PUSH2 0x2A22 DUP3 PUSH2 0x36C8 JUMP JUMPDEST PUSH2 0x2A3E JUMPI PUSH1 0x40 MLOAD PUSH3 0x461BCD PUSH1 0xE5 SHL DUP2 MSTORE PUSH1 0x4 ADD PUSH2 0xA77 SWAP1 PUSH2 0x4AEB JUMP JUMPDEST PUSH0 PUSH2 0x2A48 DUP4 PUSH2 0x1382 JUMP JUMPDEST PUSH1 0x1 PUSH1 0x1 PUSH1 0xA0 SHL SUB AND SUB PUSH2 0x2A91 JUMPI PUSH1 0x40 MLOAD PUSH3 0x461BCD PUSH1 0xE5 SHL DUP2 MSTORE PUSH1 0x20 PUSH1 0x4 DUP3 ADD MSTORE PUSH1 0x10 PUSH1 0x24 DUP3 ADD MSTORE PUSH16 0x151BDAD95B881DD85CC8189D5C9B9959 PUSH1 0x82 SHL PUSH1 0x44 DUP3 ADD MSTORE PUSH1 0x64 ADD PUSH2 0xA77 JUMP JUMPDEST PUSH0 DUP3 DUP2 MSTORE PUSH1 0x12 PUSH1 0x20 MSTORE PUSH1 0x40 DUP2 KECCAK256 SWAP1 PUSH2 0x2AA8 DUP5 PUSH2 0x1382 JUMP JUMPDEST SWAP1 POP PUSH0 PUSH2 0x2ABF DUP3 PUSH1 0x1 PUSH1 0x1 PUSH1 0xA0 SHL SUB AND PUSH1 0x14 PUSH2 0x389D JUMP JUMPDEST PUSH1 0x4 DUP5 ADD SLOAD SWAP1 SWAP2 POP PUSH0 SWAP1 PUSH2 0x2ADD SWAP1 PUSH1 0x1 PUSH1 0x1 PUSH1 0xA0 SHL SUB AND PUSH1 0x14 PUSH2 0x389D JUMP JUMPDEST PUSH0 DUP8 DUP2 MSTORE PUSH1 0x13 PUSH1 0x20 MSTORE PUSH1 0x40 SWAP1 KECCAK256 SLOAD SWAP1 SWAP2 POP PUSH1 0x60 SWAP1 PUSH1 0xFF AND ISZERO PUSH2 0x2B89 JUMPI PUSH1 0x11 DUP1 SLOAD PUSH2 0x2B06 SWAP1 PUSH2 0x485D JUMP JUMPDEST DUP1 PUSH1 0x1F ADD PUSH1 0x20 DUP1 SWAP2 DIV MUL PUSH1 0x20 ADD PUSH1 0x40 MLOAD SWAP1 DUP2 ADD PUSH1 0x40 MSTORE DUP1 SWAP3 SWAP2 SWAP1 DUP2 DUP2 MSTORE PUSH1 0x20 ADD DUP3 DUP1 SLOAD PUSH2 0x2B32 SWAP1 PUSH2 0x485D JUMP JUMPDEST DUP1 ISZERO PUSH2 0x2B7D JUMPI DUP1 PUSH1 0x1F LT PUSH2 0x2B54 JUMPI PUSH2 0x100 DUP1 DUP4 SLOAD DIV MUL DUP4 MSTORE SWAP2 PUSH1 0x20 ADD SWAP2 PUSH2 0x2B7D JUMP JUMPDEST DUP3 ADD SWAP2 SWAP1 PUSH0 MSTORE PUSH1 0x20 PUSH0 KECCAK256 SWAP1 JUMPDEST DUP2 SLOAD DUP2 MSTORE SWAP1 PUSH1 0x1 ADD SWAP1 PUSH1 0x20 ADD DUP1 DUP4 GT PUSH2 0x2B60 JUMPI DUP3 SWAP1 SUB PUSH1 0x1F AND DUP3 ADD SWAP2 JUMPDEST POP POP POP POP POP SWAP1 POP PUSH2 0x2C32 JUMP JUMPDEST PUSH0 DUP6 PUSH0 ADD DUP1 SLOAD PUSH2 0x2B98 SWAP1 PUSH2 0x485D JUMP JUMPDEST SWAP1 POP GT PUSH2 0x2BA6 JUMPI PUSH1 0xE PUSH2 0x2BA8 JUMP JUMPDEST DUP5 JUMPDEST DUP1 SLOAD PUSH2 0x2BB3 SWAP1 PUSH2 0x485D JUMP JUMPDEST DUP1 PUSH1 0x1F ADD PUSH1 0x20 DUP1 SWAP2 DIV MUL PUSH1 0x20 ADD PUSH1 0x40 MLOAD SWAP1 DUP2 ADD PUSH1 0x40 MSTORE DUP1 SWAP3 SWAP2 SWAP1 DUP2 DUP2 MSTORE PUSH1 0x20 ADD DUP3 DUP1 SLOAD PUSH2 0x2BDF SWAP1 PUSH2 0x485D JUMP JUMPDEST DUP1 ISZERO PUSH2 0x2C2A JUMPI DUP1 PUSH1 0x1F LT PUSH2 0x2C01 JUMPI PUSH2 0x100 DUP1 DUP4 SLOAD DIV MUL DUP4 MSTORE SWAP2 PUSH1 0x20 ADD SWAP2 PUSH2 0x2C2A JUMP JUMPDEST DUP3 ADD SWAP2 SWAP1 PUSH0 MSTORE PUSH1 0x20 PUSH0 KECCAK256 SWAP1 JUMPDEST DUP2 SLOAD DUP2 MSTORE SWAP1 PUSH1 0x1 ADD SWAP1 PUSH1 0x20 ADD DUP1 DUP4 GT PUSH2 0x2C0D JUMPI DUP3 SWAP1 SUB PUSH1 0x1F AND DUP3 ADD SWAP2 JUMPDEST POP POP POP POP POP SWAP1 POP JUMPDEST PUSH0 DUP8 DUP2 MSTORE PUSH1 0x13 PUSH1 0x20 MSTORE PUSH1 0x40 SWAP1 KECCAK256 SLOAD PUSH1 0x60 SWAP1 PUSH1 0xFF AND ISZERO PUSH2 0x2D4F JUMPI PUSH0 DUP7 PUSH1 0x1 ADD DUP1 SLOAD PUSH2 0x2C5B SWAP1 PUSH2 0x485D JUMP JUMPDEST SWAP1 POP GT PUSH2 0x2C9D JUMPI PUSH1 0x40 MLOAD DUP1 PUSH1 0x40 ADD PUSH1 0x40 MSTORE DUP1 PUSH1 0x18 DUP2 MSTORE PUSH1 0x20 ADD PUSH32 0x537570657246616E746173746963204576656E74204E46540000000000000000 DUP2 MSTORE POP PUSH2 0x2D29 JUMP JUMPDEST DUP6 PUSH1 0x1 ADD DUP1 SLOAD PUSH2 0x2CAC SWAP1 PUSH2 0x485D JUMP JUMPDEST DUP1 PUSH1 0x1F ADD PUSH1 0x20 DUP1 SWAP2 DIV MUL PUSH1 0x20 ADD PUSH1 0x40 MLOAD SWAP1 DUP2 ADD PUSH1 0x40 MSTORE DUP1 SWAP3 SWAP2 SWAP1 DUP2 DUP2 MSTORE PUSH1 0x20 ADD DUP3 DUP1 SLOAD PUSH2 0x2CD8 SWAP1 PUSH2 0x485D JUMP JUMPDEST DUP1 ISZERO PUSH2 0x2D23 JUMPI DUP1 PUSH1 0x1F LT PUSH2 0x2CFA JUMPI PUSH2 0x100 DUP1 DUP4 SLOAD DIV MUL DUP4 MSTORE SWAP2 PUSH1 0x20 ADD SWAP2 PUSH2 0x2D23 JUMP JUMPDEST DUP3 ADD SWAP2 SWAP1 PUSH0 MSTORE PUSH1 0x20 PUSH0 KECCAK256 SWAP1 JUMPDEST DUP2 SLOAD DUP2 MSTORE SWAP1 PUSH1 0x1 ADD SWAP1 PUSH1 0x20 ADD DUP1 DUP4 GT PUSH2 0x2D06 JUMPI DUP3 SWAP1 SUB PUSH1 0x1F AND DUP3 ADD SWAP2 JUMPDEST POP POP POP POP POP JUMPDEST PUSH1 0x40 MLOAD PUSH1 0x20 ADD PUSH2 0x2D39 SWAP2 SWAP1 PUSH2 0x4C3E JUMP JUMPDEST PUSH1 0x40 MLOAD PUSH1 0x20 DUP2 DUP4 SUB SUB DUP2 MSTORE SWAP1 PUSH1 0x40 MSTORE SWAP1 POP PUSH2 0x2E13 JUMP JUMPDEST PUSH0 DUP7 PUSH1 0x1 ADD DUP1 SLOAD PUSH2 0x2D5F SWAP1 PUSH2 0x485D JUMP JUMPDEST SWAP1 POP GT PUSH2 0x2D84 JUMPI PUSH1 0x40 MLOAD DUP1 PUSH1 0x80 ADD PUSH1 0x40 MSTORE DUP1 PUSH1 0x44 DUP2 MSTORE PUSH1 0x20 ADD PUSH2 0x5193 PUSH1 0x44 SWAP2 CODECOPY PUSH2 0x2E10 JUMP JUMPDEST DUP6 PUSH1 0x1 ADD DUP1 SLOAD PUSH2 0x2D93 SWAP1 PUSH2 0x485D JUMP JUMPDEST DUP1 PUSH1 0x1F ADD PUSH1 0x20 DUP1 SWAP2 DIV MUL PUSH1 0x20 ADD PUSH1 0x40 MLOAD SWAP1 DUP2 ADD PUSH1 0x40 MSTORE DUP1 SWAP3 SWAP2 SWAP1 DUP2 DUP2 MSTORE PUSH1 0x20 ADD DUP3 DUP1 SLOAD PUSH2 0x2DBF SWAP1 PUSH2 0x485D JUMP JUMPDEST DUP1 ISZERO PUSH2 0x2E0A JUMPI DUP1 PUSH1 0x1F LT PUSH2 0x2DE1 JUMPI PUSH2 0x100 DUP1 DUP4 SLOAD DIV MUL DUP4 MSTORE SWAP2 PUSH1 0x20 ADD SWAP2 PUSH2 0x2E0A JUMP JUMPDEST DUP3 ADD SWAP2 SWAP1 PUSH0 MSTORE PUSH1 0x20 PUSH0 KECCAK256 SWAP1 JUMPDEST DUP2 SLOAD DUP2 MSTORE SWAP1 PUSH1 0x1 ADD SWAP1 PUSH1 0x20 ADD DUP1 DUP4 GT PUSH2 0x2DED JUMPI DUP3 SWAP1 SUB PUSH1 0x1F AND DUP3 ADD SWAP2 JUMPDEST POP POP POP POP POP JUMPDEST SWAP1 POP JUMPDEST PUSH0 DUP5 DUP5 PUSH1 0x40 MLOAD PUSH1 0x20 ADD PUSH2 0x2E27 SWAP3 SWAP2 SWAP1 PUSH2 0x4C7E JUMP JUMPDEST PUSH1 0x40 MLOAD PUSH1 0x20 DUP2 DUP4 SUB SUB DUP2 MSTORE SWAP1 PUSH1 0x40 MSTORE SWAP1 POP PUSH0 DUP8 PUSH1 0x2 ADD DUP1 SLOAD PUSH2 0x2E48 SWAP1 PUSH2 0x485D JUMP JUMPDEST SWAP1 POP GT ISZERO PUSH2 0x2E78 JUMPI DUP1 DUP8 PUSH1 0x2 ADD PUSH1 0x40 MLOAD PUSH1 0x20 ADD PUSH2 0x2E66 SWAP3 SWAP2 SWAP1 PUSH2 0x4D8F JUMP JUMPDEST PUSH1 0x40 MLOAD PUSH1 0x20 DUP2 DUP4 SUB SUB DUP2 MSTORE SWAP1 PUSH1 0x40 MSTORE SWAP1 POP JUMPDEST PUSH1 0x3 DUP8 ADD SLOAD ISZERO PUSH2 0x2EB3 JUMPI DUP1 PUSH2 0x2E90 DUP9 PUSH1 0x3 ADD SLOAD PUSH2 0x3A16 JUMP JUMPDEST PUSH1 0x40 MLOAD PUSH1 0x20 ADD PUSH2 0x2EA1 SWAP3 SWAP2 SWAP1 PUSH2 0x4DE8 JUMP JUMPDEST PUSH1 0x40 MLOAD PUSH1 0x20 DUP2 DUP4 SUB SUB DUP2 MSTORE SWAP1 PUSH1 0x40 MSTORE SWAP1 POP JUMPDEST PUSH0 DUP8 PUSH0 ADD DUP1 SLOAD PUSH2 0x2EC2 SWAP1 PUSH2 0x485D JUMP JUMPDEST SWAP1 POP GT ISZERO PUSH2 0x2EED JUMPI DUP1 PUSH1 0x40 MLOAD PUSH1 0x20 ADD PUSH2 0x2EDB SWAP2 SWAP1 PUSH2 0x4E74 JUMP JUMPDEST PUSH1 0x40 MLOAD PUSH1 0x20 DUP2 DUP4 SUB SUB DUP2 MSTORE SWAP1 PUSH1 0x40 MSTORE SWAP1 POP JUMPDEST PUSH0 DUP10 DUP2 MSTORE PUSH1 0x13 PUSH1 0x20 MSTORE PUSH1 0x40 SWAP1 KECCAK256 SLOAD PUSH1 0xFF AND ISZERO PUSH2 0x2F26 JUMPI DUP1 PUSH1 0x40 MLOAD PUSH1 0x20 ADD PUSH2 0x2F14 SWAP2 SWAP1 PUSH2 0x4ECA JUMP JUMPDEST PUSH1 0x40 MLOAD PUSH1 0x20 DUP2 DUP4 SUB SUB DUP2 MSTORE SWAP1 PUSH1 0x40 MSTORE SWAP1 POP JUMPDEST PUSH0 PUSH2 0x2F30 DUP11 PUSH2 0x3A16 JUMP JUMPDEST PUSH1 0x40 MLOAD PUSH1 0x20 ADD PUSH2 0x2F40 SWAP2 SWAP1 PUSH2 0x4F1D JUMP JUMPDEST PUSH1 0x40 MLOAD PUSH1 0x20 DUP2 DUP4 SUB SUB DUP2 MSTORE SWAP1 PUSH1 0x40 MSTORE SWAP1 POP PUSH0 DUP9 PUSH1 0x2 ADD DUP1 SLOAD PUSH2 0x2F61 SWAP1 PUSH2 0x485D JUMP JUMPDEST SWAP1 POP GT ISZERO PUSH2 0x2F91 JUMPI DUP1 DUP9 PUSH1 0x2 ADD PUSH1 0x40 MLOAD PUSH1 0x20 ADD PUSH2 0x2F7F SWAP3 SWAP2 SWAP1 PUSH2 0x4F61 JUMP JUMPDEST PUSH1 0x40 MLOAD PUSH1 0x20 DUP2 DUP4 SUB SUB DUP2 MSTORE SWAP1 PUSH1 0x40 MSTORE SWAP1 POP JUMPDEST DUP1 DUP4 DUP6 PUSH1 0x40 MLOAD PUSH1 0x20 ADD PUSH2 0x2FA6 SWAP4 SWAP3 SWAP2 SWAP1 PUSH2 0x4F8C JUMP JUMPDEST PUSH1 0x40 MLOAD PUSH1 0x20 DUP2 DUP4 SUB SUB DUP2 MSTORE SWAP1 PUSH1 0x40 MSTORE SWAP1 POP PUSH0 PUSH1 0xF DUP1 SLOAD PUSH2 0x2FC5 SWAP1 PUSH2 0x485D JUMP JUMPDEST SWAP1 POP GT ISZERO PUSH2 0x2FF3 JUMPI DUP1 PUSH1 0xF PUSH1 0x40 MLOAD PUSH1 0x20 ADD PUSH2 0x2FE1 SWAP3 SWAP2 SWAP1 PUSH2 0x5012 JUMP JUMPDEST PUSH1 0x40 MLOAD PUSH1 0x20 DUP2 DUP4 SUB SUB DUP2 MSTORE SWAP1 PUSH1 0x40 MSTORE SWAP1 POP JUMPDEST DUP1 DUP3 PUSH1 0x40 MLOAD PUSH1 0x20 ADD PUSH2 0x3006 SWAP3 SWAP2 SWAP1 PUSH2 0x505F JUMP JUMPDEST PUSH1 0x40 MLOAD PUSH1 0x20 DUP2 DUP4 SUB SUB DUP2 MSTORE SWAP1 PUSH1 0x40 MSTORE SWAP1 POP DUP1 PUSH1 0x40 MLOAD PUSH1 0x20 ADD PUSH2 0x3028 SWAP2 SWAP1 PUSH2 0x50B7 JUMP JUMPDEST PUSH1 0x40 MLOAD PUSH1 0x20 DUP2 DUP4 SUB SUB DUP2 MSTORE SWAP1 PUSH1 0x40 MSTORE SWAP9 POP POP POP POP POP POP POP POP POP SWAP2 SWAP1 POP JUMP JUMPDEST PUSH2 0x304E PUSH2 0x369B JUMP JUMPDEST PUSH1 0x1 PUSH1 0x1 PUSH1 0xA0 SHL SUB DUP3 AND PUSH2 0x309D JUMPI PUSH1 0x40 MLOAD PUSH3 0x461BCD PUSH1 0xE5 SHL DUP2 MSTORE PUSH1 0x20 PUSH1 0x4 DUP3 ADD MSTORE PUSH1 0x16 PUSH1 0x24 DUP3 ADD MSTORE PUSH22 0x496E76616C6964206D696E7465722061646472657373 PUSH1 0x50 SHL PUSH1 0x44 DUP3 ADD MSTORE PUSH1 0x64 ADD PUSH2 0xA77 JUMP JUMPDEST PUSH1 0x1 PUSH1 0x1 PUSH1 0xA0 SHL SUB DUP3 AND PUSH0 DUP2 DUP2 MSTORE PUSH1 0x15 PUSH1 0x20 SWAP1 DUP2 MSTORE PUSH1 0x40 SWAP2 DUP3 SWAP1 KECCAK256 DUP1 SLOAD PUSH1 0xFF NOT AND DUP6 ISZERO ISZERO SWAP1 DUP2 OR SWAP1 SWAP2 SSTORE SWAP2 MLOAD SWAP2 DUP3 MSTORE PUSH32 0xF9627F2BCDE79EF556AFCE5415F83EF6707259E165EF7A36168320EFDBA2498 SWAP2 ADD PUSH2 0x104B JUMP JUMPDEST CALLER PUSH0 SWAP1 DUP2 MSTORE PUSH1 0x14 PUSH1 0x20 MSTORE PUSH1 0x40 SWAP1 KECCAK256 SLOAD PUSH1 0xFF AND PUSH2 0x3152 JUMPI PUSH1 0x40 MLOAD PUSH3 0x461BCD PUSH1 0xE5 SHL DUP2 MSTORE PUSH1 0x20 PUSH1 0x4 DUP3 ADD MSTORE PUSH1 0x1A PUSH1 0x24 DUP3 ADD MSTORE PUSH32 0x4E6F7420617574686F72697A656420746F206D6F646572617465000000000000 PUSH1 0x44 DUP3 ADD MSTORE PUSH1 0x64 ADD PUSH2 0xA77 JUMP JUMPDEST PUSH2 0x315B DUP3 PUSH2 0x36C8 JUMP JUMPDEST PUSH2 0x3177 JUMPI PUSH1 0x40 MLOAD PUSH3 0x461BCD PUSH1 0xE5 SHL DUP2 MSTORE PUSH1 0x4 ADD PUSH2 0xA77 SWAP1 PUSH2 0x4AEB JUMP JUMPDEST PUSH0 DUP3 DUP2 MSTORE PUSH1 0x13 PUSH1 0x20 MSTORE PUSH1 0x40 SWAP1 KECCAK256 SLOAD PUSH1 0xFF AND ISZERO PUSH2 0x31CD JUMPI PUSH1 0x40 MLOAD PUSH3 0x461BCD PUSH1 0xE5 SHL DUP2 MSTORE PUSH1 0x20 PUSH1 0x4 DUP3 ADD MSTORE PUSH1 0x15 PUSH1 0x24 DUP3 ADD MSTORE PUSH21 0x151BDAD95B88185B1C9958591E48199B1859D9D959 PUSH1 0x5A SHL PUSH1 0x44 DUP3 ADD MSTORE PUSH1 0x64 ADD PUSH2 0xA77 JUMP JUMPDEST PUSH0 DUP2 MLOAD GT PUSH2 0x320F JUMPI PUSH1 0x40 MLOAD PUSH3 0x461BCD PUSH1 0xE5 SHL DUP2 MSTORE PUSH1 0x20 PUSH1 0x4 DUP3 ADD MSTORE PUSH1 0xF PUSH1 0x24 DUP3 ADD MSTORE PUSH15 0x1499585CDBDB881C995C5D5A5C9959 PUSH1 0x8A SHL PUSH1 0x44 DUP3 ADD MSTORE PUSH1 0x64 ADD PUSH2 0xA77 JUMP JUMPDEST PUSH0 DUP3 DUP2 MSTORE PUSH1 0x13 PUSH1 0x20 MSTORE PUSH1 0x40 SWAP1 DUP2 SWAP1 KECCAK256 DUP1 SLOAD PUSH1 0xFF NOT AND PUSH1 0x1 OR SWAP1 SSTORE MLOAD CALLER SWAP1 DUP4 SWAP1 PUSH32 0x18BB2433EC38FD06537731AA25DE4215BAF5855B976FA955376C81088D9C5552 SWAP1 PUSH2 0x325B SWAP1 DUP6 SWAP1 PUSH2 0x422B JUMP JUMPDEST PUSH1 0x40 MLOAD DUP1 SWAP2 SUB SWAP1 LOG3 POP POP JUMP JUMPDEST PUSH1 0x1 PUSH1 0x1 PUSH1 0xA0 SHL SUB SWAP2 DUP3 AND PUSH0 SWAP1 DUP2 MSTORE PUSH1 0x5 PUSH1 0x20 SWAP1 DUP2 MSTORE PUSH1 0x40 DUP1 DUP4 KECCAK256 SWAP4 SWAP1 SWAP5 AND DUP3 MSTORE SWAP2 SWAP1 SWAP2 MSTORE KECCAK256 SLOAD PUSH1 0xFF AND SWAP1 JUMP JUMPDEST PUSH1 0x60 PUSH1 0xF DUP1 SLOAD PUSH2 0x97D SWAP1 PUSH2 0x485D JUMP JUMPDEST CALLER PUSH0 SWAP1 DUP2 MSTORE PUSH1 0x14 PUSH1 0x20 MSTORE PUSH1 0x40 SWAP1 KECCAK256 SLOAD PUSH1 0xFF AND PUSH2 0x3301 JUMPI PUSH1 0x40 MLOAD PUSH3 0x461BCD PUSH1 0xE5 SHL DUP2 MSTORE PUSH1 0x20 PUSH1 0x4 DUP3 ADD MSTORE PUSH1 0x1A PUSH1 0x24 DUP3 ADD MSTORE PUSH32 0x4E6F7420617574686F72697A656420746F206D6F646572617465000000000000 PUSH1 0x44 DUP3 ADD MSTORE PUSH1 0x64 ADD PUSH2 0xA77 JUMP JUMPDEST DUP2 PUSH2 0x3343 JUMPI PUSH1 0x40 MLOAD PUSH3 0x461BCD PUSH1 0xE5 SHL DUP2 MSTORE PUSH1 0x20 PUSH1 0x4 DUP3 ADD MSTORE PUSH1 0x12 PUSH1 0x24 DUP3 ADD MSTORE PUSH18 0x139BC81D1BDAD95B9CC81C1C9BDD9A591959 PUSH1 0x72 SHL PUSH1 0x44 DUP3 ADD MSTORE PUSH1 0x64 ADD PUSH2 0xA77 JUMP JUMPDEST PUSH1 0x32 DUP3 GT ISZERO PUSH2 0x3394 JUMPI PUSH1 0x40 MLOAD PUSH3 0x461BCD PUSH1 0xE5 SHL DUP2 MSTORE PUSH1 0x20 PUSH1 0x4 DUP3 ADD MSTORE PUSH1 0x1F PUSH1 0x24 DUP3 ADD MSTORE PUSH32 0x546F6F206D616E7920746F6B656E7320746F20666C6167206174206F6E636500 PUSH1 0x44 DUP3 ADD MSTORE PUSH1 0x64 ADD PUSH2 0xA77 JUMP JUMPDEST PUSH0 DUP2 MLOAD GT PUSH2 0x33D6 JUMPI PUSH1 0x40 MLOAD PUSH3 0x461BCD PUSH1 0xE5 SHL DUP2 MSTORE PUSH1 0x20 PUSH1 0x4 DUP3 ADD MSTORE PUSH1 0xF PUSH1 0x24 DUP3 ADD MSTORE PUSH15 0x1499585CDBDB881C995C5D5A5C9959 PUSH1 0x8A SHL PUSH1 0x44 DUP3 ADD MSTORE PUSH1 0x64 ADD PUSH2 0xA77 JUMP JUMPDEST PUSH0 JUMPDEST DUP3 DUP2 LT ISZERO PUSH2 0xB12 JUMPI PUSH2 0x3401 DUP5 DUP5 DUP4 DUP2 DUP2 LT PUSH2 0x33F5 JUMPI PUSH2 0x33F5 PUSH2 0x4AD7 JUMP JUMPDEST SWAP1 POP PUSH1 0x20 MUL ADD CALLDATALOAD PUSH2 0x36C8 JUMP JUMPDEST PUSH2 0x341D JUMPI PUSH1 0x40 MLOAD PUSH3 0x461BCD PUSH1 0xE5 SHL DUP2 MSTORE PUSH1 0x4 ADD PUSH2 0xA77 SWAP1 PUSH2 0x4AEB JUMP JUMPDEST PUSH1 0x13 PUSH0 DUP6 DUP6 DUP5 DUP2 DUP2 LT PUSH2 0x3432 JUMPI PUSH2 0x3432 PUSH2 0x4AD7 JUMP JUMPDEST PUSH1 0x20 SWAP1 DUP2 MUL SWAP3 SWAP1 SWAP3 ADD CALLDATALOAD DUP4 MSTORE POP DUP2 ADD SWAP2 SWAP1 SWAP2 MSTORE PUSH1 0x40 ADD PUSH0 KECCAK256 SLOAD PUSH1 0xFF AND PUSH2 0x34E2 JUMPI PUSH1 0x1 PUSH1 0x13 PUSH0 DUP7 DUP7 DUP6 DUP2 DUP2 LT PUSH2 0x3469 JUMPI PUSH2 0x3469 PUSH2 0x4AD7 JUMP JUMPDEST PUSH1 0x20 SWAP1 DUP2 MUL SWAP3 SWAP1 SWAP3 ADD CALLDATALOAD DUP4 MSTORE POP DUP2 ADD SWAP2 SWAP1 SWAP2 MSTORE PUSH1 0x40 ADD PUSH0 KECCAK256 DUP1 SLOAD PUSH1 0xFF NOT AND SWAP2 ISZERO ISZERO SWAP2 SWAP1 SWAP2 OR SWAP1 SSTORE CALLER DUP5 DUP5 DUP4 DUP2 DUP2 LT PUSH2 0x34A3 JUMPI PUSH2 0x34A3 PUSH2 0x4AD7 JUMP JUMPDEST SWAP1 POP PUSH1 0x20 MUL ADD CALLDATALOAD PUSH32 0x18BB2433EC38FD06537731AA25DE4215BAF5855B976FA955376C81088D9C5552 DUP5 PUSH1 0x40 MLOAD PUSH2 0x34D9 SWAP2 SWAP1 PUSH2 0x422B JUMP JUMPDEST PUSH1 0x40 MLOAD DUP1 SWAP2 SUB SWAP1 LOG3 JUMPDEST PUSH1 0x1 ADD PUSH2 0x33D8 JUMP JUMPDEST PUSH2 0x34F2 PUSH2 0x369B JUMP JUMPDEST PUSH1 0x1 PUSH1 0x1 PUSH1 0xA0 SHL SUB DUP2 AND PUSH2 0x351B JUMPI PUSH1 0x40 MLOAD PUSH4 0x1E4FBDF7 PUSH1 0xE0 SHL DUP2 MSTORE PUSH0 PUSH1 0x4 DUP3 ADD MSTORE PUSH1 0x24 ADD PUSH2 0xA77 JUMP JUMPDEST PUSH2 0x3524 DUP2 PUSH2 0x36DB JUMP JUMPDEST POP JUMP JUMPDEST PUSH2 0x352F PUSH2 0x369B JUMP JUMPDEST PUSH1 0x10 DUP1 SLOAD SWAP1 DUP3 SWAP1 SSTORE PUSH1 0x40 DUP1 MLOAD DUP3 DUP2 MSTORE PUSH1 0x20 DUP2 ADD DUP5 SWAP1 MSTORE PUSH32 0x2E1C9E000C6E8DDA4D03536ADB13B7CB6034CCFF90D17F01DE381E4D5097B525 SWAP2 ADD PUSH2 0x1AEE JUMP JUMPDEST PUSH0 PUSH1 0x1 PUSH1 0x1 PUSH1 0xE0 SHL SUB NOT DUP3 AND PUSH4 0x780E9D63 PUSH1 0xE0 SHL EQ DUP1 PUSH2 0x968 JUMPI POP PUSH2 0x968 DUP3 PUSH2 0x3AA5 JUMP JUMPDEST PUSH0 DUP2 DUP2 MSTORE PUSH1 0x2 PUSH1 0x20 MSTORE PUSH1 0x40 DUP2 KECCAK256 SLOAD PUSH1 0x1 PUSH1 0x1 PUSH1 0xA0 SHL SUB AND DUP1 PUSH2 0x968 JUMPI PUSH1 0x40 MLOAD PUSH4 0x7E273289 PUSH1 0xE0 SHL DUP2 MSTORE PUSH1 0x4 DUP2 ADD DUP5 SWAP1 MSTORE PUSH1 0x24 ADD PUSH2 0xA77 JUMP JUMPDEST PUSH0 DUP3 DUP2 MSTORE PUSH1 0x2 PUSH1 0x20 MSTORE PUSH1 0x40 DUP2 KECCAK256 SLOAD PUSH1 0x1 PUSH1 0x1 PUSH1 0xA0 SHL SUB AND DUP1 ISZERO DUP1 ISZERO SWAP1 PUSH2 0x35F7 JUMPI POP PUSH1 0x1 PUSH1 0x1 PUSH1 0xA0 SHL SUB DUP6 AND ISZERO ISZERO JUMPDEST ISZERO PUSH2 0x3644 JUMPI PUSH1 0x40 MLOAD PUSH3 0x461BCD PUSH1 0xE5 SHL DUP2 MSTORE PUSH1 0x20 PUSH1 0x4 DUP3 ADD MSTORE PUSH1 0x1D PUSH1 0x24 DUP3 ADD MSTORE PUSH32 0x536F756C626F756E643A207472616E73666572732064697361626C6564000000 PUSH1 0x44 DUP3 ADD MSTORE PUSH1 0x64 ADD PUSH2 0xA77 JUMP JUMPDEST PUSH2 0x364F DUP6 DUP6 DUP6 PUSH2 0x3AF4 JUMP JUMPDEST SWAP6 SWAP5 POP POP POP POP POP JUMP JUMPDEST PUSH1 0x2 PUSH1 0xB SLOAD SUB PUSH2 0x367B JUMPI PUSH1 0x40 MLOAD PUSH4 0x3EE5AEB5 PUSH1 0xE0 SHL DUP2 MSTORE PUSH1 0x4 ADD PUSH1 0x40 MLOAD DUP1 SWAP2 SUB SWAP1 REVERT JUMPDEST PUSH1 0x2 PUSH1 0xB SSTORE JUMP JUMPDEST PUSH2 0x19AD DUP3 DUP3 PUSH1 0x40 MLOAD DUP1 PUSH1 0x20 ADD PUSH1 0x40 MSTORE DUP1 PUSH0 DUP2 MSTORE POP PUSH2 0x3BBF JUMP JUMPDEST PUSH1 0xA SLOAD PUSH1 0x1 PUSH1 0x1 PUSH1 0xA0 SHL SUB AND CALLER EQ PUSH2 0xF98 JUMPI PUSH1 0x40 MLOAD PUSH4 0x118CDAA7 PUSH1 0xE0 SHL DUP2 MSTORE CALLER PUSH1 0x4 DUP3 ADD MSTORE PUSH1 0x24 ADD PUSH2 0xA77 JUMP JUMPDEST PUSH0 DUP1 DUP3 GT DUP1 ISZERO PUSH2 0x968 JUMPI POP POP PUSH1 0xD SLOAD GT SWAP1 JUMP JUMPDEST PUSH1 0xA DUP1 SLOAD PUSH1 0x1 PUSH1 0x1 PUSH1 0xA0 SHL SUB DUP4 DUP2 AND PUSH1 0x1 PUSH1 0x1 PUSH1 0xA0 SHL SUB NOT DUP4 AND DUP2 OR SWAP1 SWAP4 SSTORE PUSH1 0x40 MLOAD SWAP2 AND SWAP2 SWAP1 DUP3 SWAP1 PUSH32 0x8BE0079C531659141344CD1FD0A4F28419497F9722A3DAAFE3B4186F6B6457E0 SWAP1 PUSH0 SWAP1 LOG3 POP POP JUMP JUMPDEST PUSH1 0x40 DUP1 MLOAD PUSH1 0x1 PUSH1 0x1 PUSH1 0xA0 SHL SUB DUP5 AND PUSH1 0x24 DUP3 ADD MSTORE PUSH1 0x44 DUP1 DUP3 ADD DUP5 SWAP1 MSTORE DUP3 MLOAD DUP1 DUP4 SUB SWAP1 SWAP2 ADD DUP2 MSTORE PUSH1 0x64 SWAP1 SWAP2 ADD SWAP1 SWAP2 MSTORE PUSH1 0x20 DUP2 ADD DUP1 MLOAD PUSH1 0x1 PUSH1 0x1 PUSH1 0xE0 SHL SUB AND PUSH4 0xA9059CBB PUSH1 0xE0 SHL OR SWAP1 MSTORE PUSH2 0x1102 SWAP1 DUP5 SWAP1 PUSH2 0x3BD6 JUMP JUMPDEST PUSH1 0x1 PUSH1 0x1 PUSH1 0xA0 SHL SUB DUP4 AND EXTCODESIZE ISZERO PUSH2 0xE3E JUMPI PUSH1 0x40 MLOAD PUSH4 0xA85BD01 PUSH1 0xE1 SHL DUP2 MSTORE PUSH1 0x1 PUSH1 0x1 PUSH1 0xA0 SHL SUB DUP5 AND SWAP1 PUSH4 0x150B7A02 SWAP1 PUSH2 0x37C0 SWAP1 DUP9 SWAP1 DUP9 SWAP1 DUP8 SWAP1 DUP8 SWAP1 PUSH1 0x4 ADD PUSH2 0x50FB JUMP JUMPDEST PUSH1 0x20 PUSH1 0x40 MLOAD DUP1 DUP4 SUB DUP2 PUSH0 DUP8 GAS CALL SWAP3 POP POP POP DUP1 ISZERO PUSH2 0x37FA JUMPI POP PUSH1 0x40 DUP1 MLOAD PUSH1 0x1F RETURNDATASIZE SWAP1 DUP2 ADD PUSH1 0x1F NOT AND DUP3 ADD SWAP1 SWAP3 MSTORE PUSH2 0x37F7 SWAP2 DUP2 ADD SWAP1 PUSH2 0x5137 JUMP JUMPDEST PUSH1 0x1 JUMPDEST PUSH2 0x3861 JUMPI RETURNDATASIZE DUP1 DUP1 ISZERO PUSH2 0x3827 JUMPI PUSH1 0x40 MLOAD SWAP2 POP PUSH1 0x1F NOT PUSH1 0x3F RETURNDATASIZE ADD AND DUP3 ADD PUSH1 0x40 MSTORE RETURNDATASIZE DUP3 MSTORE RETURNDATASIZE PUSH0 PUSH1 0x20 DUP5 ADD RETURNDATACOPY PUSH2 0x382C JUMP JUMPDEST PUSH1 0x60 SWAP2 POP JUMPDEST POP DUP1 MLOAD PUSH0 SUB PUSH2 0x3859 JUMPI PUSH1 0x40 MLOAD PUSH4 0x32505749 PUSH1 0xE1 SHL DUP2 MSTORE PUSH1 0x1 PUSH1 0x1 PUSH1 0xA0 SHL SUB DUP6 AND PUSH1 0x4 DUP3 ADD MSTORE PUSH1 0x24 ADD PUSH2 0xA77 JUMP JUMPDEST DUP1 MLOAD PUSH1 0x20 DUP3 ADD REVERT JUMPDEST PUSH1 0x1 PUSH1 0x1 PUSH1 0xE0 SHL SUB NOT DUP2 AND PUSH4 0xA85BD01 PUSH1 0xE1 SHL EQ PUSH2 0x2225 JUMPI PUSH1 0x40 MLOAD PUSH4 0x32505749 PUSH1 0xE1 SHL DUP2 MSTORE PUSH1 0x1 PUSH1 0x1 PUSH1 0xA0 SHL SUB DUP6 AND PUSH1 0x4 DUP3 ADD MSTORE PUSH1 0x24 ADD PUSH2 0xA77 JUMP JUMPDEST PUSH1 0x60 DUP3 PUSH0 PUSH2 0x38AC DUP5 PUSH1 0x2 PUSH2 0x5152 JUMP JUMPDEST PUSH2 0x38B7 SWAP1 PUSH1 0x2 PUSH2 0x48FF JUMP JUMPDEST PUSH1 0x1 PUSH1 0x1 PUSH1 0x40 SHL SUB DUP2 GT ISZERO PUSH2 0x38CE JUMPI PUSH2 0x38CE PUSH2 0x42EB JUMP JUMPDEST PUSH1 0x40 MLOAD SWAP1 DUP1 DUP3 MSTORE DUP1 PUSH1 0x1F ADD PUSH1 0x1F NOT AND PUSH1 0x20 ADD DUP3 ADD PUSH1 0x40 MSTORE DUP1 ISZERO PUSH2 0x38F8 JUMPI PUSH1 0x20 DUP3 ADD DUP2 DUP1 CALLDATASIZE DUP4 CALLDATACOPY ADD SWAP1 POP JUMPDEST POP SWAP1 POP PUSH1 0x3 PUSH1 0xFC SHL DUP2 PUSH0 DUP2 MLOAD DUP2 LT PUSH2 0x3912 JUMPI PUSH2 0x3912 PUSH2 0x4AD7 JUMP JUMPDEST PUSH1 0x20 ADD ADD SWAP1 PUSH1 0x1 PUSH1 0x1 PUSH1 0xF8 SHL SUB NOT AND SWAP1 DUP2 PUSH0 BYTE SWAP1 MSTORE8 POP PUSH1 0xF PUSH1 0xFB SHL DUP2 PUSH1 0x1 DUP2 MLOAD DUP2 LT PUSH2 0x3940 JUMPI PUSH2 0x3940 PUSH2 0x4AD7 JUMP JUMPDEST PUSH1 0x20 ADD ADD SWAP1 PUSH1 0x1 PUSH1 0x1 PUSH1 0xF8 SHL SUB NOT AND SWAP1 DUP2 PUSH0 BYTE SWAP1 MSTORE8 POP PUSH0 PUSH2 0x3962 DUP6 PUSH1 0x2 PUSH2 0x5152 JUMP JUMPDEST PUSH2 0x396D SWAP1 PUSH1 0x1 PUSH2 0x48FF JUMP JUMPDEST SWAP1 POP JUMPDEST PUSH1 0x1 DUP2 GT ISZERO PUSH2 0x39E4 JUMPI PUSH16 0x181899199A1A9B1B9C1CB0B131B232B3 PUSH1 0x81 SHL DUP4 PUSH1 0xF AND PUSH1 0x10 DUP2 LT PUSH2 0x39A1 JUMPI PUSH2 0x39A1 PUSH2 0x4AD7 JUMP JUMPDEST BYTE PUSH1 0xF8 SHL DUP3 DUP3 DUP2 MLOAD DUP2 LT PUSH2 0x39B7 JUMPI PUSH2 0x39B7 PUSH2 0x4AD7 JUMP JUMPDEST PUSH1 0x20 ADD ADD SWAP1 PUSH1 0x1 PUSH1 0x1 PUSH1 0xF8 SHL SUB NOT AND SWAP1 DUP2 PUSH0 BYTE SWAP1 MSTORE8 POP PUSH1 0x4 SWAP3 SWAP1 SWAP3 SHR SWAP2 PUSH2 0x39DD DUP2 PUSH2 0x5169 JUMP JUMPDEST SWAP1 POP PUSH2 0x3970 JUMP JUMPDEST POP DUP2 ISZERO PUSH2 0x3A0E JUMPI PUSH1 0x40 MLOAD PUSH4 0xE22E27EB PUSH1 0xE0 SHL DUP2 MSTORE PUSH1 0x4 DUP2 ADD DUP7 SWAP1 MSTORE PUSH1 0x24 DUP2 ADD DUP6 SWAP1 MSTORE PUSH1 0x44 ADD PUSH2 0xA77 JUMP JUMPDEST SWAP5 SWAP4 POP POP POP POP JUMP JUMPDEST PUSH1 0x60 PUSH0 PUSH2 0x3A22 DUP4 PUSH2 0x3C42 JUMP JUMPDEST PUSH1 0x1 ADD SWAP1 POP PUSH0 DUP2 PUSH1 0x1 PUSH1 0x1 PUSH1 0x40 SHL SUB DUP2 GT ISZERO PUSH2 0x3A40 JUMPI PUSH2 0x3A40 PUSH2 0x42EB JUMP JUMPDEST PUSH1 0x40 MLOAD SWAP1 DUP1 DUP3 MSTORE DUP1 PUSH1 0x1F ADD PUSH1 0x1F NOT AND PUSH1 0x20 ADD DUP3 ADD PUSH1 0x40 MSTORE DUP1 ISZERO PUSH2 0x3A6A JUMPI PUSH1 0x20 DUP3 ADD DUP2 DUP1 CALLDATASIZE DUP4 CALLDATACOPY ADD SWAP1 POP JUMPDEST POP SWAP1 POP DUP2 DUP2 ADD PUSH1 0x20 ADD JUMPDEST PUSH0 NOT ADD PUSH16 0x181899199A1A9B1B9C1CB0B131B232B3 PUSH1 0x81 SHL PUSH1 0xA DUP7 MOD BYTE DUP2 MSTORE8 PUSH1 0xA DUP6 DIV SWAP5 POP DUP5 PUSH2 0x3A74 JUMPI POP SWAP4 SWAP3 POP POP POP JUMP JUMPDEST PUSH0 PUSH1 0x1 PUSH1 0x1 PUSH1 0xE0 SHL SUB NOT DUP3 AND PUSH4 0x80AC58CD PUSH1 0xE0 SHL EQ DUP1 PUSH2 0x3AD5 JUMPI POP PUSH1 0x1 PUSH1 0x1 PUSH1 0xE0 SHL SUB NOT DUP3 AND PUSH4 0x5B5E139F PUSH1 0xE0 SHL EQ JUMPDEST DUP1 PUSH2 0x968 JUMPI POP PUSH4 0x1FFC9A7 PUSH1 0xE0 SHL PUSH1 0x1 PUSH1 0x1 PUSH1 0xE0 SHL SUB NOT DUP4 AND EQ PUSH2 0x968 JUMP JUMPDEST PUSH0 DUP1 PUSH2 0x3B01 DUP6 DUP6 DUP6 PUSH2 0x3D19 JUMP JUMPDEST SWAP1 POP PUSH1 0x1 PUSH1 0x1 PUSH1 0xA0 SHL SUB DUP2 AND PUSH2 0x3B5D JUMPI PUSH2 0x3B58 DUP5 PUSH1 0x8 DUP1 SLOAD PUSH0 DUP4 DUP2 MSTORE PUSH1 0x9 PUSH1 0x20 MSTORE PUSH1 0x40 DUP2 KECCAK256 DUP3 SWAP1 SSTORE PUSH1 0x1 DUP3 ADD DUP4 SSTORE SWAP2 SWAP1 SWAP2 MSTORE PUSH32 0xF3F7A9FE364FAAB93B216DA50A3214154F22A0A2B415B23A84C8169E8B636EE3 ADD SSTORE JUMP JUMPDEST PUSH2 0x3B80 JUMP JUMPDEST DUP5 PUSH1 0x1 PUSH1 0x1 PUSH1 0xA0 SHL SUB AND DUP2 PUSH1 0x1 PUSH1 0x1 PUSH1 0xA0 SHL SUB AND EQ PUSH2 0x3B80 JUMPI PUSH2 0x3B80 DUP2 DUP6 PUSH2 0x3E0B JUMP JUMPDEST PUSH1 0x1 PUSH1 0x1 PUSH1 0xA0 SHL SUB DUP6 AND PUSH2 0x3B9C JUMPI PUSH2 0x3B97 DUP5 PUSH2 0x3E88 JUMP JUMPDEST PUSH2 0x3A0E JUMP JUMPDEST DUP5 PUSH1 0x1 PUSH1 0x1 PUSH1 0xA0 SHL SUB AND DUP2 PUSH1 0x1 PUSH1 0x1 PUSH1 0xA0 SHL SUB AND EQ PUSH2 0x3A0E JUMPI PUSH2 0x3A0E DUP6 DUP6 PUSH2 0x3F2F JUMP JUMPDEST PUSH2 0x3BC9 DUP4 DUP4 PUSH2 0x3F7D JUMP JUMPDEST PUSH2 0x1102 CALLER PUSH0 DUP6 DUP6 DUP6 PUSH2 0x377E JUMP JUMPDEST PUSH0 DUP1 PUSH1 0x20 PUSH0 DUP5 MLOAD PUSH1 0x20 DUP7 ADD PUSH0 DUP9 GAS CALL DUP1 PUSH2 0x3BF5 JUMPI PUSH1 0x40 MLOAD RETURNDATASIZE PUSH0 DUP3 RETURNDATACOPY RETURNDATASIZE DUP2 REVERT JUMPDEST POP POP PUSH0 MLOAD RETURNDATASIZE SWAP2 POP DUP2 ISZERO PUSH2 0x3C0C JUMPI DUP1 PUSH1 0x1 EQ ISZERO PUSH2 0x3C19 JUMP JUMPDEST PUSH1 0x1 PUSH1 0x1 PUSH1 0xA0 SHL SUB DUP5 AND EXTCODESIZE ISZERO JUMPDEST ISZERO PUSH2 0xB12 JUMPI PUSH1 0x40 MLOAD PUSH4 0x5274AFE7 PUSH1 0xE0 SHL DUP2 MSTORE PUSH1 0x1 PUSH1 0x1 PUSH1 0xA0 SHL SUB DUP6 AND PUSH1 0x4 DUP3 ADD MSTORE PUSH1 0x24 ADD PUSH2 0xA77 JUMP JUMPDEST PUSH0 DUP1 PUSH19 0x184F03E93FF9F4DAA797ED6E38ED64BF6A1F01 PUSH1 0x40 SHL DUP4 LT PUSH2 0x3C80 JUMPI PUSH19 0x184F03E93FF9F4DAA797ED6E38ED64BF6A1F01 PUSH1 0x40 SHL DUP4 DIV SWAP3 POP PUSH1 0x40 ADD JUMPDEST PUSH14 0x4EE2D6D415B85ACEF8100000000 DUP4 LT PUSH2 0x3CAC JUMPI PUSH14 0x4EE2D6D415B85ACEF8100000000 DUP4 DIV SWAP3 POP PUSH1 0x20 ADD JUMPDEST PUSH7 0x2386F26FC10000 DUP4 LT PUSH2 0x3CCA JUMPI PUSH7 0x2386F26FC10000 DUP4 DIV SWAP3 POP PUSH1 0x10 ADD JUMPDEST PUSH4 0x5F5E100 DUP4 LT PUSH2 0x3CE2 JUMPI PUSH4 0x5F5E100 DUP4 DIV SWAP3 POP PUSH1 0x8 ADD JUMPDEST PUSH2 0x2710 DUP4 LT PUSH2 0x3CF6 JUMPI PUSH2 0x2710 DUP4 DIV SWAP3 POP PUSH1 0x4 ADD JUMPDEST PUSH1 0x64 DUP4 LT PUSH2 0x3D08 JUMPI PUSH1 0x64 DUP4 DIV SWAP3 POP PUSH1 0x2 ADD JUMPDEST PUSH1 0xA DUP4 LT PUSH2 0x968 JUMPI PUSH1 0x1 ADD SWAP3 SWAP2 POP POP JUMP JUMPDEST PUSH0 DUP3 DUP2 MSTORE PUSH1 0x2 PUSH1 0x20 MSTORE PUSH1 0x40 DUP2 KECCAK256 SLOAD PUSH1 0x1 PUSH1 0x1 PUSH1 0xA0 SHL SUB SWAP1 DUP2 AND SWAP1 DUP4 AND ISZERO PUSH2 0x3D45 JUMPI PUSH2 0x3D45 DUP2 DUP5 DUP7 PUSH2 0x3FDE JUMP JUMPDEST PUSH1 0x1 PUSH1 0x1 PUSH1 0xA0 SHL SUB DUP2 AND ISZERO PUSH2 0x3D7F JUMPI PUSH2 0x3D60 PUSH0 DUP6 PUSH0 DUP1 PUSH2 0x4042 JUMP JUMPDEST PUSH1 0x1 PUSH1 0x1 PUSH1 0xA0 SHL SUB DUP2 AND PUSH0 SWAP1 DUP2 MSTORE PUSH1 0x3 PUSH1 0x20 MSTORE PUSH1 0x40 SWAP1 KECCAK256 DUP1 SLOAD PUSH0 NOT ADD SWAP1 SSTORE JUMPDEST PUSH1 0x1 PUSH1 0x1 PUSH1 0xA0 SHL SUB DUP6 AND ISZERO PUSH2 0x3DAD JUMPI PUSH1 0x1 PUSH1 0x1 PUSH1 0xA0 SHL SUB DUP6 AND PUSH0 SWAP1 DUP2 MSTORE PUSH1 0x3 PUSH1 0x20 MSTORE PUSH1 0x40 SWAP1 KECCAK256 DUP1 SLOAD PUSH1 0x1 ADD SWAP1 SSTORE JUMPDEST PUSH0 DUP5 DUP2 MSTORE PUSH1 0x2 PUSH1 0x20 MSTORE PUSH1 0x40 DUP1 DUP3 KECCAK256 DUP1 SLOAD PUSH1 0x1 PUSH1 0x1 PUSH1 0xA0 SHL SUB NOT AND PUSH1 0x1 PUSH1 0x1 PUSH1 0xA0 SHL SUB DUP10 DUP2 AND SWAP2 DUP3 OR SWAP1 SWAP3 SSTORE SWAP2 MLOAD DUP8 SWAP4 SWAP2 DUP6 AND SWAP2 PUSH32 0xDDF252AD1BE2C89B69C2B068FC378DAA952BA7F163C4A11628F55A4DF523B3EF SWAP2 LOG4 SWAP5 SWAP4 POP POP POP POP JUMP JUMPDEST PUSH0 PUSH2 0x3E15 DUP4 PUSH2 0x16F7 JUMP JUMPDEST PUSH0 DUP4 DUP2 MSTORE PUSH1 0x7 PUSH1 0x20 SWAP1 DUP2 MSTORE PUSH1 0x40 DUP1 DUP4 KECCAK256 SLOAD PUSH1 0x1 PUSH1 0x1 PUSH1 0xA0 SHL SUB DUP9 AND DUP5 MSTORE PUSH1 0x6 SWAP1 SWAP3 MSTORE SWAP1 SWAP2 KECCAK256 SWAP2 SWAP3 POP SWAP1 DUP2 DUP4 EQ PUSH2 0x3E6A JUMPI PUSH0 DUP4 DUP2 MSTORE PUSH1 0x20 DUP3 DUP2 MSTORE PUSH1 0x40 DUP1 DUP4 KECCAK256 SLOAD DUP6 DUP5 MSTORE DUP2 DUP5 KECCAK256 DUP2 SWAP1 SSTORE DUP4 MSTORE PUSH1 0x7 SWAP1 SWAP2 MSTORE SWAP1 KECCAK256 DUP3 SWAP1 SSTORE JUMPDEST PUSH0 SWAP4 DUP5 MSTORE PUSH1 0x7 PUSH1 0x20 SWAP1 DUP2 MSTORE PUSH1 0x40 DUP1 DUP7 KECCAK256 DUP7 SWAP1 SSTORE SWAP4 DUP6 MSTORE MSTORE POP DUP2 KECCAK256 SSTORE POP JUMP JUMPDEST PUSH1 0x8 SLOAD PUSH0 SWAP1 PUSH2 0x3E99 SWAP1 PUSH1 0x1 SWAP1 PUSH2 0x4949 JUMP JUMPDEST PUSH0 DUP4 DUP2 MSTORE PUSH1 0x9 PUSH1 0x20 MSTORE PUSH1 0x40 DUP2 KECCAK256 SLOAD PUSH1 0x8 DUP1 SLOAD SWAP4 SWAP5 POP SWAP1 SWAP3 DUP5 SWAP1 DUP2 LT PUSH2 0x3EC0 JUMPI PUSH2 0x3EC0 PUSH2 0x4AD7 JUMP JUMPDEST SWAP1 PUSH0 MSTORE PUSH1 0x20 PUSH0 KECCAK256 ADD SLOAD SWAP1 POP DUP1 PUSH1 0x8 DUP4 DUP2 SLOAD DUP2 LT PUSH2 0x3EDF JUMPI PUSH2 0x3EDF PUSH2 0x4AD7 JUMP JUMPDEST PUSH0 SWAP2 DUP3 MSTORE PUSH1 0x20 DUP1 DUP4 KECCAK256 SWAP1 SWAP2 ADD SWAP3 SWAP1 SWAP3 SSTORE DUP3 DUP2 MSTORE PUSH1 0x9 SWAP1 SWAP2 MSTORE PUSH1 0x40 DUP1 DUP3 KECCAK256 DUP5 SWAP1 SSTORE DUP6 DUP3 MSTORE DUP2 KECCAK256 SSTORE PUSH1 0x8 DUP1 SLOAD DUP1 PUSH2 0x3F16 JUMPI PUSH2 0x3F16 PUSH2 0x517E JUMP JUMPDEST PUSH1 0x1 SWAP1 SUB DUP2 DUP2 SWAP1 PUSH0 MSTORE PUSH1 0x20 PUSH0 KECCAK256 ADD PUSH0 SWAP1 SSTORE SWAP1 SSTORE POP POP POP POP JUMP JUMPDEST PUSH0 PUSH1 0x1 PUSH2 0x3F3B DUP5 PUSH2 0x16F7 JUMP JUMPDEST PUSH2 0x3F45 SWAP2 SWAP1 PUSH2 0x4949 JUMP JUMPDEST PUSH1 0x1 PUSH1 0x1 PUSH1 0xA0 SHL SUB SWAP1 SWAP4 AND PUSH0 SWAP1 DUP2 MSTORE PUSH1 0x6 PUSH1 0x20 SWAP1 DUP2 MSTORE PUSH1 0x40 DUP1 DUP4 KECCAK256 DUP7 DUP5 MSTORE DUP3 MSTORE DUP1 DUP4 KECCAK256 DUP6 SWAP1 SSTORE SWAP4 DUP3 MSTORE PUSH1 0x7 SWAP1 MSTORE SWAP2 SWAP1 SWAP2 KECCAK256 SWAP2 SWAP1 SWAP2 SSTORE POP JUMP JUMPDEST PUSH1 0x1 PUSH1 0x1 PUSH1 0xA0 SHL SUB DUP3 AND PUSH2 0x3FA6 JUMPI PUSH1 0x40 MLOAD PUSH4 0x32505749 PUSH1 0xE1 SHL DUP2 MSTORE PUSH0 PUSH1 0x4 DUP3 ADD MSTORE PUSH1 0x24 ADD PUSH2 0xA77 JUMP JUMPDEST PUSH0 PUSH2 0x3FB2 DUP4 DUP4 PUSH0 PUSH2 0x35C9 JUMP JUMPDEST SWAP1 POP PUSH1 0x1 PUSH1 0x1 PUSH1 0xA0 SHL SUB DUP2 AND ISZERO PUSH2 0x1102 JUMPI PUSH1 0x40 MLOAD PUSH4 0x39E35637 PUSH1 0xE1 SHL DUP2 MSTORE PUSH0 PUSH1 0x4 DUP3 ADD MSTORE PUSH1 0x24 ADD PUSH2 0xA77 JUMP JUMPDEST PUSH2 0x3FE9 DUP4 DUP4 DUP4 PUSH2 0x4146 JUMP JUMPDEST PUSH2 0x1102 JUMPI PUSH1 0x1 PUSH1 0x1 PUSH1 0xA0 SHL SUB DUP4 AND PUSH2 0x4017 JUMPI PUSH1 0x40 MLOAD PUSH4 0x7E273289 PUSH1 0xE0 SHL DUP2 MSTORE PUSH1 0x4 DUP2 ADD DUP3 SWAP1 MSTORE PUSH1 0x24 ADD PUSH2 0xA77 JUMP JUMPDEST PUSH1 0x40 MLOAD PUSH4 0x177E802F PUSH1 0xE0 SHL DUP2 MSTORE PUSH1 0x1 PUSH1 0x1 PUSH1 0xA0 SHL SUB DUP4 AND PUSH1 0x4 DUP3 ADD MSTORE PUSH1 0x24 DUP2 ADD DUP3 SWAP1 MSTORE PUSH1 0x44 ADD PUSH2 0xA77 JUMP JUMPDEST DUP1 DUP1 PUSH2 0x4056 JUMPI POP PUSH1 0x1 PUSH1 0x1 PUSH1 0xA0 SHL SUB DUP3 AND ISZERO ISZERO JUMPDEST ISZERO PUSH2 0x4117 JUMPI PUSH0 PUSH2 0x4065 DUP5 PUSH2 0x3591 JUMP JUMPDEST SWAP1 POP PUSH1 0x1 PUSH1 0x1 PUSH1 0xA0 SHL SUB DUP4 AND ISZERO DUP1 ISZERO SWAP1 PUSH2 0x4091 JUMPI POP DUP3 PUSH1 0x1 PUSH1 0x1 PUSH1 0xA0 SHL SUB AND DUP2 PUSH1 0x1 PUSH1 0x1 PUSH1 0xA0 SHL SUB AND EQ ISZERO JUMPDEST DUP1 ISZERO PUSH2 0x40A4 JUMPI POP PUSH2 0x40A2 DUP2 DUP5 PUSH2 0x3267 JUMP JUMPDEST ISZERO JUMPDEST ISZERO PUSH2 0x40CD JUMPI PUSH1 0x40 MLOAD PUSH4 0xA9FBF51F PUSH1 0xE0 SHL DUP2 MSTORE PUSH1 0x1 PUSH1 0x1 PUSH1 0xA0 SHL SUB DUP5 AND PUSH1 0x4 DUP3 ADD MSTORE PUSH1 0x24 ADD PUSH2 0xA77 JUMP JUMPDEST DUP2 ISZERO PUSH2 0x4115 JUMPI DUP4 DUP6 PUSH1 0x1 PUSH1 0x1 PUSH1 0xA0 SHL SUB AND DUP3 PUSH1 0x1 PUSH1 0x1 PUSH1 0xA0 SHL SUB AND PUSH32 0x8C5BE1E5EBEC7D5BD14F71427D1E84F3DD0314C0F7B2291E5B200AC8C7C3B925 PUSH1 0x40 MLOAD PUSH1 0x40 MLOAD DUP1 SWAP2 SUB SWAP1 LOG4 JUMPDEST POP JUMPDEST POP POP PUSH0 SWAP1 DUP2 MSTORE PUSH1 0x4 PUSH1 0x20 MSTORE PUSH1 0x40 SWAP1 KECCAK256 DUP1 SLOAD PUSH1 0x1 PUSH1 0x1 PUSH1 0xA0 SHL SUB NOT AND PUSH1 0x1 PUSH1 0x1 PUSH1 0xA0 SHL SUB SWAP3 SWAP1 SWAP3 AND SWAP2 SWAP1 SWAP2 OR SWAP1 SSTORE JUMP JUMPDEST PUSH0 PUSH1 0x1 PUSH1 0x1 PUSH1 0xA0 SHL SUB DUP4 AND ISZERO DUP1 ISZERO SWAP1 PUSH2 0x3A0E JUMPI POP DUP3 PUSH1 0x1 PUSH1 0x1 PUSH1 0xA0 SHL SUB AND DUP5 PUSH1 0x1 PUSH1 0x1 PUSH1 0xA0 SHL SUB AND EQ DUP1 PUSH2 0x417F JUMPI POP PUSH2 0x417F DUP5 DUP5 PUSH2 0x3267 JUMP JUMPDEST DUP1 PUSH2 0x3A0E JUMPI POP POP PUSH0 SWAP1 DUP2 MSTORE PUSH1 0x4 PUSH1 0x20 MSTORE PUSH1 0x40 SWAP1 KECCAK256 SLOAD PUSH1 0x1 PUSH1 0x1 PUSH1 0xA0 SHL SUB SWAP1 DUP2 AND SWAP2 AND EQ SWAP2 SWAP1 POP JUMP JUMPDEST PUSH1 0x1 PUSH1 0x1 PUSH1 0xE0 SHL SUB NOT DUP2 AND DUP2 EQ PUSH2 0x3524 JUMPI PUSH0 DUP1 REVERT JUMPDEST PUSH0 PUSH1 0x20 DUP3 DUP5 SUB SLT ISZERO PUSH2 0x41CC JUMPI PUSH0 DUP1 REVERT JUMPDEST DUP2 CALLDATALOAD PUSH2 0x41D7 DUP2 PUSH2 0x41A7 JUMP JUMPDEST SWAP4 SWAP3 POP POP POP JUMP JUMPDEST PUSH0 JUMPDEST DUP4 DUP2 LT ISZERO PUSH2 0x41F8 JUMPI DUP2 DUP2 ADD MLOAD DUP4 DUP3 ADD MSTORE PUSH1 0x20 ADD PUSH2 0x41E0 JUMP JUMPDEST POP POP PUSH0 SWAP2 ADD MSTORE JUMP JUMPDEST PUSH0 DUP2 MLOAD DUP1 DUP5 MSTORE PUSH2 0x4217 DUP2 PUSH1 0x20 DUP7 ADD PUSH1 0x20 DUP7 ADD PUSH2 0x41DE JUMP JUMPDEST PUSH1 0x1F ADD PUSH1 0x1F NOT AND SWAP3 SWAP1 SWAP3 ADD PUSH1 0x20 ADD SWAP3 SWAP2 POP POP JUMP JUMPDEST PUSH1 0x20 DUP2 MSTORE PUSH0 PUSH2 0x41D7 PUSH1 0x20 DUP4 ADD DUP5 PUSH2 0x4200 JUMP JUMPDEST PUSH0 PUSH1 0x20 DUP3 DUP5 SUB SLT ISZERO PUSH2 0x424D JUMPI PUSH0 DUP1 REVERT JUMPDEST POP CALLDATALOAD SWAP2 SWAP1 POP JUMP JUMPDEST PUSH1 0x1 PUSH1 0x1 PUSH1 0xA0 SHL SUB DUP2 AND DUP2 EQ PUSH2 0x3524 JUMPI PUSH0 DUP1 REVERT JUMPDEST PUSH0 DUP1 PUSH1 0x40 DUP4 DUP6 SUB SLT ISZERO PUSH2 0x4279 JUMPI PUSH0 DUP1 REVERT JUMPDEST DUP3 CALLDATALOAD PUSH2 0x4284 DUP2 PUSH2 0x4254 JUMP JUMPDEST SWAP5 PUSH1 0x20 SWAP4 SWAP1 SWAP4 ADD CALLDATALOAD SWAP4 POP POP POP JUMP JUMPDEST PUSH0 PUSH1 0x20 DUP3 DUP5 SUB SLT ISZERO PUSH2 0x42A2 JUMPI PUSH0 DUP1 REVERT JUMPDEST DUP2 CALLDATALOAD PUSH2 0x41D7 DUP2 PUSH2 0x4254 JUMP JUMPDEST PUSH0 DUP1 PUSH0 PUSH1 0x60 DUP5 DUP7 SUB SLT ISZERO PUSH2 0x42BF JUMPI PUSH0 DUP1 REVERT JUMPDEST DUP4 CALLDATALOAD PUSH2 0x42CA DUP2 PUSH2 0x4254 JUMP JUMPDEST SWAP3 POP PUSH1 0x20 DUP5 ADD CALLDATALOAD PUSH2 0x42DA DUP2 PUSH2 0x4254 JUMP JUMPDEST SWAP3 SWAP6 SWAP3 SWAP5 POP POP POP PUSH1 0x40 SWAP2 SWAP1 SWAP2 ADD CALLDATALOAD SWAP1 JUMP JUMPDEST PUSH4 0x4E487B71 PUSH1 0xE0 SHL PUSH0 MSTORE PUSH1 0x41 PUSH1 0x4 MSTORE PUSH1 0x24 PUSH0 REVERT JUMPDEST PUSH0 PUSH1 0x1 PUSH1 0x1 PUSH1 0x40 SHL SUB DUP1 DUP5 GT ISZERO PUSH2 0x4318 JUMPI PUSH2 0x4318 PUSH2 0x42EB JUMP JUMPDEST PUSH1 0x40 MLOAD PUSH1 0x1F DUP6 ADD PUSH1 0x1F NOT SWAP1 DUP2 AND PUSH1 0x3F ADD AND DUP2 ADD SWAP1 DUP3 DUP3 GT DUP2 DUP4 LT OR ISZERO PUSH2 0x4340 JUMPI PUSH2 0x4340 PUSH2 0x42EB JUMP JUMPDEST DUP2 PUSH1 0x40 MSTORE DUP1 SWAP4 POP DUP6 DUP2 MSTORE DUP7 DUP7 DUP7 ADD GT ISZERO PUSH2 0x4358 JUMPI PUSH0 DUP1 REVERT JUMPDEST DUP6 DUP6 PUSH1 0x20 DUP4 ADD CALLDATACOPY PUSH0 PUSH1 0x20 DUP8 DUP4 ADD ADD MSTORE POP POP POP SWAP4 SWAP3 POP POP POP JUMP JUMPDEST PUSH0 DUP3 PUSH1 0x1F DUP4 ADD SLT PUSH2 0x4380 JUMPI PUSH0 DUP1 REVERT JUMPDEST PUSH2 0x41D7 DUP4 DUP4 CALLDATALOAD PUSH1 0x20 DUP6 ADD PUSH2 0x42FF JUMP JUMPDEST PUSH0 DUP1 PUSH0 DUP1 PUSH1 0x80 DUP6 DUP8 SUB SLT ISZERO PUSH2 0x43A2 JUMPI PUSH0 DUP1 REVERT JUMPDEST DUP5 CALLDATALOAD PUSH1 0x1 PUSH1 0x1 PUSH1 0x40 SHL SUB DUP1 DUP3 GT ISZERO PUSH2 0x43B8 JUMPI PUSH0 DUP1 REVERT JUMPDEST PUSH2 0x43C4 DUP9 DUP4 DUP10 ADD PUSH2 0x4371 JUMP JUMPDEST SWAP6 POP PUSH1 0x20 DUP8 ADD CALLDATALOAD SWAP2 POP DUP1 DUP3 GT ISZERO PUSH2 0x43D9 JUMPI PUSH0 DUP1 REVERT JUMPDEST PUSH2 0x43E5 DUP9 DUP4 DUP10 ADD PUSH2 0x4371 JUMP JUMPDEST SWAP5 POP PUSH1 0x40 DUP8 ADD CALLDATALOAD SWAP2 POP DUP1 DUP3 GT ISZERO PUSH2 0x43FA JUMPI PUSH0 DUP1 REVERT JUMPDEST POP PUSH2 0x4407 DUP8 DUP3 DUP9 ADD PUSH2 0x4371 JUMP JUMPDEST SWAP5 SWAP8 SWAP4 SWAP7 POP SWAP4 SWAP5 PUSH1 0x60 ADD CALLDATALOAD SWAP4 POP POP POP JUMP JUMPDEST PUSH0 DUP1 PUSH1 0x40 DUP4 DUP6 SUB SLT ISZERO PUSH2 0x4429 JUMPI PUSH0 DUP1 REVERT JUMPDEST DUP3 CALLDATALOAD PUSH2 0x4434 DUP2 PUSH2 0x4254 JUMP JUMPDEST SWAP2 POP PUSH1 0x20 DUP4 ADD CALLDATALOAD DUP1 ISZERO ISZERO DUP2 EQ PUSH2 0x4448 JUMPI PUSH0 DUP1 REVERT JUMPDEST DUP1 SWAP2 POP POP SWAP3 POP SWAP3 SWAP1 POP JUMP JUMPDEST PUSH1 0xC0 DUP2 MSTORE PUSH0 PUSH2 0x4465 PUSH1 0xC0 DUP4 ADD DUP10 PUSH2 0x4200 JUMP JUMPDEST DUP3 DUP2 SUB PUSH1 0x20 DUP5 ADD MSTORE PUSH2 0x4477 DUP2 DUP10 PUSH2 0x4200 JUMP JUMPDEST SWAP1 POP DUP3 DUP2 SUB PUSH1 0x40 DUP5 ADD MSTORE PUSH2 0x448B DUP2 DUP9 PUSH2 0x4200 JUMP JUMPDEST PUSH1 0x60 DUP5 ADD SWAP7 SWAP1 SWAP7 MSTORE POP POP PUSH1 0x1 PUSH1 0x1 PUSH1 0xA0 SHL SUB SWAP3 SWAP1 SWAP3 AND PUSH1 0x80 DUP4 ADD MSTORE ISZERO ISZERO PUSH1 0xA0 SWAP1 SWAP2 ADD MSTORE SWAP4 SWAP3 POP POP POP JUMP JUMPDEST PUSH1 0xA0 DUP2 MSTORE PUSH0 PUSH2 0x44C7 PUSH1 0xA0 DUP4 ADD DUP9 PUSH2 0x4200 JUMP JUMPDEST DUP3 DUP2 SUB PUSH1 0x20 DUP5 ADD MSTORE PUSH2 0x44D9 DUP2 DUP9 PUSH2 0x4200 JUMP JUMPDEST SWAP1 POP DUP3 DUP2 SUB PUSH1 0x40 DUP5 ADD MSTORE PUSH2 0x44ED DUP2 DUP8 PUSH2 0x4200 JUMP JUMPDEST PUSH1 0x60 DUP5 ADD SWAP6 SWAP1 SWAP6 MSTORE POP POP PUSH1 0x1 PUSH1 0x1 PUSH1 0xA0 SHL SUB SWAP2 SWAP1 SWAP2 AND PUSH1 0x80 SWAP1 SWAP2 ADD MSTORE SWAP4 SWAP3 POP POP POP JUMP JUMPDEST PUSH0 DUP1 PUSH0 DUP1 PUSH0 PUSH1 0xA0 DUP7 DUP9 SUB SLT ISZERO PUSH2 0x4524 JUMPI PUSH0 DUP1 REVERT JUMPDEST DUP6 CALLDATALOAD SWAP5 POP PUSH1 0x20 DUP7 ADD CALLDATALOAD PUSH1 0x1 PUSH1 0x1 PUSH1 0x40 SHL SUB DUP1 DUP3 GT ISZERO PUSH2 0x4541 JUMPI PUSH0 DUP1 REVERT JUMPDEST PUSH2 0x454D DUP10 DUP4 DUP11 ADD PUSH2 0x4371 JUMP JUMPDEST SWAP6 POP PUSH1 0x40 DUP9 ADD CALLDATALOAD SWAP2 POP DUP1 DUP3 GT ISZERO PUSH2 0x4562 JUMPI PUSH0 DUP1 REVERT JUMPDEST PUSH2 0x456E DUP10 DUP4 DUP11 ADD PUSH2 0x4371 JUMP JUMPDEST SWAP5 POP PUSH1 0x60 DUP9 ADD CALLDATALOAD SWAP2 POP DUP1 DUP3 GT ISZERO PUSH2 0x4583 JUMPI PUSH0 DUP1 REVERT JUMPDEST POP PUSH2 0x4590 DUP9 DUP3 DUP10 ADD PUSH2 0x4371 JUMP JUMPDEST SWAP6 SWAP9 SWAP5 SWAP8 POP SWAP3 SWAP6 PUSH1 0x80 ADD CALLDATALOAD SWAP4 SWAP3 POP POP POP JUMP JUMPDEST PUSH0 PUSH1 0x20 DUP3 DUP5 SUB SLT ISZERO PUSH2 0x45B2 JUMPI PUSH0 DUP1 REVERT JUMPDEST DUP2 CALLDATALOAD PUSH1 0x1 PUSH1 0x1 PUSH1 0x40 SHL SUB DUP2 GT ISZERO PUSH2 0x45C7 JUMPI PUSH0 DUP1 REVERT JUMPDEST PUSH2 0x3A0E DUP5 DUP3 DUP6 ADD PUSH2 0x4371 JUMP JUMPDEST PUSH0 DUP1 PUSH0 DUP1 PUSH0 PUSH1 0xA0 DUP7 DUP9 SUB SLT ISZERO PUSH2 0x45E7 JUMPI PUSH0 DUP1 REVERT JUMPDEST DUP6 CALLDATALOAD PUSH2 0x45F2 DUP2 PUSH2 0x4254 JUMP JUMPDEST SWAP5 POP PUSH1 0x20 DUP7 ADD CALLDATALOAD PUSH1 0x1 PUSH1 0x1 PUSH1 0x40 SHL SUB DUP1 DUP3 GT ISZERO PUSH2 0x4541 JUMPI PUSH0 DUP1 REVERT JUMPDEST PUSH0 DUP1 PUSH0 DUP1 PUSH1 0x80 DUP6 DUP8 SUB SLT ISZERO PUSH2 0x4620 JUMPI PUSH0 DUP1 REVERT JUMPDEST DUP5 CALLDATALOAD PUSH2 0x462B DUP2 PUSH2 0x4254 JUMP JUMPDEST SWAP4 POP PUSH1 0x20 DUP6 ADD CALLDATALOAD PUSH2 0x463B DUP2 PUSH2 0x4254 JUMP JUMPDEST SWAP3 POP PUSH1 0x40 DUP6 ADD CALLDATALOAD SWAP2 POP PUSH1 0x60 DUP6 ADD CALLDATALOAD PUSH1 0x1 PUSH1 0x1 PUSH1 0x40 SHL SUB DUP2 GT ISZERO PUSH2 0x465C JUMPI PUSH0 DUP1 REVERT JUMPDEST DUP6 ADD PUSH1 0x1F DUP2 ADD DUP8 SGT PUSH2 0x466C JUMPI PUSH0 DUP1 REVERT JUMPDEST PUSH2 0x467B DUP8 DUP3 CALLDATALOAD PUSH1 0x20 DUP5 ADD PUSH2 0x42FF JUMP JUMPDEST SWAP2 POP POP SWAP3 SWAP6 SWAP2 SWAP5 POP SWAP3 POP JUMP JUMPDEST PUSH0 DUP1 DUP4 PUSH1 0x1F DUP5 ADD SLT PUSH2 0x4697 JUMPI PUSH0 DUP1 REVERT JUMPDEST POP DUP2 CALLDATALOAD PUSH1 0x1 PUSH1 0x1 PUSH1 0x40 SHL SUB DUP2 GT ISZERO PUSH2 0x46AD JUMPI PUSH0 DUP1 REVERT JUMPDEST PUSH1 0x20 DUP4 ADD SWAP2 POP DUP4 PUSH1 0x20 DUP3 PUSH1 0x5 SHL DUP6 ADD ADD GT ISZERO PUSH2 0x46C7 JUMPI PUSH0 DUP1 REVERT JUMPDEST SWAP3 POP SWAP3 SWAP1 POP JUMP JUMPDEST PUSH0 DUP1 PUSH0 DUP1 PUSH0 DUP1 PUSH0 DUP1 PUSH1 0xA0 DUP10 DUP12 SUB SLT ISZERO PUSH2 0x46E5 JUMPI PUSH0 DUP1 REVERT JUMPDEST DUP9 CALLDATALOAD PUSH1 0x1 PUSH1 0x1 PUSH1 0x40 SHL SUB DUP1 DUP3 GT ISZERO PUSH2 0x46FB JUMPI PUSH0 DUP1 REVERT JUMPDEST PUSH2 0x4707 DUP13 DUP4 DUP14 ADD PUSH2 0x4687 JUMP JUMPDEST SWAP1 SWAP11 POP SWAP9 POP PUSH1 0x20 DUP12 ADD CALLDATALOAD SWAP2 POP DUP1 DUP3 GT ISZERO PUSH2 0x471F JUMPI PUSH0 DUP1 REVERT JUMPDEST PUSH2 0x472B DUP13 DUP4 DUP14 ADD PUSH2 0x4687 JUMP JUMPDEST SWAP1 SWAP9 POP SWAP7 POP PUSH1 0x40 DUP12 ADD CALLDATALOAD SWAP2 POP DUP1 DUP3 GT ISZERO PUSH2 0x4743 JUMPI PUSH0 DUP1 REVERT JUMPDEST PUSH2 0x474F DUP13 DUP4 DUP14 ADD PUSH2 0x4687 JUMP JUMPDEST SWAP1 SWAP7 POP SWAP5 POP PUSH1 0x60 DUP12 ADD CALLDATALOAD SWAP2 POP DUP1 DUP3 GT ISZERO PUSH2 0x4767 JUMPI PUSH0 DUP1 REVERT JUMPDEST POP PUSH2 0x4774 DUP12 DUP3 DUP13 ADD PUSH2 0x4371 JUMP JUMPDEST SWAP3 POP POP PUSH1 0x80 DUP10 ADD CALLDATALOAD SWAP1 POP SWAP3 SWAP6 SWAP9 POP SWAP3 SWAP6 SWAP9 SWAP1 SWAP4 SWAP7 POP JUMP JUMPDEST PUSH0 DUP1 PUSH1 0x40 DUP4 DUP6 SUB SLT ISZERO PUSH2 0x479C JUMPI PUSH0 DUP1 REVERT JUMPDEST DUP3 CALLDATALOAD SWAP2 POP PUSH1 0x20 DUP4 ADD CALLDATALOAD PUSH1 0x1 PUSH1 0x1 PUSH1 0x40 SHL SUB DUP2 GT ISZERO PUSH2 0x47B8 JUMPI PUSH0 DUP1 REVERT JUMPDEST PUSH2 0x47C4 DUP6 DUP3 DUP7 ADD PUSH2 0x4371 JUMP JUMPDEST SWAP2 POP POP SWAP3 POP SWAP3 SWAP1 POP JUMP JUMPDEST PUSH0 DUP1 PUSH1 0x40 DUP4 DUP6 SUB SLT ISZERO PUSH2 0x47DF JUMPI PUSH0 DUP1 REVERT JUMPDEST DUP3 CALLDATALOAD PUSH2 0x47EA DUP2 PUSH2 0x4254 JUMP JUMPDEST SWAP2 POP PUSH1 0x20 DUP4 ADD CALLDATALOAD PUSH2 0x4448 DUP2 PUSH2 0x4254 JUMP JUMPDEST PUSH0 DUP1 PUSH0 PUSH1 0x40 DUP5 DUP7 SUB SLT ISZERO PUSH2 0x480C JUMPI PUSH0 DUP1 REVERT JUMPDEST DUP4 CALLDATALOAD PUSH1 0x1 PUSH1 0x1 PUSH1 0x40 SHL SUB DUP1 DUP3 GT ISZERO PUSH2 0x4822 JUMPI PUSH0 DUP1 REVERT JUMPDEST PUSH2 0x482E DUP8 DUP4 DUP9 ADD PUSH2 0x4687 JUMP JUMPDEST SWAP1 SWAP6 POP SWAP4 POP PUSH1 0x20 DUP7 ADD CALLDATALOAD SWAP2 POP DUP1 DUP3 GT ISZERO PUSH2 0x4846 JUMPI PUSH0 DUP1 REVERT JUMPDEST POP PUSH2 0x4853 DUP7 DUP3 DUP8 ADD PUSH2 0x4371 JUMP JUMPDEST SWAP2 POP POP SWAP3 POP SWAP3 POP SWAP3 JUMP JUMPDEST PUSH1 0x1 DUP2 DUP2 SHR SWAP1 DUP3 AND DUP1 PUSH2 0x4871 JUMPI PUSH1 0x7F DUP3 AND SWAP2 POP JUMPDEST PUSH1 0x20 DUP3 LT DUP2 SUB PUSH2 0x488F JUMPI PUSH4 0x4E487B71 PUSH1 0xE0 SHL PUSH0 MSTORE PUSH1 0x22 PUSH1 0x4 MSTORE PUSH1 0x24 PUSH0 REVERT JUMPDEST POP SWAP2 SWAP1 POP JUMP JUMPDEST PUSH1 0x20 DUP1 DUP3 MSTORE PUSH1 0x12 SWAP1 DUP3 ADD MSTORE PUSH18 0x13585E081CDD5C1C1B1E481C995858DA1959 PUSH1 0x72 SHL PUSH1 0x40 DUP3 ADD MSTORE PUSH1 0x60 ADD SWAP1 JUMP JUMPDEST PUSH1 0x20 DUP1 DUP3 MSTORE PUSH1 0x10 SWAP1 DUP3 ADD MSTORE PUSH16 0x14185D5CD8589B194E881C185D5CD959 PUSH1 0x82 SHL PUSH1 0x40 DUP3 ADD MSTORE PUSH1 0x60 ADD SWAP1 JUMP JUMPDEST PUSH4 0x4E487B71 PUSH1 0xE0 SHL PUSH0 MSTORE PUSH1 0x11 PUSH1 0x4 MSTORE PUSH1 0x24 PUSH0 REVERT JUMPDEST DUP1 DUP3 ADD DUP1 DUP3 GT ISZERO PUSH2 0x968 JUMPI PUSH2 0x968 PUSH2 0x48EB JUMP JUMPDEST PUSH1 0x20 DUP1 DUP3 MSTORE PUSH1 0x1C SWAP1 DUP3 ADD MSTORE PUSH32 0x4576656E74206461746520746F6F2066617220696E2066757475726500000000 PUSH1 0x40 DUP3 ADD MSTORE PUSH1 0x60 ADD SWAP1 JUMP JUMPDEST DUP2 DUP2 SUB DUP2 DUP2 GT ISZERO PUSH2 0x968 JUMPI PUSH2 0x968 PUSH2 0x48EB JUMP JUMPDEST PUSH1 0x20 DUP1 DUP3 MSTORE PUSH1 0x1A SWAP1 DUP3 ADD MSTORE PUSH32 0x4576656E74206461746520746F6F2066617220696E2070617374000000000000 PUSH1 0x40 DUP3 ADD MSTORE PUSH1 0x60 ADD SWAP1 JUMP JUMPDEST PUSH1 0x20 DUP1 DUP3 MSTORE PUSH1 0x13 SWAP1 DUP3 ADD MSTORE PUSH19 0x115D995B9D081B985B59481C995C5D5A5C9959 PUSH1 0x6A SHL PUSH1 0x40 DUP3 ADD MSTORE PUSH1 0x60 ADD SWAP1 JUMP JUMPDEST PUSH0 PUSH1 0x1 DUP3 ADD PUSH2 0x49D1 JUMPI PUSH2 0x49D1 PUSH2 0x48EB JUMP JUMPDEST POP PUSH1 0x1 ADD SWAP1 JUMP JUMPDEST PUSH1 0x1F DUP3 GT ISZERO PUSH2 0x1102 JUMPI DUP1 PUSH0 MSTORE PUSH1 0x20 PUSH0 KECCAK256 PUSH1 0x1F DUP5 ADD PUSH1 0x5 SHR DUP2 ADD PUSH1 0x20 DUP6 LT ISZERO PUSH2 0x49FD JUMPI POP DUP1 JUMPDEST PUSH1 0x1F DUP5 ADD PUSH1 0x5 SHR DUP3 ADD SWAP2 POP JUMPDEST DUP2 DUP2 LT ISZERO PUSH2 0xE3E JUMPI PUSH0 DUP2 SSTORE PUSH1 0x1 ADD PUSH2 0x4A09 JUMP JUMPDEST DUP2 MLOAD PUSH1 0x1 PUSH1 0x1 PUSH1 0x40 SHL SUB DUP2 GT ISZERO PUSH2 0x4A35 JUMPI PUSH2 0x4A35 PUSH2 0x42EB JUMP JUMPDEST PUSH2 0x4A49 DUP2 PUSH2 0x4A43 DUP5 SLOAD PUSH2 0x485D JUMP JUMPDEST DUP5 PUSH2 0x49D8 JUMP JUMPDEST PUSH1 0x20 DUP1 PUSH1 0x1F DUP4 GT PUSH1 0x1 DUP2 EQ PUSH2 0x4A7C JUMPI PUSH0 DUP5 ISZERO PUSH2 0x4A65 JUMPI POP DUP6 DUP4 ADD MLOAD JUMPDEST PUSH0 NOT PUSH1 0x3 DUP7 SWAP1 SHL SHR NOT AND PUSH1 0x1 DUP6 SWAP1 SHL OR DUP6 SSTORE PUSH2 0x2225 JUMP JUMPDEST PUSH0 DUP6 DUP2 MSTORE PUSH1 0x20 DUP2 KECCAK256 PUSH1 0x1F NOT DUP7 AND SWAP2 JUMPDEST DUP3 DUP2 LT ISZERO PUSH2 0x4AAA JUMPI DUP9 DUP7 ADD MLOAD DUP3 SSTORE SWAP5 DUP5 ADD SWAP5 PUSH1 0x1 SWAP1 SWAP2 ADD SWAP1 DUP5 ADD PUSH2 0x4A8B JUMP JUMPDEST POP DUP6 DUP3 LT ISZERO PUSH2 0x4AC7 JUMPI DUP8 DUP6 ADD MLOAD PUSH0 NOT PUSH1 0x3 DUP9 SWAP1 SHL PUSH1 0xF8 AND SHR NOT AND DUP2 SSTORE JUMPDEST POP POP POP POP POP PUSH1 0x1 SWAP1 DUP2 SHL ADD SWAP1 SSTORE POP JUMP JUMPDEST PUSH4 0x4E487B71 PUSH1 0xE0 SHL PUSH0 MSTORE PUSH1 0x32 PUSH1 0x4 MSTORE PUSH1 0x24 PUSH0 REVERT JUMPDEST PUSH1 0x20 DUP1 DUP3 MSTORE PUSH1 0x14 SWAP1 DUP3 ADD MSTORE PUSH20 0x151BDAD95B88191BD95CC81B9BDD08195E1A5CDD PUSH1 0x62 SHL PUSH1 0x40 DUP3 ADD MSTORE PUSH1 0x60 ADD SWAP1 JUMP JUMPDEST PUSH0 PUSH1 0x20 DUP3 DUP5 SUB SLT ISZERO PUSH2 0x4B29 JUMPI PUSH0 DUP1 REVERT JUMPDEST DUP2 MLOAD PUSH2 0x41D7 DUP2 PUSH2 0x4254 JUMP JUMPDEST PUSH1 0x40 DUP2 MSTORE PUSH0 PUSH2 0x4B46 PUSH1 0x40 DUP4 ADD DUP6 PUSH2 0x4200 JUMP JUMPDEST DUP3 DUP2 SUB PUSH1 0x20 DUP5 ADD MSTORE PUSH2 0x364F DUP2 DUP6 PUSH2 0x4200 JUMP JUMPDEST PUSH0 PUSH1 0x20 DUP3 DUP5 SUB SLT ISZERO PUSH2 0x4B68 JUMPI PUSH0 DUP1 REVERT JUMPDEST POP MLOAD SWAP2 SWAP1 POP JUMP JUMPDEST PUSH0 DUP1 DUP4 CALLDATALOAD PUSH1 0x1E NOT DUP5 CALLDATASIZE SUB ADD DUP2 SLT PUSH2 0x4B84 JUMPI PUSH0 DUP1 REVERT JUMPDEST DUP4 ADD DUP1 CALLDATALOAD SWAP2 POP PUSH1 0x1 PUSH1 0x1 PUSH1 0x40 SHL SUB DUP3 GT ISZERO PUSH2 0x4B9D JUMPI PUSH0 DUP1 REVERT JUMPDEST PUSH1 0x20 ADD SWAP2 POP CALLDATASIZE DUP2 SWAP1 SUB DUP3 SGT ISZERO PUSH2 0x46C7 JUMPI PUSH0 DUP1 REVERT JUMPDEST PUSH1 0x40 DUP1 DUP3 MSTORE DUP2 ADD DUP4 SWAP1 MSTORE PUSH0 DUP5 PUSH1 0x60 DUP4 ADD DUP3 JUMPDEST DUP7 DUP2 LT ISZERO PUSH2 0x4BF3 JUMPI DUP3 CALLDATALOAD PUSH2 0x4BD6 DUP2 PUSH2 0x4254 JUMP JUMPDEST PUSH1 0x1 PUSH1 0x1 PUSH1 0xA0 SHL SUB AND DUP3 MSTORE PUSH1 0x20 SWAP3 DUP4 ADD SWAP3 SWAP1 SWAP2 ADD SWAP1 PUSH1 0x1 ADD PUSH2 0x4BC3 JUMP JUMPDEST POP PUSH1 0x20 SWAP2 POP DUP4 DUP2 SUB PUSH1 0x20 DUP6 ADD MSTORE DUP1 DUP6 MLOAD DUP1 DUP4 MSTORE PUSH1 0x20 DUP4 ADD SWAP2 POP PUSH1 0x20 DUP8 ADD SWAP3 POP PUSH0 JUMPDEST DUP2 DUP2 LT ISZERO PUSH2 0x4C30 JUMPI DUP4 MLOAD DUP4 MSTORE SWAP3 DUP5 ADD SWAP3 SWAP2 DUP5 ADD SWAP2 PUSH1 0x1 ADD PUSH2 0x4C14 JUMP JUMPDEST POP SWAP1 SWAP9 SWAP8 POP POP POP POP POP POP POP POP JUMP JUMPDEST PUSH0 DUP3 MLOAD PUSH2 0x4C4F DUP2 DUP5 PUSH1 0x20 DUP8 ADD PUSH2 0x41DE JUMP JUMPDEST PUSH32 0x205B436F6E74656E7420666C6167676564206279206D6F64657261746F72735D SWAP3 ADD SWAP2 DUP3 MSTORE POP PUSH1 0x20 ADD SWAP2 SWAP1 POP JUMP JUMPDEST PUSH32 0x7B2274726169745F74797065223A224F776E6572222C2276616C7565223A2200 DUP2 MSTORE PUSH0 DUP4 MLOAD PUSH2 0x4CB5 DUP2 PUSH1 0x1F DUP6 ADD PUSH1 0x20 DUP9 ADD PUSH2 0x41DE JUMP JUMPDEST PUSH2 0x227D PUSH1 0xF0 SHL PUSH1 0x1F SWAP2 DUP5 ADD SWAP2 DUP3 ADD DUP2 SWAP1 MSTORE PUSH32 0x2C7B2274726169745F74797065223A2243726561746564204279222C2276616C PUSH1 0x21 DUP4 ADD MSTORE PUSH5 0x3AB2911D11 PUSH1 0xD9 SHL PUSH1 0x41 DUP4 ADD MSTORE DUP5 MLOAD PUSH2 0x4D0D DUP2 PUSH1 0x46 DUP6 ADD PUSH1 0x20 DUP10 ADD PUSH2 0x41DE JUMP JUMPDEST PUSH1 0x46 SWAP3 ADD SWAP2 DUP3 ADD MSTORE PUSH1 0x48 ADD SWAP5 SWAP4 POP POP POP POP JUMP JUMPDEST PUSH0 DUP2 SLOAD PUSH2 0x4D2C DUP2 PUSH2 0x485D JUMP JUMPDEST PUSH1 0x1 DUP3 DUP2 AND DUP1 ISZERO PUSH2 0x4D44 JUMPI PUSH1 0x1 DUP2 EQ PUSH2 0x4D59 JUMPI PUSH2 0x4D85 JUMP JUMPDEST PUSH1 0xFF NOT DUP5 AND DUP8 MSTORE DUP3 ISZERO ISZERO DUP4 MUL DUP8 ADD SWAP5 POP PUSH2 0x4D85 JUMP JUMPDEST DUP6 PUSH0 MSTORE PUSH1 0x20 DUP1 PUSH0 KECCAK256 PUSH0 JUMPDEST DUP6 DUP2 LT ISZERO PUSH2 0x4D7C JUMPI DUP2 SLOAD DUP11 DUP3 ADD MSTORE SWAP1 DUP5 ADD SWAP1 DUP3 ADD PUSH2 0x4D63 JUMP JUMPDEST POP POP POP DUP3 DUP8 ADD SWAP5 POP JUMPDEST POP POP POP POP SWAP3 SWAP2 POP POP JUMP JUMPDEST PUSH0 DUP4 MLOAD PUSH2 0x4DA0 DUP2 DUP5 PUSH1 0x20 DUP9 ADD PUSH2 0x41DE JUMP JUMPDEST PUSH32 0x2C7B2274726169745F74797065223A224576656E74222C2276616C7565223A22 SWAP1 DUP4 ADD SWAP1 DUP2 MSTORE PUSH2 0x4DD4 PUSH1 0x20 DUP3 ADD DUP6 PUSH2 0x4D20 JUMP JUMPDEST PUSH2 0x227D PUSH1 0xF0 SHL DUP2 MSTORE PUSH1 0x2 ADD SWAP6 SWAP5 POP POP POP POP POP JUMP JUMPDEST PUSH0 DUP4 MLOAD PUSH2 0x4DF9 DUP2 DUP5 PUSH1 0x20 DUP9 ADD PUSH2 0x41DE JUMP JUMPDEST DUP1 DUP4 ADD SWAP1 POP PUSH32 0x2C7B2274726169745F74797065223A224576656E742044617465222C22646973 DUP2 MSTORE PUSH32 0x706C61795F74797065223A2264617465222C2276616C7565223A000000000000 PUSH1 0x20 DUP3 ADD MSTORE DUP4 MLOAD PUSH2 0x4E5A DUP2 PUSH1 0x3A DUP5 ADD PUSH1 0x20 DUP9 ADD PUSH2 0x41DE JUMP JUMPDEST PUSH1 0x7D PUSH1 0xF8 SHL PUSH1 0x3A SWAP3 SWAP1 SWAP2 ADD SWAP2 DUP3 ADD MSTORE PUSH1 0x3B ADD SWAP5 SWAP4 POP POP POP POP JUMP JUMPDEST PUSH0 DUP3 MLOAD PUSH2 0x4E85 DUP2 DUP5 PUSH1 0x20 DUP8 ADD PUSH2 0x41DE JUMP JUMPDEST PUSH32 0x2C7B2274726169745F74797065223A22437573746F6D2050686F746F222C2276 SWAP3 ADD SWAP2 DUP3 MSTORE POP PUSH13 0x616C7565223A2274727565227D PUSH1 0x98 SHL PUSH1 0x20 DUP3 ADD MSTORE PUSH1 0x2D ADD SWAP2 SWAP1 POP JUMP JUMPDEST PUSH0 DUP3 MLOAD PUSH2 0x4EDB DUP2 DUP5 PUSH1 0x20 DUP8 ADD PUSH2 0x41DE JUMP JUMPDEST PUSH32 0x2C7B2274726169745F74797065223A22537461747573222C2276616C7565223A SWAP3 ADD SWAP2 DUP3 MSTORE POP PUSH10 0x22466C6167676564227D PUSH1 0xB0 SHL PUSH1 0x20 DUP3 ADD MSTORE PUSH1 0x2A ADD SWAP2 SWAP1 POP JUMP JUMPDEST PUSH32 0x7B226E616D65223A22537570657246616E746173746963202300000000000000 DUP2 MSTORE PUSH0 DUP3 MLOAD PUSH2 0x4F54 DUP2 PUSH1 0x19 DUP6 ADD PUSH1 0x20 DUP8 ADD PUSH2 0x41DE JUMP JUMPDEST SWAP2 SWAP1 SWAP2 ADD PUSH1 0x19 ADD SWAP3 SWAP2 POP POP JUMP JUMPDEST PUSH0 DUP4 MLOAD PUSH2 0x4F72 DUP2 DUP5 PUSH1 0x20 DUP9 ADD PUSH2 0x41DE JUMP JUMPDEST PUSH3 0x10169 PUSH1 0xED SHL SWAP1 DUP4 ADD SWAP1 DUP2 MSTORE PUSH2 0x364F PUSH1 0x3 DUP3 ADD DUP6 PUSH2 0x4D20 JUMP JUMPDEST PUSH0 DUP5 MLOAD PUSH2 0x4F9D DUP2 DUP5 PUSH1 0x20 DUP10 ADD PUSH2 0x41DE JUMP JUMPDEST PUSH17 0x1116113232B9B1B934B83A34B7B7111D11 PUSH1 0x79 SHL SWAP1 DUP4 ADD SWAP1 DUP2 MSTORE DUP5 MLOAD PUSH2 0x4FCB DUP2 PUSH1 0x11 DUP5 ADD PUSH1 0x20 DUP10 ADD PUSH2 0x41DE JUMP JUMPDEST PUSH11 0x11161134B6B0B3B2911D11 PUSH1 0xA9 SHL PUSH1 0x11 SWAP3 SWAP1 SWAP2 ADD SWAP2 DUP3 ADD MSTORE DUP4 MLOAD PUSH2 0x4FF7 DUP2 PUSH1 0x1C DUP5 ADD PUSH1 0x20 DUP9 ADD PUSH2 0x41DE JUMP JUMPDEST PUSH1 0x11 PUSH1 0xF9 SHL PUSH1 0x1C SWAP3 SWAP1 SWAP2 ADD SWAP2 DUP3 ADD MSTORE PUSH1 0x1D ADD SWAP6 SWAP5 POP POP POP POP POP JUMP JUMPDEST PUSH0 DUP4 MLOAD PUSH2 0x5023 DUP2 DUP5 PUSH1 0x20 DUP9 ADD PUSH2 0x41DE JUMP JUMPDEST PUSH18 0x161130B734B6B0BA34B7B72FBAB936111D11 PUSH1 0x71 SHL SWAP1 DUP4 ADD SWAP1 DUP2 MSTORE PUSH2 0x504C PUSH1 0x12 DUP3 ADD DUP6 PUSH2 0x4D20 JUMP JUMPDEST PUSH1 0x11 PUSH1 0xF9 SHL DUP2 MSTORE PUSH1 0x1 ADD SWAP6 SWAP5 POP POP POP POP POP JUMP JUMPDEST PUSH0 DUP4 MLOAD PUSH2 0x5070 DUP2 DUP5 PUSH1 0x20 DUP9 ADD PUSH2 0x41DE JUMP JUMPDEST PUSH15 0x2C2261747472696275746573223A5B PUSH1 0x88 SHL SWAP1 DUP4 ADD SWAP1 DUP2 MSTORE DUP4 MLOAD PUSH2 0x509C DUP2 PUSH1 0xF DUP5 ADD PUSH1 0x20 DUP9 ADD PUSH2 0x41DE JUMP JUMPDEST PUSH2 0x5D7D PUSH1 0xF0 SHL PUSH1 0xF SWAP3 SWAP1 SWAP2 ADD SWAP2 DUP3 ADD MSTORE PUSH1 0x11 ADD SWAP5 SWAP4 POP POP POP POP JUMP JUMPDEST PUSH32 0x646174613A6170706C69636174696F6E2F6A736F6E3B757466382C0000000000 DUP2 MSTORE PUSH0 DUP3 MLOAD PUSH2 0x50EE DUP2 PUSH1 0x1B DUP6 ADD PUSH1 0x20 DUP8 ADD PUSH2 0x41DE JUMP JUMPDEST SWAP2 SWAP1 SWAP2 ADD PUSH1 0x1B ADD SWAP3 SWAP2 POP POP JUMP JUMPDEST PUSH1 0x1 PUSH1 0x1 PUSH1 0xA0 SHL SUB DUP6 DUP2 AND DUP3 MSTORE DUP5 AND PUSH1 0x20 DUP3 ADD MSTORE PUSH1 0x40 DUP2 ADD DUP4 SWAP1 MSTORE PUSH1 0x80 PUSH1 0x60 DUP3 ADD DUP2 SWAP1 MSTORE PUSH0 SWAP1 PUSH2 0x512D SWAP1 DUP4 ADD DUP5 PUSH2 0x4200 JUMP JUMPDEST SWAP7 SWAP6 POP POP POP POP POP POP JUMP JUMPDEST PUSH0 PUSH1 0x20 DUP3 DUP5 SUB SLT ISZERO PUSH2 0x5147 JUMPI PUSH0 DUP1 REVERT JUMPDEST DUP2 MLOAD PUSH2 0x41D7 DUP2 PUSH2 0x41A7 JUMP JUMPDEST DUP1 DUP3 MUL DUP2 ISZERO DUP3 DUP3 DIV DUP5 EQ OR PUSH2 0x968 JUMPI PUSH2 0x968 PUSH2 0x48EB JUMP JUMPDEST PUSH0 DUP2 PUSH2 0x5177 JUMPI PUSH2 0x5177 PUSH2 0x48EB JUMP JUMPDEST POP PUSH0 NOT ADD SWAP1 JUMP JUMPDEST PUSH4 0x4E487B71 PUSH1 0xE0 SHL PUSH0 MSTORE PUSH1 0x31 PUSH1 0x4 MSTORE PUSH1 0x24 PUSH0 REVERT INVALID MSTORE8 PUSH22 0x70657246616E746173746963204576656E74204E4654 KECCAK256 0x2D KECCAK256 COINBASE KECCAK256 PUSH20 0x6F756C626F756E64206D656D6F72792063617074 PUSH22 0x72656420696E207265616C206C69666521A264697066 PUSH20 0x58221220440742280810AFEE337EC12A923960CB PUSH23 0x55438DC7AE25E341980956096A98D264736F6C63430008 XOR STOP CALLER "
		},
		"gasEstimates": {
			"creation": {
				"codeDepositCost": "4200800",
				"executionCost": "infinite",
				"totalCost": "infinite"
			},
			"external": {
				"MAX_BATCH_FLAG()": "261",
				"MAX_BATCH_SIZE()": "305",
				"MAX_FUTURE_EVENT_DATE()": "307",
				"MAX_PAST_EVENT_DATE()": "263",
				"MAX_SUPPLY()": "328",
				"approve(address,uint256)": "547",
				"balanceOf(address)": "2712",
				"batchFlagTokens(uint256[],string)": "infinite",
				"batchTeamMint(address[],string[],string[],string,uint256)": "infinite",
				"flagToken(uint256,string)": "infinite",
				"getApproved(uint256)": "infinite",
				"getBaseAnimationURI()": "infinite",
				"getBaseImageURI()": "infinite",
				"getNSFWReplacementImage()": "infinite",
				"getTokenMetadata(uint256)": "infinite",
				"isApprovedForAll(address,address)": "infinite",
				"isFlagged(uint256)": "2569",
				"isMintingActive()": "4555",
				"mint(string,string,string,uint256)": "infinite",
				"mintPrice()": "2406",
				"moderators(address)": "2668",
				"name()": "infinite",
				"owner()": "2420",
				"ownerOf(uint256)": "infinite",
				"pause()": "29815",
				"paused()": "2426",
				"recoverERC20(address,uint256)": "infinite",
				"recoverERC721(address,uint256)": "infinite",
				"renounceOwnership()": "infinite",
				"safeTransferFrom(address,address,uint256)": "infinite",
				"safeTransferFrom(address,address,uint256,bytes)": "infinite",
				"setApprovalForAll(address,bool)": "562",
				"setMintPrice(uint256)": "28080",
				"setModerator(address,bool)": "28437",
				"setNSFWReplacementImage(string)": "infinite",
				"setTeamMinter(address,bool)": "28468",
				"supportsInterface(bytes4)": "infinite",
				"symbol()": "infinite",
				"teamMint(address,string,string,string,uint256)": "infinite",
				"teamMinters(address)": "2600",
				"tokenByIndex(uint256)": "6822",
				"tokenMetadata(uint256)": "infinite",
				"tokenOfOwnerByIndex(address,uint256)": "5008",
				"tokenURI(uint256)": "infinite",
				"totalSupply()": "2349",
				"transferFrom(address,address,uint256)": "infinite",
				"transferOwnership(address)": "infinite",
				"unflagToken(uint256)": "32722",
				"unpause()": "29773",
				"updateBaseAnimationURI(string)": "infinite",
				"updateBaseImageURI(string)": "infinite",
				"updateTokenMetadata(uint256,string,string,string,uint256)": "infinite",
				"withdraw()": "infinite",
				"withdrawETH()": "infinite"
			},
			"internal": {
				"_increaseBalance(address,uint128)": "infinite",
				"_tokenExists(uint256)": "2152",
				"_update(address,uint256,address)": "infinite"
			}
		},
		"methodIdentifiers": {
			"MAX_BATCH_FLAG()": "99579ff3",
			"MAX_BATCH_SIZE()": "cfdbf254",
			"MAX_FUTURE_EVENT_DATE()": "21771bd1",
			"MAX_PAST_EVENT_DATE()": "3ac2a9d9",
			"MAX_SUPPLY()": "32cb6b0c",
			"approve(address,uint256)": "095ea7b3",
			"balanceOf(address)": "70a08231",
			"batchFlagTokens(uint256[],string)": "ebe8487c",
			"batchTeamMint(address[],string[],string[],string,uint256)": "c02542f5",
			"flagToken(uint256,string)": "df4e53e2",
			"getApproved(uint256)": "081812fc",
			"getBaseAnimationURI()": "eb0dc34b",
			"getBaseImageURI()": "1f8cbe5c",
			"getNSFWReplacementImage()": "05cf76fc",
			"getTokenMetadata(uint256)": "60316801",
			"isApprovedForAll(address,address)": "e985e9c5",
			"isFlagged(uint256)": "b70f402d",
			"isMintingActive()": "6ac437b0",
			"mint(string,string,string,uint256)": "31b6475c",
			"mintPrice()": "6817c76c",
			"moderators(address)": "14d0f1ba",
			"name()": "06fdde03",
			"owner()": "8da5cb5b",
			"ownerOf(uint256)": "6352211e",
			"pause()": "8456cb59",
			"paused()": "5c975abb",
			"recoverERC20(address,uint256)": "8980f11f",
			"recoverERC721(address,uint256)": "819d4cc6",
			"renounceOwnership()": "715018a6",
			"safeTransferFrom(address,address,uint256)": "42842e0e",
			"safeTransferFrom(address,address,uint256,bytes)": "b88d4fde",
			"setApprovalForAll(address,bool)": "a22cb465",
			"setMintPrice(uint256)": "f4a0a528",
			"setModerator(address,bool)": "3ee2b01d",
			"setNSFWReplacementImage(string)": "bee79dc9",
			"setTeamMinter(address,bool)": "d12717bd",
			"supportsInterface(bytes4)": "01ffc9a7",
			"symbol()": "95d89b41",
			"teamMint(address,string,string,string,uint256)": "9d99229b",
			"teamMinters(address)": "cab27baa",
			"tokenByIndex(uint256)": "4f6ccce7",
			"tokenMetadata(uint256)": "6914db60",
			"tokenOfOwnerByIndex(address,uint256)": "2f745c59",
			"tokenURI(uint256)": "c87b56dd",
			"totalSupply()": "18160ddd",
			"transferFrom(address,address,uint256)": "23b872dd",
			"transferOwnership(address)": "f2fde38b",
			"unflagToken(uint256)": "8cd9c0d4",
			"unpause()": "3f4ba83a",
			"updateBaseAnimationURI(string)": "847c8299",
			"updateBaseImageURI(string)": "8d0ca2ac",
			"updateTokenMetadata(uint256,string,string,string,uint256)": "6d8c6ec2",
			"withdraw()": "3ccfd60b",
			"withdrawETH()": "e086e5ec"
		}
	},
	"abi": [
		{
			"inputs": [
				{
					"internalType": "string",
					"name": "_baseImageURI",
					"type": "string"
				},
				{
					"internalType": "string",
					"name": "_baseAnimationURI",
					"type": "string"
				},
				{
					"internalType": "string",
					"name": "_nsfwImage",
					"type": "string"
				}
			],
			"stateMutability": "nonpayable",
			"type": "constructor"
		},
		{
			"inputs": [],
			"name": "ERC721EnumerableForbiddenBatchMint",
			"type": "error"
		},
		{
			"inputs": [
				{
					"internalType": "address",
					"name": "sender",
					"type": "address"
				},
				{
					"internalType": "uint256",
					"name": "tokenId",
					"type": "uint256"
				},
				{
					"internalType": "address",
					"name": "owner",
					"type": "address"
				}
			],
			"name": "ERC721IncorrectOwner",
			"type": "error"
		},
		{
			"inputs": [
				{
					"internalType": "address",
					"name": "operator",
					"type": "address"
				},
				{
					"internalType": "uint256",
					"name": "tokenId",
					"type": "uint256"
				}
			],
			"name": "ERC721InsufficientApproval",
			"type": "error"
		},
		{
			"inputs": [
				{
					"internalType": "address",
					"name": "approver",
					"type": "address"
				}
			],
			"name": "ERC721InvalidApprover",
			"type": "error"
		},
		{
			"inputs": [
				{
					"internalType": "address",
					"name": "operator",
					"type": "address"
				}
			],
			"name": "ERC721InvalidOperator",
			"type": "error"
		},
		{
			"inputs": [
				{
					"internalType": "address",
					"name": "owner",
					"type": "address"
				}
			],
			"name": "ERC721InvalidOwner",
			"type": "error"
		},
		{
			"inputs": [
				{
					"internalType": "address",
					"name": "receiver",
					"type": "address"
				}
			],
			"name": "ERC721InvalidReceiver",
			"type": "error"
		},
		{
			"inputs": [
				{
					"internalType": "address",
					"name": "sender",
					"type": "address"
				}
			],
			"name": "ERC721InvalidSender",
			"type": "error"
		},
		{
			"inputs": [
				{
					"internalType": "uint256",
					"name": "tokenId",
					"type": "uint256"
				}
			],
			"name": "ERC721NonexistentToken",
			"type": "error"
		},
		{
			"inputs": [
				{
					"internalType": "address",
					"name": "owner",
					"type": "address"
				},
				{
					"internalType": "uint256",
					"name": "index",
					"type": "uint256"
				}
			],
			"name": "ERC721OutOfBoundsIndex",
			"type": "error"
		},
		{
			"inputs": [
				{
					"internalType": "address",
					"name": "owner",
					"type": "address"
				}
			],
			"name": "OwnableInvalidOwner",
			"type": "error"
		},
		{
			"inputs": [
				{
					"internalType": "address",
					"name": "account",
					"type": "address"
				}
			],
			"name": "OwnableUnauthorizedAccount",
			"type": "error"
		},
		{
			"inputs": [],
			"name": "ReentrancyGuardReentrantCall",
			"type": "error"
		},
		{
			"inputs": [
				{
					"internalType": "address",
					"name": "token",
					"type": "address"
				}
			],
			"name": "SafeERC20FailedOperation",
			"type": "error"
		},
		{
			"inputs": [
				{
					"internalType": "uint256",
					"name": "value",
					"type": "uint256"
				},
				{
					"internalType": "uint256",
					"name": "length",
					"type": "uint256"
				}
			],
			"name": "StringsInsufficientHexLength",
			"type": "error"
		},
		{
			"anonymous": false,
			"inputs": [
				{
					"indexed": true,
					"internalType": "address",
					"name": "owner",
					"type": "address"
				},
				{
					"indexed": true,
					"internalType": "address",
					"name": "approved",
					"type": "address"
				},
				{
					"indexed": true,
					"internalType": "uint256",
					"name": "tokenId",
					"type": "uint256"
				}
			],
			"name": "Approval",
			"type": "event"
		},
		{
			"anonymous": false,
			"inputs": [
				{
					"indexed": true,
					"internalType": "address",
					"name": "owner",
					"type": "address"
				},
				{
					"indexed": true,
					"internalType": "address",
					"name": "operator",
					"type": "address"
				},
				{
					"indexed": false,
					"internalType": "bool",
					"name": "approved",
					"type": "bool"
				}
			],
			"name": "ApprovalForAll",
			"type": "event"
		},
		{
			"anonymous": false,
			"inputs": [
				{
					"indexed": false,
					"internalType": "string",
					"name": "oldURI",
					"type": "string"
				},
				{
					"indexed": false,
					"internalType": "string",
					"name": "newURI",
					"type": "string"
				}
			],
			"name": "BaseAnimationURIUpdated",
			"type": "event"
		},
		{
			"anonymous": false,
			"inputs": [
				{
					"indexed": false,
					"internalType": "string",
					"name": "oldURI",
					"type": "string"
				},
				{
					"indexed": false,
					"internalType": "string",
					"name": "newURI",
					"type": "string"
				}
			],
			"name": "BaseImageURIUpdated",
			"type": "event"
		},
		{
			"anonymous": false,
			"inputs": [
				{
					"indexed": true,
					"internalType": "address",
					"name": "by",
					"type": "address"
				},
				{
					"indexed": false,
					"internalType": "address[]",
					"name": "recipients",
					"type": "address[]"
				},
				{
					"indexed": false,
					"internalType": "uint256[]",
					"name": "tokenIds",
					"type": "uint256[]"
				}
			],
			"name": "BatchMinted",
			"type": "event"
		},
		{
			"anonymous": false,
			"inputs": [
				{
					"indexed": true,
					"internalType": "address",
					"name": "token",
					"type": "address"
				},
				{
					"indexed": true,
					"internalType": "address",
					"name": "to",
					"type": "address"
				},
				{
					"indexed": false,
					"internalType": "uint256",
					"name": "amount",
					"type": "uint256"
				}
			],
			"name": "ERC20Recovered",
			"type": "event"
		},
		{
			"anonymous": false,
			"inputs": [
				{
					"indexed": true,
					"internalType": "address",
					"name": "token",
					"type": "address"
				},
				{
					"indexed": true,
					"internalType": "address",
					"name": "to",
					"type": "address"
				},
				{
					"indexed": false,
					"internalType": "uint256",
					"name": "tokenId",
					"type": "uint256"
				}
			],
			"name": "ERC721Recovered",
			"type": "event"
		},
		{
			"anonymous": false,
			"inputs": [
				{
					"indexed": false,
					"internalType": "uint256",
					"name": "oldPrice",
					"type": "uint256"
				},
				{
					"indexed": false,
					"internalType": "uint256",
					"name": "newPrice",
					"type": "uint256"
				}
			],
			"name": "MintPriceUpdated",
			"type": "event"
		},
		{
			"anonymous": false,
			"inputs": [
				{
					"indexed": true,
					"internalType": "address",
					"name": "to",
					"type": "address"
				},
				{
					"indexed": true,
					"internalType": "uint256",
					"name": "tokenId",
					"type": "uint256"
				},
				{
					"indexed": false,
					"internalType": "string",
					"name": "eventName",
					"type": "string"
				}
			],
			"name": "Minted",
			"type": "event"
		},
		{
			"anonymous": false,
			"inputs": [
				{
					"indexed": true,
					"internalType": "address",
					"name": "moderator",
					"type": "address"
				},
				{
					"indexed": false,
					"internalType": "bool",
					"name": "authorized",
					"type": "bool"
				}
			],
			"name": "ModeratorUpdated",
			"type": "event"
		},
		{
			"anonymous": false,
			"inputs": [
				{
					"indexed": false,
					"internalType": "string",
					"name": "oldURI",
					"type": "string"
				},
				{
					"indexed": false,
					"internalType": "string",
					"name": "newURI",
					"type": "string"
				}
			],
			"name": "NSFWImageUpdated",
			"type": "event"
		},
		{
			"anonymous": false,
			"inputs": [
				{
					"indexed": true,
					"internalType": "address",
					"name": "to",
					"type": "address"
				},
				{
					"indexed": false,
					"internalType": "uint256",
					"name": "amount",
					"type": "uint256"
				}
			],
			"name": "NativeTokenWithdrawn",
			"type": "event"
		},
		{
			"anonymous": false,
			"inputs": [
				{
					"indexed": true,
					"internalType": "address",
					"name": "previousOwner",
					"type": "address"
				},
				{
					"indexed": true,
					"internalType": "address",
					"name": "newOwner",
					"type": "address"
				}
			],
			"name": "OwnershipTransferred",
			"type": "event"
		},
		{
			"anonymous": false,
			"inputs": [
				{
					"indexed": false,
					"internalType": "address",
					"name": "account",
					"type": "address"
				}
			],
			"name": "Paused",
			"type": "event"
		},
		{
			"anonymous": false,
			"inputs": [
				{
					"indexed": true,
					"internalType": "address",
					"name": "minter",
					"type": "address"
				},
				{
					"indexed": false,
					"internalType": "bool",
					"name": "authorized",
					"type": "bool"
				}
			],
			"name": "TeamMinterUpdated",
			"type": "event"
		},
		{
			"anonymous": false,
			"inputs": [
				{
					"indexed": true,
					"internalType": "uint256",
					"name": "tokenId",
					"type": "uint256"
				},
				{
					"indexed": true,
					"internalType": "address",
					"name": "moderator",
					"type": "address"
				},
				{
					"indexed": false,
					"internalType": "string",
					"name": "reason",
					"type": "string"
				}
			],
			"name": "TokenFlagged",
			"type": "event"
		},
		{
			"anonymous": false,
			"inputs": [
				{
					"indexed": true,
					"internalType": "uint256",
					"name": "tokenId",
					"type": "uint256"
				}
			],
			"name": "TokenMetadataUpdated",
			"type": "event"
		},
		{
			"anonymous": false,
			"inputs": [
				{
					"indexed": true,
					"internalType": "uint256",
					"name": "tokenId",
					"type": "uint256"
				},
				{
					"indexed": true,
					"internalType": "address",
					"name": "moderator",
					"type": "address"
				}
			],
			"name": "TokenUnflagged",
			"type": "event"
		},
		{
			"anonymous": false,
			"inputs": [
				{
					"indexed": true,
					"internalType": "address",
					"name": "from",
					"type": "address"
				},
				{
					"indexed": true,
					"internalType": "address",
					"name": "to",
					"type": "address"
				},
				{
					"indexed": true,
					"internalType": "uint256",
					"name": "tokenId",
					"type": "uint256"
				}
			],
			"name": "Transfer",
			"type": "event"
		},
		{
			"anonymous": false,
			"inputs": [
				{
					"indexed": false,
					"internalType": "address",
					"name": "account",
					"type": "address"
				}
			],
			"name": "Unpaused",
			"type": "event"
		},
		{
			"inputs": [],
			"name": "MAX_BATCH_FLAG",
			"outputs": [
				{
					"internalType": "uint256",
					"name": "",
					"type": "uint256"
				}
			],
			"stateMutability": "view",
			"type": "function"
		},
		{
			"inputs": [],
			"name": "MAX_BATCH_SIZE",
			"outputs": [
				{
					"internalType": "uint256",
					"name": "",
					"type": "uint256"
				}
			],
			"stateMutability": "view",
			"type": "function"
		},
		{
			"inputs": [],
			"name": "MAX_FUTURE_EVENT_DATE",
			"outputs": [
				{
					"internalType": "uint256",
					"name": "",
					"type": "uint256"
				}
			],
			"stateMutability": "view",
			"type": "function"
		},
		{
			"inputs": [],
			"name": "MAX_PAST_EVENT_DATE",
			"outputs": [
				{
					"internalType": "uint256",
					"name": "",
					"type": "uint256"
				}
			],
			"stateMutability": "view",
			"type": "function"
		},
		{
			"inputs": [],
			"name": "MAX_SUPPLY",
			"outputs": [
				{
					"internalType": "uint256",
					"name": "",
					"type": "uint256"
				}
			],
			"stateMutability": "view",
			"type": "function"
		},
		{
			"inputs": [
				{
					"internalType": "address",
					"name": "",
					"type": "address"
				},
				{
					"internalType": "uint256",
					"name": "",
					"type": "uint256"
				}
			],
			"name": "approve",
			"outputs": [],
			"stateMutability": "pure",
			"type": "function"
		},
		{
			"inputs": [
				{
					"internalType": "address",
					"name": "owner",
					"type": "address"
				}
			],
			"name": "balanceOf",
			"outputs": [
				{
					"internalType": "uint256",
					"name": "",
					"type": "uint256"
				}
			],
			"stateMutability": "view",
			"type": "function"
		},
		{
			"inputs": [
				{
					"internalType": "uint256[]",
					"name": "tokenIds",
					"type": "uint256[]"
				},
				{
					"internalType": "string",
					"name": "reason",
					"type": "string"
				}
			],
			"name": "batchFlagTokens",
			"outputs": [],
			"stateMutability": "nonpayable",
			"type": "function"
		},
		{
			"inputs": [
				{
					"internalType": "address[]",
					"name": "recipients",
					"type": "address[]"
				},
				{
					"internalType": "string[]",
					"name": "customImages",
					"type": "string[]"
				},
				{
					"internalType": "string[]",
					"name": "customTexts",
					"type": "string[]"
				},
				{
					"internalType": "string",
					"name": "eventName",
					"type": "string"
				},
				{
					"internalType": "uint256",
					"name": "eventDate",
					"type": "uint256"
				}
			],
			"name": "batchTeamMint",
			"outputs": [],
			"stateMutability": "nonpayable",
			"type": "function"
		},
		{
			"inputs": [
				{
					"internalType": "uint256",
					"name": "tokenId",
					"type": "uint256"
				},
				{
					"internalType": "string",
					"name": "reason",
					"type": "string"
				}
			],
			"name": "flagToken",
			"outputs": [],
			"stateMutability": "nonpayable",
			"type": "function"
		},
		{
			"inputs": [
				{
					"internalType": "uint256",
					"name": "tokenId",
					"type": "uint256"
				}
			],
			"name": "getApproved",
			"outputs": [
				{
					"internalType": "address",
					"name": "",
					"type": "address"
				}
			],
			"stateMutability": "view",
			"type": "function"
		},
		{
			"inputs": [],
			"name": "getBaseAnimationURI",
			"outputs": [
				{
					"internalType": "string",
					"name": "",
					"type": "string"
				}
			],
			"stateMutability": "view",
			"type": "function"
		},
		{
			"inputs": [],
			"name": "getBaseImageURI",
			"outputs": [
				{
					"internalType": "string",
					"name": "",
					"type": "string"
				}
			],
			"stateMutability": "view",
			"type": "function"
		},
		{
			"inputs": [],
			"name": "getNSFWReplacementImage",
			"outputs": [
				{
					"internalType": "string",
					"name": "",
					"type": "string"
				}
			],
			"stateMutability": "view",
			"type": "function"
		},
		{
			"inputs": [
				{
					"internalType": "uint256",
					"name": "tokenId",
					"type": "uint256"
				}
			],
			"name": "getTokenMetadata",
			"outputs": [
				{
					"internalType": "string",
					"name": "customImage",
					"type": "string"
				},
				{
					"internalType": "string",
					"name": "customText",
					"type": "string"
				},
				{
					"internalType": "string",
					"name": "eventName",
					"type": "string"
				},
				{
					"internalType": "uint256",
					"name": "eventDate",
					"type": "uint256"
				},
				{
					"internalType": "address",
					"name": "minter",
					"type": "address"
				},
				{
					"internalType": "bool",
					"name": "flagged",
					"type": "bool"
				}
			],
			"stateMutability": "view",
			"type": "function"
		},
		{
			"inputs": [
				{
					"internalType": "address",
					"name": "owner",
					"type": "address"
				},
				{
					"internalType": "address",
					"name": "operator",
					"type": "address"
				}
			],
			"name": "isApprovedForAll",
			"outputs": [
				{
					"internalType": "bool",
					"name": "",
					"type": "bool"
				}
			],
			"stateMutability": "view",
			"type": "function"
		},
		{
			"inputs": [
				{
					"internalType": "uint256",
					"name": "",
					"type": "uint256"
				}
			],
			"name": "isFlagged",
			"outputs": [
				{
					"internalType": "bool",
					"name": "",
					"type": "bool"
				}
			],
			"stateMutability": "view",
			"type": "function"
		},
		{
			"inputs": [],
			"name": "isMintingActive",
			"outputs": [
				{
					"internalType": "bool",
					"name": "",
					"type": "bool"
				}
			],
			"stateMutability": "view",
			"type": "function"
		},
		{
			"inputs": [
				{
					"internalType": "string",
					"name": "customImage",
					"type": "string"
				},
				{
					"internalType": "string",
					"name": "customText",
					"type": "string"
				},
				{
					"internalType": "string",
					"name": "eventName",
					"type": "string"
				},
				{
					"internalType": "uint256",
					"name": "eventDate",
					"type": "uint256"
				}
			],
			"name": "mint",
			"outputs": [],
			"stateMutability": "payable",
			"type": "function"
		},
		{
			"inputs": [],
			"name": "mintPrice",
			"outputs": [
				{
					"internalType": "uint256",
					"name": "",
					"type": "uint256"
				}
			],
			"stateMutability": "view",
			"type": "function"
		},
		{
			"inputs": [
				{
					"internalType": "address",
					"name": "",
					"type": "address"
				}
			],
			"name": "moderators",
			"outputs": [
				{
					"internalType": "bool",
					"name": "",
					"type": "bool"
				}
			],
			"stateMutability": "view",
			"type": "function"
		},
		{
			"inputs": [],
			"name": "name",
			"outputs": [
				{
					"internalType": "string",
					"name": "",
					"type": "string"
				}
			],
			"stateMutability": "view",
			"type": "function"
		},
		{
			"inputs": [],
			"name": "owner",
			"outputs": [
				{
					"internalType": "address",
					"name": "",
					"type": "address"
				}
			],
			"stateMutability": "view",
			"type": "function"
		},
		{
			"inputs": [
				{
					"internalType": "uint256",
					"name": "tokenId",
					"type": "uint256"
				}
			],
			"name": "ownerOf",
			"outputs": [
				{
					"internalType": "address",
					"name": "",
					"type": "address"
				}
			],
			"stateMutability": "view",
			"type": "function"
		},
		{
			"inputs": [],
			"name": "pause",
			"outputs": [],
			"stateMutability": "nonpayable",
			"type": "function"
		},
		{
			"inputs": [],
			"name": "paused",
			"outputs": [
				{
					"internalType": "bool",
					"name": "",
					"type": "bool"
				}
			],
			"stateMutability": "view",
			"type": "function"
		},
		{
			"inputs": [
				{
					"internalType": "address",
					"name": "tokenAddress",
					"type": "address"
				},
				{
					"internalType": "uint256",
					"name": "amount",
					"type": "uint256"
				}
			],
			"name": "recoverERC20",
			"outputs": [],
			"stateMutability": "nonpayable",
			"type": "function"
		},
		{
			"inputs": [
				{
					"internalType": "address",
					"name": "tokenAddress",
					"type": "address"
				},
				{
					"internalType": "uint256",
					"name": "tokenId",
					"type": "uint256"
				}
			],
			"name": "recoverERC721",
			"outputs": [],
			"stateMutability": "nonpayable",
			"type": "function"
		},
		{
			"inputs": [],
			"name": "renounceOwnership",
			"outputs": [],
			"stateMutability": "nonpayable",
			"type": "function"
		},
		{
			"inputs": [
				{
					"internalType": "address",
					"name": "from",
					"type": "address"
				},
				{
					"internalType": "address",
					"name": "to",
					"type": "address"
				},
				{
					"internalType": "uint256",
					"name": "tokenId",
					"type": "uint256"
				}
			],
			"name": "safeTransferFrom",
			"outputs": [],
			"stateMutability": "nonpayable",
			"type": "function"
		},
		{
			"inputs": [
				{
					"internalType": "address",
					"name": "from",
					"type": "address"
				},
				{
					"internalType": "address",
					"name": "to",
					"type": "address"
				},
				{
					"internalType": "uint256",
					"name": "tokenId",
					"type": "uint256"
				},
				{
					"internalType": "bytes",
					"name": "data",
					"type": "bytes"
				}
			],
			"name": "safeTransferFrom",
			"outputs": [],
			"stateMutability": "nonpayable",
			"type": "function"
		},
		{
			"inputs": [
				{
					"internalType": "address",
					"name": "",
					"type": "address"
				},
				{
					"internalType": "bool",
					"name": "",
					"type": "bool"
				}
			],
			"name": "setApprovalForAll",
			"outputs": [],
			"stateMutability": "pure",
			"type": "function"
		},
		{
			"inputs": [
				{
					"internalType": "uint256",
					"name": "newPrice",
					"type": "uint256"
				}
			],
			"name": "setMintPrice",
			"outputs": [],
			"stateMutability": "nonpayable",
			"type": "function"
		},
		{
			"inputs": [
				{
					"internalType": "address",
					"name": "moderator",
					"type": "address"
				},
				{
					"internalType": "bool",
					"name": "authorized",
					"type": "bool"
				}
			],
			"name": "setModerator",
			"outputs": [],
			"stateMutability": "nonpayable",
			"type": "function"
		},
		{
			"inputs": [
				{
					"internalType": "string",
					"name": "newNSFWImage",
					"type": "string"
				}
			],
			"name": "setNSFWReplacementImage",
			"outputs": [],
			"stateMutability": "nonpayable",
			"type": "function"
		},
		{
			"inputs": [
				{
					"internalType": "address",
					"name": "minter",
					"type": "address"
				},
				{
					"internalType": "bool",
					"name": "authorized",
					"type": "bool"
				}
			],
			"name": "setTeamMinter",
			"outputs": [],
			"stateMutability": "nonpayable",
			"type": "function"
		},
		{
			"inputs": [
				{
					"internalType": "bytes4",
					"name": "interfaceId",
					"type": "bytes4"
				}
			],
			"name": "supportsInterface",
			"outputs": [
				{
					"internalType": "bool",
					"name": "",
					"type": "bool"
				}
			],
			"stateMutability": "view",
			"type": "function"
		},
		{
			"inputs": [],
			"name": "symbol",
			"outputs": [
				{
					"internalType": "string",
					"name": "",
					"type": "string"
				}
			],
			"stateMutability": "view",
			"type": "function"
		},
		{
			"inputs": [
				{
					"internalType": "address",
					"name": "recipient",
					"type": "address"
				},
				{
					"internalType": "string",
					"name": "customImage",
					"type": "string"
				},
				{
					"internalType": "string",
					"name": "customText",
					"type": "string"
				},
				{
					"internalType": "string",
					"name": "eventName",
					"type": "string"
				},
				{
					"internalType": "uint256",
					"name": "eventDate",
					"type": "uint256"
				}
			],
			"name": "teamMint",
			"outputs": [],
			"stateMutability": "nonpayable",
			"type": "function"
		},
		{
			"inputs": [
				{
					"internalType": "address",
					"name": "",
					"type": "address"
				}
			],
			"name": "teamMinters",
			"outputs": [
				{
					"internalType": "bool",
					"name": "",
					"type": "bool"
				}
			],
			"stateMutability": "view",
			"type": "function"
		},
		{
			"inputs": [
				{
					"internalType": "uint256",
					"name": "index",
					"type": "uint256"
				}
			],
			"name": "tokenByIndex",
			"outputs": [
				{
					"internalType": "uint256",
					"name": "",
					"type": "uint256"
				}
			],
			"stateMutability": "view",
			"type": "function"
		},
		{
			"inputs": [
				{
					"internalType": "uint256",
					"name": "",
					"type": "uint256"
				}
			],
			"name": "tokenMetadata",
			"outputs": [
				{
					"internalType": "string",
					"name": "customImage",
					"type": "string"
				},
				{
					"internalType": "string",
					"name": "customText",
					"type": "string"
				},
				{
					"internalType": "string",
					"name": "eventName",
					"type": "string"
				},
				{
					"internalType": "uint256",
					"name": "eventDate",
					"type": "uint256"
				},
				{
					"internalType": "address",
					"name": "minter",
					"type": "address"
				}
			],
			"stateMutability": "view",
			"type": "function"
		},
		{
			"inputs": [
				{
					"internalType": "address",
					"name": "owner",
					"type": "address"
				},
				{
					"internalType": "uint256",
					"name": "index",
					"type": "uint256"
				}
			],
			"name": "tokenOfOwnerByIndex",
			"outputs": [
				{
					"internalType": "uint256",
					"name": "",
					"type": "uint256"
				}
			],
			"stateMutability": "view",
			"type": "function"
		},
		{
			"inputs": [
				{
					"internalType": "uint256",
					"name": "tokenId",
					"type": "uint256"
				}
			],
			"name": "tokenURI",
			"outputs": [
				{
					"internalType": "string",
					"name": "",
					"type": "string"
				}
			],
			"stateMutability": "view",
			"type": "function"
		},
		{
			"inputs": [],
			"name": "totalSupply",
			"outputs": [
				{
					"internalType": "uint256",
					"name": "",
					"type": "uint256"
				}
			],
			"stateMutability": "view",
			"type": "function"
		},
		{
			"inputs": [
				{
					"internalType": "address",
					"name": "from",
					"type": "address"
				},
				{
					"internalType": "address",
					"name": "to",
					"type": "address"
				},
				{
					"internalType": "uint256",
					"name": "tokenId",
					"type": "uint256"
				}
			],
			"name": "transferFrom",
			"outputs": [],
			"stateMutability": "nonpayable",
			"type": "function"
		},
		{
			"inputs": [
				{
					"internalType": "address",
					"name": "newOwner",
					"type": "address"
				}
			],
			"name": "transferOwnership",
			"outputs": [],
			"stateMutability": "nonpayable",
			"type": "function"
		},
		{
			"inputs": [
				{
					"internalType": "uint256",
					"name": "tokenId",
					"type": "uint256"
				}
			],
			"name": "unflagToken",
			"outputs": [],
			"stateMutability": "nonpayable",
			"type": "function"
		},
		{
			"inputs": [],
			"name": "unpause",
			"outputs": [],
			"stateMutability": "nonpayable",
			"type": "function"
		},
		{
			"inputs": [
				{
					"internalType": "string",
					"name": "newBaseAnimationURI",
					"type": "string"
				}
			],
			"name": "updateBaseAnimationURI",
			"outputs": [],
			"stateMutability": "nonpayable",
			"type": "function"
		},
		{
			"inputs": [
				{
					"internalType": "string",
					"name": "newBaseImageURI",
					"type": "string"
				}
			],
			"name": "updateBaseImageURI",
			"outputs": [],
			"stateMutability": "nonpayable",
			"type": "function"
		},
		{
			"inputs": [
				{
					"internalType": "uint256",
					"name": "tokenId",
					"type": "uint256"
				},
				{
					"internalType": "string",
					"name": "customImage",
					"type": "string"
				},
				{
					"internalType": "string",
					"name": "customText",
					"type": "string"
				},
				{
					"internalType": "string",
					"name": "eventName",
					"type": "string"
				},
				{
					"internalType": "uint256",
					"name": "eventDate",
					"type": "uint256"
				}
			],
			"name": "updateTokenMetadata",
			"outputs": [],
			"stateMutability": "nonpayable",
			"type": "function"
		},
		{
			"inputs": [],
			"name": "withdraw",
			"outputs": [],
			"stateMutability": "nonpayable",
			"type": "function"
		},
		{
			"inputs": [],
			"name": "withdrawETH",
			"outputs": [],
			"stateMutability": "nonpayable",
			"type": "function"
		}
	]
}